:020000040800F2
:10000000000002201D4A0008B9490008BB49000849
:10001000BD490008BF490008C149000800000000B0
:10002000000000000000000000000000C3490008BC
:10003000C549000800000000C7490008C949000878
:100040006D4A00086D4A00086D4A00086D4A0008B4
:100050006D4A00086D4A00086D4A00086D4A0008A4
:100060006D4A00086D4A00086D4A00086D4A000894
:100070006D4A00086D4A00086D4A00086D4A000884
:100080006D4A00086D4A00086D4A00086D4A000874
:100090006D4A00086D4A00086D4A00086D4A000864
:1000A0006D4A00086D4A00086D4A00086D4A000854
:1000B0006D4A00086D4A00086D4A00086D4A000844
:1000C0006D4A00086D4A00086D4A00086D4A000834
:1000D0006D4A00086D4A00086D4A00086D4A000824
:1000E0006D4A00086D4A00086D4A00086D4A000814
:1000F0006D4A00086D4A00086D4A00086D4A000804
:100100006D4A00086D4A00086D4A00086D4A0008F3
:100110006D4A00086D4A00086D4A00086D4A0008E3
:100120006D4A00086D4A00086D4A00086D4A0008D3
:100130006D4A000800000000000000006D4A000841
:100140006D4A00086D4A00086D4A00086D4A0008B3
:100150006D4A00086D4A00086D4A00086D4A0008A3
:100160006D4A00086D4A00086D4A00086D4A000893
:100170006D4A00086D4A00086D4A00080000000042
:10018000000000006D4A00080000000000000000B0
:100190006D4A000800000000000000006D4A0008E1
:1001A0000000000000000000000000006D4A000890
:1001B0006D4A00086D4A00086D4A00086D4A000843
:0401C0006D4A00087C
:1001D00010B5054C237833B9044B13B10448AFF381
:1001E00000800123237010BDDC010020000000000E
:1001F000706B000808B5034B1BB103490348AFF30C
:10020000008008BD00000000E0010020706B0008C5
:1002100081F0004102E000BF83F0004330B54FEAB7
:1002200041044FEA430594EA050F08BF90EA020F24
:100230001FBF54EA000C55EA020C7FEA645C7FEAB7
:10024000655C00F0E2804FEA5454D4EB5555B8BFDA
:100250006D420CDD2C4480EA020281EA030382EA4B
:10026000000083EA010180EA020281EA0303362DDD
:1002700088BF30BD11F0004F4FEA01314FF4801CB0
:100280004CEA113102D0404261EB410113F0004FC2
:100290004FEA03334CEA133302D0524263EB430379
:1002A00094EA050F00F0A780A4F10104D5F1200E17
:1002B0000DDB02FA0EFC22FA05F2801841F1000172
:1002C00003FA0EF2801843FA05F359410EE0A5F146
:1002D00020050EF1200E012A03FA0EFC28BF4CF077
:1002E000020C43FA05F3C01851EBE37101F000452D
:1002F00007D54FF0000EDCF1000C7EEB00006EEB3A
:100300000101B1F5801F1BD3B1F5001F0CD34908C3
:100310005FEA30004FEA3C0C04F101044FEA44521A
:1003200012F5800F80F09A80BCF1004F08BF5FEAA1
:10033000500C50F1000041EB045141EA050130BD81
:100340005FEA4C0C404141EB010111F4801FA4F124
:100350000104E9D191F0000F04BF01460020B1FA79
:1003600081F308BF2033A3F10B03B3F120020CDAB1
:100370000C3208DD02F1140CC2F10C0201FA0CF08F
:1003800021FA02F10CE002F11402D8BFC2F1200CF4
:1003900001FA02F120FA0CFCDCBF41EA0C019040AA
:1003A000E41AA2BF01EB0451294330BD6FEA0404F3
:1003B0001F3C1CDA0C340EDC04F11404C4F12002DE
:1003C00020FA04F001FA02F340EA030021FA04F3F0
:1003D00045EA030130BDC4F10C04C4F1200220FA47
:1003E00002F001FA04F340EA0300294630BD21FA85
:1003F00004F0294630BD94F0000F83F4801306BF4B
:1004000081F480110134013D4EE77FEA645C18BF3E
:100410007FEA655C29D094EA050F08BF90EA020FD5
:1004200005D054EA000C04BF1946104630BD91EACD
:10043000030F1EBF0021002030BD5FEA545C05D1D0
:100440004000494128BF41F0004130BD14F580040F
:100450003CBF01F5801130BD01F0004545F0FE4183
:1004600041F470014FF0000030BD7FEA645C1ABFB8
:10047000194610467FEA655C1CBF0B46024650EAEF
:10048000013406BF52EA033591EA030F41F400211B
:1004900030BD00BF90F0000F04BF0021704730B5A1
:1004A0004FF4806404F132044FF000054FF0000176
:1004B00050E700BF90F0000F04BF0021704730B537
:1004C0004FF4806404F1320410F0004548BF40420C
:1004D0004FF000013EE700BF42004FEAE2014FEA61
:1004E00031014FEA02701FBF12F07F4393F07F4F3C
:1004F00081F06051704732F07F4208BF704793F03F
:100500007F4F04BF41F40021704730B54FF4607451
:1005100001F0004521F000411CE700BF50EA010254
:1005200008BF704730B54FF000050AE050EA0102FD
:1005300008BF704730B511F0004502D5404261EB6D
:1005400041014FF4806404F132045FEA915C3FF4AE
:10055000D8AE4FF003025FEADC0C18BF03325FEA4B
:10056000DC0C18BF033202EBDC02C2F1200300FAFC
:1005700003FC20FA02F001FA03FE40EA0E0021FA21
:1005800002F11444BDE600BF70B54FF0FF0C4CF40F
:10059000E06C1CEA11541DBF1CEA135594EA0C0FC1
:1005A00095EA0C0F00F0DEF82C4481EA030621EAFC
:1005B0004C5123EA4C5350EA013518BF52EA033537
:1005C00041F4801143F4801338D0A0FB02CE4FF0E9
:1005D0000005E1FB02E506F00042E0FB03E54FF019
:1005E0000006E1FB03569CF0000F18BF4EF0010E11
:1005F000A4F1FF04B6F5007F64F5407404D25FEA0D
:100600004E0E6D4146EB060642EAC62141EA5551BF
:100610004FEAC52040EA5E504FEACE2EB4F1FD0C01
:1006200088BFBCF5E06F1ED8BEF1004F08BF5FEA7F
:10063000500E50F1000041EB045170BD06F0004631
:1006400046EA010140EA020081EA0301B4EB5C04DE
:10065000C2BFD4EB0C0541EA045170BD41F48011D6
:100660004FF0000E013C00F3AB8014F1360FDEBFFB
:10067000002001F0004170BDC4F10004203C35DAD7
:100680000C341BDC04F11404C4F1200500FA05F35A
:1006900020FA04F001FA05F240EA020001F00042FB
:1006A00021F0004110EBD37021FA04F642EB060171
:1006B0005EEA430E08BF20EAD37070BDC4F10C049B
:1006C000C4F1200500FA04F320FA05F001FA04F25F
:1006D00040EA020001F0004110EBD37041F100014B
:1006E0005EEA430E08BF20EAD37070BDC4F1200556
:1006F00000FA05F24EEA020E20FA04F301FA05F2BE
:1007000043EA020321FA04F001F0004121FA04F265
:1007100020EA020000EBD3705EEA430E08BF20EA35
:10072000D37070BD94F0000F0FD101F0004640006F
:1007300041EB010111F4801F08BF013CF7D041EAF1
:10074000060195F0000F18BF704703F000465200F5
:1007500043EB030313F4801F08BF013DF7D043EAC6
:100760000603704794EA0C0F0CEA135518BF95EA7C
:100770000C0F0CD050EA410618BF52EA4306D1D103
:1007800081EA030101F000414FF0000070BD50EA22
:10079000410606BF1046194652EA430619D094EAAC
:1007A0000C0F02D150EA013613D195EA0C0F05D196
:1007B00052EA03361CBF104619460AD181EA0301EA
:1007C00001F0004141F0FE4141F470014FF00000A2
:1007D00070BD41F0FE4141F4780170BD70B54FF03D
:1007E000FF0C4CF4E06C1CEA11541DBF1CEA1355BD
:1007F00094EA0C0F95EA0C0F00F0A7F8A4EB05049F
:1008000081EA030E52EA03354FEA013100F0888095
:100810004FEA03334FF0805545EA131343EA12635E
:100820004FEA022245EA111545EA10654FEA002613
:100830000EF000419D4208BF964244F1FD0404F5CC
:10084000407402D25B084FEA3202B61A65EB030528
:100850005B084FEA32024FF480104FF4002CB6EBE5
:10086000020E75EB030E22BFB61A754640EA0C0065
:100870005B084FEA3202B6EB020E75EB030E22BFA5
:10088000B61A754640EA5C005B084FEA3202B6EBE6
:10089000020E75EB030E22BFB61A754640EA9C00A5
:1008A0005B084FEA3202B6EB020E75EB030E22BF75
:1008B000B61A754640EADC0055EA060E18D04FEA33
:1008C000051545EA16754FEA06164FEAC30343EAD3
:1008D00052734FEAC2025FEA1C1CC0D111F4801FA0
:1008E0000BD141EA00014FF000004FF0004CB6E799
:1008F00011F4801F04BF01430020B4F1FD0C88BF38
:10090000BCF5E06F3FF6AFAEB5EB030C04BFB6EB42
:10091000020C5FEA500C50F1000041EB045170BD35
:100920000EF0004E4EEA113114EB5C04C2BFD4EB62
:100930000C0541EA045170BD41F480114FF0000EE6
:10094000013C90E645EA060E8DE60CEA135594EA62
:100950000C0F08BF95EA0C0F3FF43BAF94EA0C0F65
:100960000AD150EA01347FF434AF95EA0C0F7FF4DA
:1009700025AF104619462CE795EA0C0F06D152EA2E
:1009800003353FF4FDAE1046194622E750EA410612
:1009900018BF52EA43067FF4C5AE50EA41047FF423
:1009A0000DAF52EA43057FF4EBAE12E74FEA410286
:1009B000B2F1E04324BFB3F5001CDCF1FE5C0DD9BD
:1009C00001F0004C4FEAC0024CEA5070B2F1004F07
:1009D00040EB830008BF20F00100704711F0804F0A
:1009E00021D113F13872BCBF01F00040704741F4CF
:1009F00080114FEA5252C2F11802C2F1200C10FAD3
:100A00000CF320FA02F018BF40F001004FEAC123B6
:100A10004FEAD32303FA0CFC40EA0C0023FA02F35A
:100A20004FEA4303CCE77FEA625307D150EA013330
:100A30001EBF4FF0FE4040F44000704701F0004000
:100A400040F0FE4040F40000704700BF7BB972B92F
:100A50000029BEBF00204FF0004106E008BF00287B
:100A60001CBF6FF000414FF0FF3000F0BDB9ADF199
:100A7000080C6DE904CE002909DB002B1ADB00F01D
:100A80004DF8DDF804E0DDE9022304B07047404290
:100A900061EB4101002B1BDB00F040F8DDF804E0C6
:100AA000DDE9022304B0404261EB4101524263EBB5
:100AB00043037047524263EB430300F02FF8DDF825
:100AC00004E0DDE9022304B0404261EB41017047DC
:100AD000524263EB430300F021F8DDF804E0DDE966
:100AE000022304B0524263EB4303704753B94AB93F
:100AF000002908BF00281CBF4FF0FF314FF0FF3026
:100B000000F072B9ADF1080C6DE904CE00F006F802
:100B1000DDF804E0DDE9022304B070472DE9F04779
:100B2000089E04468846002B4BD18A42154667D959
:100B3000B2FA82F24AB1C2F1200701FA02F320FAB6
:100B400007F7954047EA030894404FEA154E230CF7
:100B5000B8FBFEF71FFA85FC0EFB178843EA084333
:100B600007FB0CF1994209D9EB1807F1FF3080F02F
:100B70001B81994240F21881023F2B445B1AA4B2B8
:100B8000B3FBFEF00EFB103344EA034400FB0CFC05
:100B9000A44509D92C1900F1FF3380F00781A44541
:100BA00040F2048102382C4440EA0740A4EB0C04D4
:100BB00000271EB1D4400023C6E900433946BDE8F2
:100BC000F0878B4209D9002E00F0EB800027C6E9A0
:100BD000000138463946BDE8F087B3FA83F7002FA5
:100BE00047D18B4202D3824200F2FA80841A61EB31
:100BF000030301209846002EE0D0C6E90048DDE757
:100C000002B9FFDEB2FA82F2002A40F08F80491B5F
:100C10004FEA154E1FFA85F80127B1FBFEFC230CA5
:100C20000EFB1C1143EA014308FB0CF1994207D962
:100C3000EB180CF1FF3002D2994200F2CD808446CD
:100C4000591AA3B2B1FBFEF00EFB101443EA0444A0
:100C500008FB00F8A04507D92C1900F1FF3302D298
:100C6000A04500F2B6801846A4EB080440EA0C4008
:100C70009FE7C7F1200CBB4022FA0CFE4EEA030EA0
:100C800001FA07F420FA0CF521FA0CF34FEA1E489A
:100C90002543B3FBF8F92C0C08FB19331FFA8EFA25
:100CA00044EA034309FB0AF49C4202FA07F200FA01
:100CB00007F10BD91EEB030309F1FF3080F08780A9
:100CC0009C4240F28480A9F1020973441B1BADB21F
:100CD000B3FBF8F008FB103345EA034400FB0AFAC3
:100CE000A24508D91EEB040400F1FF336BD2A245E4
:100CF00069D90238744440EA0940A0FB0289A4EB98
:100D00000A044C45C2464B4654D351D0002E69D0FC
:100D1000B1EB0A0564EB030404FA0CFCFD40FC4053
:100D20004CEA0505C6E90054002747E7C2F1200355
:100D300020FA03F7954001FA02F021FA03F34FEA93
:100D4000154E3843010CB3FBFEF71FFA85F80EFB76
:100D5000173341EA034107FB08F38B4204FA02F41C
:100D600007D9691807F1FF3C2FD28B422DD9023FDA
:100D70002944CB1A81B2B3FBFEF00EFB103341EADB
:100D8000034100FB08F38B4207D9691800F1FF3CCF
:100D900017D28B4215D902382944C91A40EA0747AD
:100DA0003BE73746304609E70746E7E61846FBE6E5
:100DB0004145ABD2B8EB020A69EB0E02013813468B
:100DC000A4E76046E9E7184695E76746D1E781461C
:100DD0007CE702382C4447E7ACF1020C2B442FE7A8
:100DE000384608E73746E9E6704700BF034613F880
:100DF000012B002AFBD1181A0138704700000000AF
:100E000001F0FF01102A2BDB10F0070F08D010F8BB
:100E1000013B013A8B422DD010F0070F42B3F6D1BF
:100E2000F0B441EA012141EA014122F007047FF0D8
:100E300000070023F0E80256083C85EA010586EA2F
:100E4000010685FA47F5A3FA87F586FA47F6A5FA6B
:100E500087F68EB9EED1F0BC01F0FF0102F0070277
:100E600032B110F8013B013A83EA010313B1F8D122
:100E70000020704701387047002D06BF3546033803
:100E8000073815F0010F07D1013015F4807F02BF3C
:100E9000013015F4C03F0130F0BC0138704700BF8D
:100EA0004FF0FF3C06E000BF4FF0010C02E000BF36
:100EB0004FF0010C4DF804CD4FEA410C7FEA6C5C19
:100EC0004FEA430C18BF7FEA6C5C1BD001B050EABC
:100ED000410C0CBF52EA430C91EA030F02BF90EAA7
:100EE000020F0020704710F1000F91EA030F58BF66
:100EF000994208BF90422CBFD8176FEAE37040F0C8
:100F0000010070474FEA410C7FEA6C5C02D150EA65
:100F1000013C07D14FEA430C7FEA6C5CD6D152EA20
:100F2000033CD3D05DF8040B704700BF84461046E5
:100F300062468C461946634600E000BF01B5FFF7E4
:100F4000B7FF002848BF10F1000F01BD4DF808EDB4
:100F5000FFF7F4FF0CBF012000205DF808FB00BF85
:100F60004DF808EDFFF7EAFF34BF012000205DF8DF
:100F700008FB00BF4DF808EDFFF7E0FF94BF01202C
:100F800000205DF808FB00BF4DF808EDFFF7CEFF2D
:100F900094BF012000205DF808FB00BF4DF808ED6C
:100FA000FFF7C4FF34BF012000205DF808FB00BF3D
:100FB0004FEA410C7FEA6C5C02D150EA013C0AD155
:100FC0004FEA430C7FEA6C5C02D152EA033C02D147
:100FD0004FF0000070474FF0010070474FEA4102A8
:100FE00012F5001215D211D56FF47873B3EB62527B
:100FF00012D94FEAC12343F0004343EA505311F0A2
:10100000004F23FA02F018BF404270474FF0000033
:10101000704750EA013005D111F0004008BF6FF071
:10102000004070474FF00000704700BF10B5044605
:101030000E4B18784FF47A73B3FBF0F30C4A106838
:10104000B0FBF3F000F09CF868B90F2C01D9012037
:101050000AE0002221464FF0FF3000F05DF8034B1C
:101060005C60002000E0012010BD00BF00000020F7
:101070000800002008B50B4B1A6842F400721A6091
:101080001A6842F480621A601A6842F480721A6028
:10109000032000F02FF80020FFF7C8FF03F09CFBAF
:1010A000002008BD003C0240034A1168034B1B7836
:1010B0000B441360704700BF0402002000000020B2
:1010C000014B1868704700BF0402002038B5044681
:1010D000FFF7F6FF0546B4F1FF3F02D0044B1B7843
:1010E0001C44FFF7EDFF401BA042FAD338BD00BF00
:1010F00000000020074AD36823F4E0631B041B0CA4
:10110000000200F4E060184340F0BF6040F400309B
:10111000D060704700ED00E030B4174BDB68C3F3DC
:101120000223C3F10704042C28BF04241D1D062D2F
:1011300018D9033B4FF0FF3505FA04F421EA040106
:10114000994005FA03F322EA0303194300280BDB55
:101150000901C9B200F1604000F5614080F8001358
:1011600030BC70470023E5E700F00F000901C9B269
:10117000024B1954F4E700BF00ED00E014ED00E06D
:101180000138B0F1807F0AD2064B5860064AF02140
:1011900082F823100020986007221A60704701200F
:1011A000704700BF10E000E000ED00E000230F2BCF
:1011B00000F2D180F0B482B039E0062200E00022D3
:1011C000B2403A430234644E46F82420634A14681D
:1011D000EA4302EA04064F6817F4803F01D045EA6B
:1011E00004065E4C2660646802EA04064F6817F441
:1011F000003F01D045EA0406584C6660A46802EA44
:1012000004064F6817F4801F01D045EA0406534CCA
:10121000A660E46822404E6816F4001F01D045EA3B
:1012200004024E4CE26001330F2B00F29180012248
:101230009A400C6804EA0205AA42F4D14C68022CD8
:1012400001D0122C10D1DE08083650F826C003F069
:101250000704A7000F24BC402CEA040C0C69BC4016
:1012600044EA0C0440F8264004685F000326BE40B0
:10127000F64306EA040C4C6804F00304BC4044EA5C
:101280000C0404604C6804F1FF3CBCF1010F03D96D
:10129000112C01D0122C10D1846806EA040CCC6801
:1012A000BC4044EA0C048460446824EA02024C68AE
:1012B000C4F300149C4014434460C26816408A681A
:1012C000BA403243C2604A6812F0805FABD000225D
:1012D0000192234A546C44F480445464526C02F4E6
:1012E00080420192019A9C08A61C1B4A52F8267063
:1012F00003F0030296000F22B24027EA0207194AC0
:1013000090423FF45CAF02F58062904216D002F545
:101310008062904214D002F58062904212D002F5B1
:101320008062904210D002F5806290420ED002F5A9
:10133000806290423FF441AF072241E701223FE73C
:1013400002223DE703223BE7042239E7052237E783
:1013500002B0F0BC7047704700380140003C0140CB
:10136000003802400000024012B909048161704750
:101370008161704703685A6912F4806F0DD06FF471
:1013800080625A610423036400230363202280F8EF
:101390003D2080F83C300120704700207047F8B5B0
:1013A00006460C4617461D461EE02DB1FFF788FE87
:1013B000069BC01AA84217D900233363202286F85F
:1013C0003D2086F83E3086F83C3003201AE0336832
:1013D0005B6924EA03039BB2B3FA83F35B099F4280
:1013E0000FD1B5F1FF3FE0D1C4F30743012BEED09D
:1013F00033689B6924EA03039BB2B3FA83F35B0966
:10140000EDE70020F8BDF8B504460D4616461F4628
:1014100032E01A6842F400721A6023686FF4806246
:101420005A610423236400232363202284F83D208F
:1014300084F83C3001202DE026B1FFF741FEC01BAF
:10144000B04219D900232363202284F83D2084F878
:101450003C3003201EE023685B6925EA03039BB24E
:10146000003318BF0123A3B123685A6912F4806FB7
:10147000CFD1B6F1FF3FDFD1C5F30743012BEAD04F
:1014800023689B6925EA03039BB2003318BF01233D
:10149000E9E70020F8BD0000F0B583B004460D4632
:1014A00016461F46C36A042B0DD0012B0BD013F533
:1014B000803F08D0036B122B0AD10268136843F4F3
:1014C0008073136004E02268136843F48073136030
:1014D0000097334600224FF001112046FFF75FFFCF
:1014E00058BB2369B3F5804F10D1236805F0FE0582
:1014F0001D613B46324615492046FFF784FF0346EF
:10150000E0B1236C042B1ED1012317E0EB112268FC
:1015100003F0060343F0F00313613B4632460C49E7
:101520002046FFF770FF20B1236C042B09D1012363
:1015300004E02368EDB21D61DBE70323184603B026
:10154000F0BD0323FAE70323F8E700BF0200010020
:10155000080001002DE9F04184B004460D4616460E
:101560001F46C26A01680B6843F480630B60042A5B
:101570000DD0012A0BD012F5803F08D0036B112B40
:101580000AD10268136843F48073136004E0226890
:10159000136843F4807313600097334600224FF0C2
:1015A00001112046FFF7FBFE002852D12369B3F555
:1015B000804F12D1236845F00105EDB21D613B4615
:1015C00032462A492046FFF71EFF0346002841D035
:1015D000236C042B48D101233CE04FEAE51808F0C6
:1015E0000608236848F0F0021A613B46324620495B
:1015F0002046FFF708FF20B1236C042B2ED10123D6
:1016000028E02368EDB21D613B463246174920466B
:10161000FFF7F9FE20B1236C042B21D1012319E03F
:1016200000220392236859690391996903910399F0
:10163000196841F480711960009733464FF0011129
:101640002046FFF7ACFE68B9226848F0F103136149
:10165000B5E70323184604B0BDE8F0810323F9E79A
:101660000323F7E70323F5E70323F3E70200010071
:101670000800010070B504460D46164623685B69F4
:1016800013F0800F19D12046FFF774FEB8B9B5F1F9
:10169000FF3FF3D025B1FFF713FD801BA842EDD922
:1016A000236C43F02003236400232363202284F867
:1016B0003D2084F83C30032000E0002070BD012074
:1016C000FCE700002DE9F04184B004460E461746C1
:1016D00098460B9D0268136843F48073136000956D
:1016E0000A9B00224FF00111FFF759FE002847D155
:1016F000236806F0FE061E612B460A9A26492046FC
:10170000FFF781FE20B1236C042B3ED1012338E08A
:101710000023039323685A6903929B690393039BF5
:101720002A460A992046FFF7A5FF034648B1236CD5
:10173000042B2CD12268136843F400731360012337
:101740001FE0B8F1010F13D023683A0A1A612A4644
:101750000A992046FFF78EFF034668B1236C042BDD
:1017600017D12268136843F400731360012308E063
:101770002268FFB2176104E02268FFB2176100E03F
:101780000323184604B0BDE8F0810323F9E70323DF
:10179000F7E70323F5E700BF020001002DE9F04160
:1017A00084B004460E46174698460B9D026813689F
:1017B00043F4806313600268136843F4807313601A
:1017C00000950A9B00224FF00111FFF7E8FD002869
:1017D00074D1F6B2236806F0FE021A612B460A9A0B
:1017E0003F492046FFF70FFE20B1236C042B6AD13E
:1017F000012364E00023039323685A6903929B69E1
:101800000393039B2A460A992046FFF733FF48B10A
:10181000236C042B59D12268136843F400731360BE
:1018200001234CE0B8F1010F12D12368FFB21F6110
:101830002A460A992046FFF71DFF00B3236C042BAC
:1018400047D12268136843F400731360012336E024
:1018500023683A0A1A612A460A992046FFF70AFFC6
:1018600048B1236C042B32D12268136843F400730F
:101870001360012323E02368FFB21F61D8E72268C9
:10188000136843F48073136000950A9B00224FF0A5
:1018900001112046FFF783FDE8B9236846F00106F1
:1018A0001E612B460A9A0E492046FFF7ACFD0346FF
:1018B00028B1236C042B10D1012300E00323184628
:1018C00004B0BDE8F0810323F9E70323F7E703231E
:1018D000F5E70323F3E70323F1E70323EFE700BF73
:1018E0000200010070B504460D46164623685B6988
:1018F00013F0040F19D12046FFF73CFDB8B9B5F13C
:10190000FF3FF3D025B1FFF7DBFB801BA842EDD9E9
:10191000236C43F02003236400232363202284F8F4
:101920003D2084F83C30032000E0002070BD012001
:10193000FCE770B505460C4616462B685A6912F04E
:10194000400F22D15A6912F0100F11D124B1FFF7C4
:10195000B7FB801BA042F0D92B6C43F020032B6413
:10196000202385F83D30002385F83C30032070BDEE
:101970006FF010025A6100232B642B63202285F83C
:101980003D2085F83C300120F1E70020EFE7000022
:10199000002800F0828010B5044690F83D30002BFE
:1019A00041D0242384F83D302268136823F00103DA
:1019B000136000F095FD3A4BA3FB00239B0C2268BB
:1019C00053606168374A914232D80133226813620A
:1019D0006368344A934235D85B00B0FBF3F0C0F340
:1019E0000B03032B00D804202368D861E369216A24
:1019F00022680B4313602369E16822680B439360FC
:101A00006369A16922680B43D3602268136843F0BD
:101A10000103136000202064202384F83D302063FC
:101A200084F83E0010BD80F83C3002F0F5FEB8E7C7
:101A30004FF4967202FB03F31B4AA2FB03239B099C
:101A40000133C3E7A16889B903EB4302B0FBF2F2AB
:101A5000C2F30B02B2FA82F25209E2B991B903EB76
:101A60004303B0FBF3F040F40040BDE703EB830217
:101A700002EB8202B0FBF2F2C2F30B02B2FA82F284
:101A80005209EAE703EB830303EB8303B0FBF3F0B4
:101A900040F44040A8E70120A6E70120704700BFBE
:101AA00083DE1B43A0860100D34D62102DE9F04177
:101AB00084B004460E4690461F46FFF701FB94F89B
:101AC0003D30DBB2202B04D00226304604B0BDE806
:101AD000F081054600901923012254492046FFF762
:101AE0005EFC002840F0998094F83C30012B00F017
:101AF0009680012384F83C3023681A6812F0010FA5
:101B000003D11A6842F001021A602268136823F4B4
:101B100000631360212384F83D30102384F83E30A5
:101B200000232364C4F824806785A3F58033E3622F
:101B3000638D23852B460A9A31462046FFF7ACFC7D
:101B4000064660B1236C042B04D1002384F83C309A
:101B50000126BAE7002384F83C300326B5E70023CA
:101B6000039323685A6903929B690393039B10E0D4
:101B7000236C042B55D12268136843F4007313605F
:101B80000126A2E72A460A992046FFF7ABFE002865
:101B90002BD1238D002B32D02A460A992046FFF7FD
:101BA00069FD0028E4D1636A5A1C626222681B78CE
:101BB0001361638D013B9BB26385238D013B9BB217
:101BC00023852268516911F0040FDBD0002BD9D096
:101BD000636A591C61621B781361638D013B9BB280
:101BE0006385238D013B2385CCE7236C042B1AD11D
:101BF0002268136843F400731360012665E72268C6
:101C0000136843F400731360202384F83D300023ED
:101C100084F83E3084F83C3057E7022655E7022628
:101C200053E7032651E703264FE700BF02001000E9
:101C30002DE9F04186B004460E4690461F46FFF758
:101C40003FFA94F83D30DBB2202B04D00226304618
:101C500006B0BDE8F08105460090192301228C49A9
:101C60002046FFF79CFB002840F04B8194F83C3065
:101C7000012B00F04881012384F83C3023681A6866
:101C800012F0010F03D11A6842F001021A602268B3
:101C9000136823F400631360222384F83D3010237B
:101CA00084F83E3000232364C4F824806785A3F5BC
:101CB0008033E362638D23852B460C9A31462046A0
:101CC000FFF748FC064660B1236C042B04D10023C7
:101CD00084F83C300126BAE7002384F83C30032620
:101CE000B5E7238D5BB9029323685A6902929A691A
:101CF0000292029A1A6842F400721A607AE0012B8A
:101D00000FD0022B1FD02268136843F48063136046
:101D10000023059323685A6905929B690593059BE7
:101D200068E02268136823F4806313600023039340
:101D300023685A6903929A690392039A1A6842F4D3
:101D400000721A6056E02268136823F480631360FF
:101D50002268136843F4006313600023049323682C
:101D60005A6904929B690493049B43E02A460C99A8
:101D70002046FFF7DEFD68B923681A69636A591CBB
:101D800061621A70238D013B2385638D013B9BB2F9
:101D900063852FE0236C202B01D0012657E7032613
:101DA00055E700950C9B00223A492046FFF7F7FAC9
:101DB000002840F0AA802268136843F4007313607F
:101DC00023681A69636A591C61621A70238D013B8A
:101DD0002385638D013B9BB2638523681A69636A1F
:101DE000591C61621A70238D013B2385638D013B71
:101DF0009BB26385238D002B7AD0032B4CD8012B0B
:101E0000B4D0022BCDD000950C9B00222149204656
:101E1000FFF7C5FA00287AD12268136823F480639B
:101E2000136023681A69636A591C61621A70238DF2
:101E3000013B2385638D013B9BB2638500950C9B21
:101E4000002214492046FFF7AAFA002861D122682F
:101E5000136843F40073136023681A69636A591C9A
:101E600061621A70238D013B2385638D013B9BB218
:101E7000638523681A69636A591C61621A70238D2D
:101E8000013B2385638D013B9BB26385B2E700BFB5
:101E900002001000040001002A460C992046FFF7BA
:101EA00048FDF0B923681A69636A591C61621A70A7
:101EB000238D013B2385638D013B9BB263852368A2
:101EC0005A6912F0040F95D01A69636A591C61624D
:101ED0001A70238D013B2385638D013B9BB2638583
:101EE00088E7236C202B01D00126B0E60326AEE65E
:101EF000202384F83D30002384F83E3084F83C30C1
:101F0000A5E60226A3E60226A1E603269FE603260F
:101F10009DE603269BE600BF2DE9F04182B0044612
:101F20000E4617469846FFF7CBF894F83D30DBB2E3
:101F3000202B04D00223184602B0BDE8F0810546EC
:101F400000901923012251492046FFF728FA002862
:101F500040F0938094F83C30012B00F090800123F6
:101F600084F83C3023681A6812F0010F03D11A6814
:101F700042F001021A602268136823F400631360C0
:101F8000212384F83D30402384F83E30002323642D
:101F9000089B6362BDF8243063853D4BE362638D2B
:101FA000238501950A9B009343463A4631462046D5
:101FB000FFF788FBB0B1236C042B04D1002384F815
:101FC0003C300123B7E7002384F83C300323B2E719
:101FD000236C042B55D12268136843F400731360FB
:101FE0000123A8E7238D002B28D02A460A992046F2
:101FF000FFF740FB0028EBD1636A5A1C626222683B
:102000001B781361238D013B9BB22385628D013ABE
:1020100092B262852268516911F0040FE2D0002B60
:10202000E0D0636A591C61621B781361238D013B08
:102030002385638D013B9BB26385D3E72A460A99CA
:102040002046FFF74FFC034648B1236C042B1AD1FE
:102050002268136843F40073136001236BE721685F
:102060000A6842F400720A60202284F83D200022AF
:1020700084F83E2084F83C205DE702235BE70223DE
:1020800059E7032357E7032355E700BF0200100079
:102090000000FFFF2DE9F04186B004460E461746CA
:1020A0009846FFF70DF894F83D30DBB2202B04D0B2
:1020B0000226304606B0BDE8F0810546009019239F
:1020C00001228B492046FFF76AF9002840F04B8136
:1020D00094F83C30012B00F04881012384F83C3017
:1020E00023681A6812F0010F03D11A6842F0010246
:1020F0001A602268136823F400631360222384F8B3
:102100003D30402384F83E30002323640C9B6362FF
:10211000BDF834306385774BE362638D2385019589
:102120000E9B009343463A4631462046FFF736FB66
:10213000064660B1236C042B04D1002384F83C30A4
:102140000126B6E7002384F83C300326B1E7238D4F
:102150005BB9029323685A6902929A690292029AC1
:102160001A6842F400721A6075E0012B0AD0022B43
:102170001AD00023059323685A6905929B69059339
:10218000059B68E02268136823F4806313600023D2
:10219000039323685A6903929A690392039A1A680F
:1021A00042F400721A6056E02268136823F48063D8
:1021B00013602268136843F40063136000230493E0
:1021C00023685A6904929B690493049B43E02A465E
:1021D0000E992046FFF7ADFB68B923681A69636A58
:1021E000591C61621A70238D013B2385638D013B6D
:1021F0009BB263852FE0236C202B01D0012658E78A
:10220000032656E700950E9B00223B492046FFF728
:10221000C6F8002840F0AB802268136843F40073CE
:10222000136023681A69636A591C61621A70238DEE
:10223000013B2385638D013B9BB2638523681A694B
:10224000636A591C61621A70238D013B2385638D7B
:10225000013B9BB26385238D002B7BD0032B4DD894
:10226000012BB4D0022BCDD000950E9B0022224929
:102270002046FFF794F800287BD12268136823F4E6
:102280008063136023681A69636A591C61621A705B
:10229000238D013B2385638D013B9BB263850095B4
:1022A0000E9B002214492046FFF779F8002862D1DE
:1022B0002268136843F40073136023681A69636A21
:1022C000591C61621A70238D013B2385638D013B8C
:1022D0009BB2638523681A69636A591C61621A702C
:1022E000238D013B2385638D013B9BB26385B2E760
:1022F000020010000000FFFF040001002A460E99B2
:102300002046FFF716FBF0B923681A69636A591C67
:1023100061621A70238D013B2385638D013B9BB263
:10232000638523685A6912F0040F94D01A69636AAE
:10233000591C61621A70238D013B2385638D013B1B
:102340009BB2638587E7236C202B01D00126B0E682
:102350000326AEE6202384F83D30002384F83E3087
:1023600084F83C30A5E60226A3E60226A1E6032671
:102370009FE603269DE603269BE600BF002800F0AB
:102380009D8070B504464F4B1B6803F00F038B42D2
:1023900009D2CBB24B4A1370136803F00F038B4280
:1023A00001D0012070BD236813F0020F17D013F085
:1023B000040F04D0444A936843F4E05393602368C5
:1023C00013F0080F04D0404A936843F460439360CD
:1023D0003D4A936823F0F003A068034393600D46E1
:1023E000236813F0010F32D06368012B21D09A1EAD
:1023F000012A25D9344A126812F0020F60D03249FE
:102400008A6822F0030213438B60FEF759FE0646EA
:102410002D4B9B6803F00C036268B3EB820F16D060
:10242000FEF74EFE801B41F288339842F0D903201C
:10243000B8E7254A126812F4003FE0D10120B1E765
:10244000214A126812F0007FD9D10120AAE71D4B62
:102450001B6803F00F03AB4209D9EAB2194B1A709B
:102460001B6803F00F03AB4201D001209AE72368F9
:1024700013F0040F06D0144A936823F4E053E16884
:102480000B439360236813F0080F07D00E4A93683C
:1024900023F46043216943EAC103936000F040F8EC
:1024A000094B9B68C3F30313084AD35CD840084B1D
:1024B00018600020FEF7BAFD002073E70120704786
:1024C00001206FE7003C024000380240886B0008A2
:1024D00008000020014B1868704700BF080000206A
:1024E00008B5FFF7F7FF044B9B68C3F38223034A49
:1024F000D35CD84008BD00BF00380240986B00088C
:1025000008B5FFF7E7FF044B9B68C3F34233034A68
:10251000D35CD84008BD00BF00380240986B00086B
:102520002DE9F04B5C4B9B6803F00C03082B07D0A4
:102530000C2B5BD0042B00F0AD805848BDE8F08B2D
:10254000554B5A6802F03F025B6813F4800F2AD0A3
:10255000514B5B68C3F388131E4600275C010025BE
:10256000E41A65EB0705A90141EA9461A001001B8B
:1025700061EB0501CB0043EA5073C400A01943EBA3
:1025800007014B0243EAD053440220461946002378
:10259000FEF7ACFA404B5B68C3F3014301335B00C9
:1025A000B0FBF3F0CAE73C4B5B68C3F388131E46ED
:1025B00000275C010025E41A65EB0705A90141EA43
:1025C0009461A001001B61EB0501CB0043EA50734D
:1025D000C400A01943EB07018B0243EA9053840225
:1025E000204619460023FEF781FAD3E72A4B5A68A2
:1025F00002F03F025B6813F4800F28D0264B5B6823
:10260000C3F388131E4600275C010025E41A65EB1E
:102610000705A90141EA9461A001001B61EB0501D6
:10262000CB0043EA5073C400A01943EB07014B02EF
:1026300043EAD0534402204619460023FEF756FAD7
:10264000154B5B68C3F30273B0FBF3F076E7124BF4
:102650005B68C3F388131E4600275C010025E41A5B
:1026600065EB0705A90141EA9461A001001B61EB3C
:102670000501CB0043EA5073C400A01943EB0701E6
:102680008B0243EA90538402204619460023FEF74A
:102690002DFAD5E7024851E7003802400024F40043
:1026A00000127A0070B582B00446036813F0010F7F
:1026B00041D0A64B9B6803F00C03042B32D0A34BF4
:1026C0009B6803F00C03082B27D0A04B9B6803F0FA
:1026D0000C030C2B59D06368B3F5803F5BD0B3F586
:1026E000A02F5ED0994B1A6822F480321A601A68C3
:1026F00022F480221A606368002B5CD0FEF7E0FCB5
:102700000546924B1B6813F4003F14D1FEF7D8FC2A
:10271000401B6428F5D903209DE18C4B5B6813F4C2
:10272000800FD2D0894B1B6813F4003F03D063683D
:10273000002B00F08D81236813F0020F67D0834BCC
:102740009B6813F00C0F4AD0804B9B6803F00C037E
:10275000082B3FD07D4B9B6803F00C030C2B48D01B
:10276000E368002B74D07A4B01221A60FEF7A8FCB4
:102770000546764B1B6813F0020F60D1FEF7A0FCF4
:10278000401B0228F5D9032065E1704B5B6813F408
:10279000800FA0D0C6E76D4A136843F480331360FE
:1027A000A9E76A4B1A6842F480221A601A6842F458
:1027B00080321A609FE7FEF783FC0546634B1B6877
:1027C00013F4003FB7D0FEF77BFC401B6428F5D91B
:1027D000032040E15D4B5B6813F4800FBAD15B4B83
:1027E0001B6813F0020F0AD0E368012B07D0012009
:1027F00031E1564B5B6813F4800FB1D1EFE7534AD8
:10280000136823F0F803216943EAC10313602368C6
:1028100013F0080F40D0636963B34E4B01221A6076
:10282000FEF74EFC0546494B5B6F13F0020F33D1A8
:10283000FEF746FC401B0228F5D903200BE1434A72
:10284000136823F0F803216943EAC1031360DEE74C
:102850003F4B00221A60FEF733FC05463B4B1B68DA
:1028600013F0020FD3D0FEF72BFC401B0228F5D942
:102870000320F0E0374B00221A60FEF721FC0546EA
:10288000324B5B6F13F0020F06D0FEF719FC401BB2
:102890000228F5D90320DEE0236813F0040F79D075
:1028A0002A4B1B6C13F0805F33D100230193274B1D
:1028B0001A6C42F080521A641B6C03F0805301932F
:1028C000019B0125244B1B6813F4807F23D0A36850
:1028D000012B34D0052B41D01C4B1A6F22F0010282
:1028E0001A671A6F22F004021A67A368002B3FD000
:1028F000FEF7E6FB0646154B1B6F13F0020F48D19F
:10290000FEF7DEFB801B41F288339842F3D90320A7
:10291000A1E00025D6E7104A136843F480731360E2
:10292000FEF7CEFB06460C4B1B6813F4807FCED11E
:10293000FEF7C6FB801B0228F5D903208BE0034A73
:10294000136F43F001031367CFE700BF0038024065
:1029500000004742800E474200700040404B1A6F13
:1029600042F004021A671A6F42F001021A67BCE7CC
:10297000FEF7A6FB06463A4B1B6F13F0020F08D07A
:10298000FEF79EFB801B41F288339842F3D9032067
:1029900061E0E5B9A369002B5CD0314A926802F08E
:1029A0000C02082A59D0022B17D02E4B00221A6095
:1029B000FEF786FB04462A4B1B6813F0007F45D0C8
:1029C000FEF77EFB001B0228F5D9032043E0244AD2
:1029D000136C23F080531364DCE7224B00221A604F
:1029E000FEF76EFB05461E4B1B6813F0007F06D0FA
:1029F000FEF766FB401B0228F5D903202BE0E369B4
:102A0000226A1343626A43EA8213A26A5208013AB5
:102A100043EA0243E26A43EA0263226B43EA027337
:102A20000F4A53600F4B01221A60FEF749FB044620
:102A30000B4B1B6813F0007F06D1FEF741FB001B18
:102A40000228F5D9032006E0002004E0002002E07F
:102A5000012000E0002002B070BD0120FBE700BFB4
:102A6000003802406000474200283BD010B50446C1
:102A70000023836290F85130002B2ED0022384F87B
:102A800051302268136823F0400313606368A26822
:102A90001343E26813432269134362691343A26933
:102AA00002F400721343E2691343226A1343A16ADA
:102AB00022680B431360638B03F00403616A22688E
:102AC0000B4353602268D36923F40063D361002071
:102AD0006065012384F8513010BD80F8503001F05A
:102AE000D5FECBE7012070472DE9F8430446016885
:102AF0000A6922F44052C36813430B610168CA6833
:102B000022F4164222F00C028368006903436069D4
:102B10000343E06903431343CB6021684A6922F40D
:102B20004072A36913434B61E369B3F5004F60D072
:102B30002368B84A934200F0148102F58062934200
:102B400000F00F81FFF7CCFC00EB800000EB800071
:102B50006568AD00B0FBF5F5AF4FA7FB05356D0916
:102B60002E01FFF7BDFC00EB800000EB80006568E4
:102B7000AD00B0FBF5F9FFF7B3FC00EB800000EB14
:102B800080006568AD00B0FBF5F5A7FB05356D0964
:102B90004FF0640808FB15952D013235A7FB05356C
:102BA0006D0905F0F0053544FFF79AFC00EB800055
:102BB00000EB80006668B600B0FBF6F6FFF790FC0D
:102BC00000EB800000EB800063689B00B0FBF3F03B
:102BD000A7FB0030400908FB10684FEA081808F10D
:102BE0003208A7FB0837C7F3431723682F449F60B9
:102BF0000DE12368874A93425BD002F580629342DD
:102C000057D0FFF76DFC00EB800000EB800065689B
:102C10006D00B0FBF5F5804FA7FB05356D092E0162
:102C2000FFF75EFC00EB800000EB800065686D0044
:102C3000B0FBF5F9FFF754FC00EB800000EB8000DF
:102C400065686D00B0FBF5F5A7FB05356D094FF024
:102C5000640808FB1595ED003235A7FB05356D09B5
:102C60006D0005F4F8753544FFF73AFC00EB800081
:102C700000EB800066687600B0FBF6F6FFF730FCEC
:102C800000EB800000EB800063685B00B0FBF3F3B7
:102C9000A7FB03235B0908FB13684FEAC80808F188
:102CA0003208A7FB0837C7F3421723682F449F60F9
:102CB000ADE0FFF725FC00EB800000EB80006568CD
:102CC0006D00B0FBF5F5544FA7FB05356D092E01DE
:102CD000FFF716FC00EB800000EB800065686D00DC
:102CE000B0FBF5F9FFF70CFC00EB800000EB800077
:102CF00065686D00B0FBF5F5A7FB05356D094FF074
:102D0000640808FB1595ED003235A7FB05356D0904
:102D10006D0005F4F8753544FFF7F2FB00EB800019
:102D200000EB800066687600B0FBF6F6FFF7E8FB84
:102D300000EB800000EB800063685B00B0FBF3F306
:102D4000A7FB03235B0908FB13684FEAC80808F1D7
:102D50003208A7FB0837C7F3421723682F449F6048
:102D600055E0FFF7CDFB00EB800000EB80006568CD
:102D7000AD00B0FBF5F5284FA7FB05356D092E0119
:102D8000FFF7BEFB00EB800000EB80006568AD0044
:102D9000B0FBF5F9FFF7B4FB00EB800000EB80001F
:102DA0006568AD00B0FBF5F5A7FB05356D094FF083
:102DB000640808FB15952D013235A7FB05356D0913
:102DC00005F0F0053544FFF79BFB00EB800000EBBE
:102DD00080006668B600B0FBF6F6FFF791FB00EBEB
:102DE000800000EB800063689B00B0FBF3F0A7FB62
:102DF0000030400908FB10684FEA081808F1320853
:102E0000A7FB0837C7F3431723682F449F60BDE82B
:102E1000F88300BF001001401F85EB512DE9F04100
:102E200005460F4616469846069C2B681B6837EAEF
:102E300003030CBF01230023B3421DD1B4F1FF3FB4
:102E4000F3D02CB1FEF73CF9A0EB0800A042ECD97E
:102E50002A68D36823F4D073D3602A68536923F0B7
:102E600001035361202385F8393085F83A30002377
:102E700085F83830032000E00020BDE8F08158B329
:102E800010B5044690F839300BB3242384F8393058
:102E90002268D36823F40053D3602046FFF724FE52
:102EA0002268136923F4904313612268536923F065
:102EB0002A0353612268D36843F40053D36000208F
:102EC000E063202384F8393084F83A3010BD80F86C
:102ED000383001F037FDD8E7012070472DE9F04187
:102EE00082B01E4690F83930DBB2202B55D1044613
:102EF0000D469046002955D0002A55D090F838301C
:102F0000012B53D0012380F838300023C3632123E1
:102F100080F83930FEF7D4F80746A4F82480A4F8E6
:102F2000268010E000963B46002280212046FFF7D5
:102F300075FF00283CD12B882268C3F30803536037
:102F40002369C3B90235E38C9BB2B3B1E38C013B77
:102F50009BB2E384A368B3F5805FE3D000963B4661
:102F6000002280212046FFF759FF18BB2A782368EA
:102F70005A600135E7E70135E5E700963B46002258
:102F800040212046FFF74AFF0346A8B9202284F8D3
:102F90003920002284F8382000E00223184602B0CD
:102FA000BDE8F0810123F9E70123F7E70223F5E704
:102FB0000323F3E70323F1E70323EFE790F900305E
:102FC00023F01C03CA78920002F01C021343037022
:102FD000704790F9003003F01F030A7943EA421367
:102FE0000370704790F9003023F01C030A789200B8
:102FF00002F01C0213430370704790F9003003F095
:103000001F034A7843EA421303707047037803F0C2
:1030100007038B708378C3F382030B7083785B099B
:103020004B70C378C3F38203CB70C3785B090B7119
:103030007047000010B442680B885800C0EBD20003
:10304000B1F9024000FB04F000281FDBC012C3EB03
:10305000121303FB03F3002B1BDB1B13B1F904203A
:1030600002FB03F3002B17DB00EBA330486200EBFD
:103070008000803014D4001210F57A6F12DB42F217
:103080003413984210DC5DF8044B704700F2FF7077
:10309000DCE703F6FF73E0E703F57F533F33E3E735
:1030A000FF30E8E70248EEE742F23410EBE700BFFA
:1030B00060F0FFFF2DE9F04F83B086468C464A6AE8
:1030C000D317B2F5FA3A43F1FF3B0AFB0BF1AAFB27
:1030D0000A4505EB4105BCF910804FEAE87904FB8D
:1030E00009F108FB0511A4FB08898944BCF90E000D
:1030F000C11700FB0BF60AFB0166A0FB0A01314475
:103100004F0447EAD037460416EB080247EB0903A1
:10311000BCF90C8000204FEAC801161843EB0107E8
:10312000BCF90A20D31704FB03F102FB0511A4FB31
:1031300002450D44A046A946002C75F10003C0F2DB
:10314000DE804FEA182444EA096300934FEA2923FA
:103150000193BCF90810CA1701FB0BF30AFB0235F7
:10316000A1FB0A232B441D0345EA12551403DDE994
:1031700000010019694110F1000841F50049BCF84F
:103180000620A8FB024502FB09552946002C75F1D3
:103190000003C0F2B9804A10CB1752EA030100F0D5
:1031A000D980E146DEF80010C1F580114D08CC074A
:1031B000A41B65EB0705A246AB4624196D4114EB31
:1031C0000A0045EB0B0105460E46B10141EA956147
:1031D000A80137462E184F41B90041EA9671B00058
:1031E00010EB0A0441EB0B05A90041EA9471A00021
:1031F00010EB0A0041EB0B01FDF728FC82468B46E1
:10320000B9F91640E51701465A46BAF1000F7BF1AD
:1032100000037EDB4B0B43EAC243521304FB02F66E
:1032200003FB0566A4FB0301314403FB01F502FB2C
:103230000055A3FB00232B4414461D46002A73F1BE
:1032400000016EDB630E43EAC5166F16B9F9144030
:10325000E51704FB0BF30AFB0533A4FB0A451D44E9
:1032600020462946002C75F1000363DBC20C42EABC
:103270004134CD141AEB06004BEB0701061941EB64
:10328000050734463D46002E77F1000358DB210A3E
:1032900041EA05622B12B9F91240E517290141EA0A
:1032A00014712001141843EB0105E90F621845F170
:1032B000000359104FEA3200021841EB01031618BF
:1032C00043EB01077D0145EAD6657401321947EBEE
:1032D0000503141843EB010520462946002C75F11F
:1032E000000332DBC30943EA416318461C4A934298
:1032F00032D91C4A934231D803B0BDE8F08F14F1A3
:10330000FF0845F100091CE714F1FF3045F1010108
:1033100041E741F6FF76002716EB0A0147EB0B0267
:1033200078E76FF07E440025A01845EB03010446C2
:103330000D4687E70C4A0023101943EB050195E77A
:1033400016F1FF0447F10005A1E714F17F0045F1F4
:103350000001C7E70548CFE70448CDE70148CBE7C0
:10336000BFC62D00C0D8A700FFFF0700C0C62D00B4
:1033700010B44C6AA4F596348268B1F91E000005B9
:10338000B1F92030C0EB823004FB130313F5804306
:1033900042D4D81391F9222004FB02F2002A3FDB29
:1033A00092120B7F04FB03F4002C3CDBE41204F5C7
:1033B000004402FB04F2002A38DB931203F50013E9
:1033C000B1F91A2003FB02F313F5005331D49B1318
:1033D00003FB00F31A46002B2FDBD21302FB02F291
:1033E000002A2EDBD211097E02FB01F2002A2ADB21
:1033F000A3EB221323EAE373B3F1C85FA8BF4FF036
:10340000C8531A46002B20DB13131846B3F5C83FE8
:103410001ED85DF8044B704703F5FF437F33B8E7D0
:1034200002F2FF32BCE704F2FF74BFE702F2FF32A0
:10343000C3E703F57F533F33C9E703F5FF427F320C
:10344000CBE77F32CEE70F32D2E703F6FF72DBE73E
:103450004FF4C830DDE770B4012408E06500013D99
:10346000065D4E55155D01F814500134E4B29C42DE
:10347000F4D370BC70474278037843EA02230B828E
:10348000C278837843EA02234B824279037943EA84
:1034900002238B82C279837943EA0223CB82427A68
:1034A000037A43EA02230B83C27A837A43EA022334
:1034B0004B83427B037B43EA02238B83C27B837B68
:1034C00043EA0223CB83427C037C43EA02230B843E
:1034D000C27C837C43EA02234B84427D037D43EA22
:1034E00002238B84C27D837D43EA0223CB84437E07
:1034F00081F8283070474278037843EA02234B85ED
:10350000837881F82C3090F903309BB21B011BB2F9
:10351000027902F00F021343CB8590F905309BB27C
:103520001B011BB2027943EA12130B8690F9063095
:1035300081F832307047084201D1002070470120E5
:10354000704750B142685AB1826862B1C3680BB12A
:10355000002070474FF0FF3070474FF0FF3070474A
:103560004FF0FF3070474FF0FF3070472DE9F041CA
:103570000546884617461C461846FFF7E2FF0346F5
:1035800060B9A378012B01D045F0800566683B4601
:10359000424629466078B047034610B91846BDE850
:1035A000F0816FF00303F9E730B589B004460023DA
:1035B000019302930393049305930693ADF81C3093
:1035C00003461A2201A98820FFF7D0FF054610B153
:1035D000284609B030BD214601A8FFF74CFF23461D
:1035E000072201A9E120FFF7C1FF05460028EFD11E
:1035F000214601A8FFF77FFFEAE7F0B587B005464F
:103600000F4614461E460A2A00D90A243046FFF700
:1036100098FF48BB5DB36FB37CB33B788DF8043043
:10362000B378012B09D0002205E0A95C01F07F01ED
:10363000A9540132D2B29442F7D8012C0AD8A3B2CD
:10364000B46801AA29787078A0470346C0B9184623
:1036500007B0F0BD23463A4601A92846FFF7FBFE16
:103660006400013CA3B2EBE74FF0FF33EFE74FF00C
:10367000FF33ECE74FF0FF33E9E76FF00203E6E7D3
:103680006FF00303E3E710B582B00C46F2238DF828
:103690000530837803F0070302A901F8013D2346B2
:1036A00001220DF10500FFF7A8FF034610B11846EF
:1036B00002B010BDF4208DF80500234601220DF163
:1036C0000601FFF753FF03460028F0D123460122ED
:1036D0000DF106010DF10500FFF78FFF0346E6E748
:1036E00070B582B005460E461446F4208DF80700EA
:1036F000134601220DF10601FFF738FF034670B9AA
:1037000015F0010F0ED115F0020F11D12346012241
:103710000DF106010DF10700FFF76FFF0346184694
:1037200002B070BD31460DF10600FFF75BFCEAE721
:1037300031460DF10600FFF760FCE7E770B504467F
:103740000D46164610F0040F04D1012014F0030FAB
:1037500005D170BD11462846FFF795FFF6E73246C2
:1037600029462046FFF7BCFFF3E770B582B0054657
:103770000E461446F5208DF80700134601220DF180
:103780000601FFF7F3FE034670B915F0080F0ED1DE
:1037900015F0100F11D1234601220DF106010DF194
:1037A0000700FFF72AFF0346184602B070BD3146F6
:1037B0000DF10600FFF702FCEAE731460DF10600C5
:1037C000FFF707FCE7E738B504460D460A46014611
:1037D0001F20FFF7B3FF034608B1184638BD2A463D
:1037E00021461F20FFF7C1FF0346F6E730B583B03F
:1037F00005460C46F4208DF807000B4601220DF11A
:103800000601FFF7B3FE034610B1184603B030BD02
:103810009DF8060020F0030040B205F003052843A0
:1038200002A901F8020D234601220DF10700FFF75E
:10383000E4FE0346E9E738B505460C460846FFF7BF
:1038400080FE034608B1184638BD234601222946AA
:10385000F420FFF78BFE03462A7802F003022A7059
:10386000F1E730B583B00546E0238DF80730B62385
:103870008DF80630FFF765FE044610B1204603B010
:1038800030BD2B4601220DF106010DF10700FFF7B7
:10389000B4FE0446EB6802209847EFE770B582B0AB
:1038A000054600238DF80730FFF74BFE064610BB98
:1038B000052409E02846FFF777FE06461AE0EB6884
:1038C00001209847013CE4B2A4B12B4601220DF13E
:1038D0000701D020FFF74AFE06460028EFD19DF8E9
:1038E0000730602BEBD12B702846FFF7BAFF064656
:1038F0000028DFD014B1304602B070BD6FF0010671
:10390000F9E710B584B004460346042203A9F22067
:10391000FFF72CFE034610B1184604B010BD01A9F4
:1039200003A8FFF773FB2046FFF79BFF0346002821
:10393000F2D1214601A8FFF746FF0346ECE770B538
:1039400082B006460D460846FFF7FBFD044610B15F
:10395000204602B070BD29460DF10700FFF76BFF4E
:10396000044610B99DF80730B3B9002CF0D13146A8
:103970000720FFF7E0FDA0B9002CE9D1314618205F
:10398000FFF7D9FD0028E3D02A4605F1380130467B
:10399000FFF7EBFE0446DBE72846FFF7B2FF0446DD
:1039A000E3E72A4605F138013046FFF7C7FE044633
:1039B000E2E730B583B005460C460846FFF7C1FD87
:1039C000034610B1184603B030BD21460DF1070083
:1039D000FFF731FF034610B99DF807203AB9002BD5
:1039E000F0D121462846FFF701FF0346EAE72046CB
:1039F000FFF787FF0346F2E710B4047843781B0112
:103A0000827843EA043343EA12130B60C4780379E3
:103A10001B01427943EA043343EA12134B60827973
:103A2000C37943EA02238B605DF8044B704729B3E6
:103A3000F8B50F462AB33BB31E461446054600238D
:103A400053601360936010F0070F11D115F0010F50
:103A500004D031463846FFF72DFB206015F0040FE7
:103A600015D031463846FFF783FCA0600020F8BD32
:103A700031463846FFF7DEFA6060E7E74FF0FF3087
:103A800070474FF0FF30F2E74FF0FF30EFE70020D4
:103A9000EDE770B586B006460D4614460023049344
:103AA00005930193029303931046FFF74AFDC0B9B3
:103AB000D5B12346082204A9F720FFF757FD034696
:103AC00010B1184606B070BD01A904A8FFF794FF15
:103AD00004F110032A4601A93046FFF7A8FF034668
:103AE000EFE74FF0FF33ECE74FF0FF33E9E770B457
:103AF000012408E06500013D065D4E55155D01F8A5
:103B000014500134E4B29C42F4D370BC7047427844
:103B1000037843EA02230B82C278837843EA0223C4
:103B20004B824279037943EA02238B82C2798379FB
:103B300043EA0223CB82427A037A43EA02230B83CD
:103B4000C27A837A43EA02234B83427B037B43EAB4
:103B500002238B83C27B837B43EA0223CB83427C99
:103B6000037C43EA02230B84C27C837C43EA022366
:103B70004B84427D037D43EA02238B84C27D837D97
:103B800043EA0223CB84437E81F828307047427891
:103B9000037843EA02234B85837881F82C3090F92F
:103BA00003309BB21B011BB2027902F00F021343D8
:103BB000CB8590F905309BB21B011BB2027943EA19
:103BC00012130B8690F9063081F83230704750B1ED
:103BD00042685AB1826862B1C3680BB10020704775
:103BE0004FF0FF3070474FF0FF3070474FF0FF301D
:103BF00070474FF0FF3070472DE9F0410546884689
:103C000017461C461846FFF7E2FF034660B9A37843
:103C1000012B01D045F0800566683B4642462946A7
:103C20006078B047034610B91846BDE8F0816FF0E0
:103C30000303F9E730B589B00446002301930293EA
:103C40000393049305930693ADF81C3003461A22A0
:103C500001A98820FFF7D0FF054610B1284609B01A
:103C600030BD214601A8FFF752FF2346072201A9D4
:103C7000E120FFF7C1FF05460028EFD1214601A84A
:103C8000FFF785FFEAE7F0B587B005460F46144613
:103C90001E460A2A00D90A243046FFF798FF48BB7F
:103CA0005DB36FB37CB33B788DF80430B378012BF0
:103CB00009D0002205E0A95C01F07F01A95401327E
:103CC000D2B29442F7D8012C0AD8A3B2B46801AAA0
:103CD00029787078A0470346C0B9184607B0F0BDF0
:103CE00023463A4601A92846FFF701FF6400013C3C
:103CF000A3B2EBE74FF0FF33EFE74FF0FF33ECE712
:103D00004FF0FF33E9E76FF00203E6E76FF00303DC
:103D1000E3E730B583B00546E0238DF80730B623DE
:103D20008DF80630FFF753FF044610B1204603B06C
:103D300030BD2B4601220DF106010DF10700FFF702
:103D4000A2FF0446EB6802209847EFE770B582B007
:103D5000054600238DF80730FFF739FF064610BBF4
:103D6000052409E02846FFF765FF06461AE0EB68E0
:103D700001209847013CE4B2A4B12B4601220DF189
:103D80000701D020FFF738FF06460028EFD19DF845
:103D90000730602BEBD12B702846FFF7BAFF0646A1
:103DA0000028DFD014B1304602B070BD6FF00106BC
:103DB000F9E7000070B584B0044615461E4604AA13
:103DC00002F8011D0A230093012300FA03F10C48B5
:103DD000FDF76CFE80B961000A23009333462A4642
:103DE00041F001010648FDF723FF10B9002004B09F
:103DF00070BD4FF0FF30FAE74FF0FF30F7E700BF3C
:103E0000640200202DE9F04383B0074689469046BE
:103E10001E465D1C284600F04FFE044600F8019B3C
:103E20003246414600F058FE4FF0FF330093ABB2EC
:103E3000224679000648FDF739FE30B9204600F0E9
:103E400043FE002003B0BDE8F0834FF0FF30F9E7F8
:103E50006402002008B5FDF739F908BDF0B58BB054
:103E60000024059406940794089409940194294B1E
:103E70001A6B42F004021A631A6B02F004020192F8
:103E8000019A02941A6B42F080021A631A6B02F0D4
:103E900080020292029A03941A6B42F001021A63A2
:103EA0001A6B02F001020392039A04941A6B42F017
:103EB00002021A631B6B03F002030493049B164E69
:103EC000224601213046FDF74FFA144F22462021A9
:103ED0003846FDF749FA4FF400530593104B06930B
:103EE000079405A93046FDF761F90125059506956A
:103EF0000794089405A93046FDF758F92023059347
:103F000006950794089405A93846FDF74FF90BB0BC
:103F1000F0BD00BF0038024000080240000002402F
:103F20000000211008B50848084B03604FF4E13346
:103F3000436000238360C36003610C22426183619C
:103F4000C361FEF79CFF08BDDC0200200044004076
:103F500008B50948094B0360094B4360002383609F
:103F6000C3604FF48042026143618361C3610362B5
:103F7000FDF70EFD08BD00BF6402002000540040A4
:103F8000A086010008B50B480B4B03604FF4827309
:103F9000436000238360C360036143614FF4007298
:103FA0008261C3610362436283620A23C362FEF7D4
:103FB0005BFD08BD0C0200200038004030B595B014
:103FC0003422002107A800F092FD002402940394FB
:103FD00004940594069400941B4B1A6C42F0805292
:103FE0001A641B6C03F080530093009B0194174AE2
:103FF000136823F4404343F480431360136803F4CD
:1040000040430193019B0225079501230A93102346
:104010000B930D950E940F934FF4A87310930423F4
:1040200011931295139507A8FEF73CFB0F230293FB
:10403000039504944FF4805305930694294602A8EF
:10404000FEF79CF915B030BD00380240007000400A
:104050002DE9F0412DED108BB4B0FDF70BF8FFF713
:10406000ADFFFFF7FBFEFFF75DFFFFF771FFFFF707
:1040700089FF44F64F332F930025309531953295C3
:10408000339577238DF87D3001248DF87E40D0491B
:104090002091D04A2192D04B229376208DF8310086
:1040A0008DF832400D910E920F931FA8FFF7F6FB8B
:1040B0000CA8FFF74BFE8DF8B64005238DF8B43001
:1040C00002238DF8B53004238DF8B7301FA90F20D7
:1040D000FFF735FC13238DF82F308DF82E508DF817
:1040E0002D508DF82C508DF82B508DF82A508DF8CE
:1040F00029508DF828508DF827508DF826508DF8CE
:1041000025508DF824508DF823508DF822508DF8CD
:1041100021508DF820508DF81F508DF81E508DF8CD
:104120001D508DF81C508DF81B508DF81A508DF8CD
:1041300019508DF818508DF817508DF816508DF8CD
:1041400015508DF81450A54F6426029601940DF178
:104150002E03009323463122EC213846FDF79AFFC7
:10416000029601940DF12D03009323463222EC2197
:104170003846FDF78FFF029601940BAB0093234660
:104180003322EC213846FDF785FF029601940DF1AC
:104190002B03009323463422EC213846FDF77AFFA7
:1041A000029601940DF12A03009323463522EC2157
:1041B0003846FDF76FFF34AB2D2203F8BD2D029674
:1041C0000194009323461C22EC213846FDF7A4FEFF
:1041D000029601940DF12903009323463622EC2127
:1041E0003846FDF757FF029601940AAB0093234629
:1041F0003722EC213846FDF74DFF029601940DF170
:104200002703009323463822EC213846FDF742FF6E
:10421000029601940DF12603009323463922EC21E6
:104220003846FDF737FF029601940DF12503009300
:1042300023463A22EC213846FDF72CFF02960194E2
:1042400009AB009323463B22EC213846FDF722FFC1
:10425000029601940DF12303009323463C22EC21A6
:104260003846FDF717FF029601940DF122030093E3
:1042700023463D22EC213846FDF70CFF02960194BF
:104280000DF12103009323463E22EC213846FDF731
:1042900001FF0296019408AB009323463F22EC21D4
:1042A0003846FDF7F7FE029601940DF11F030093C7
:1042B00023464022EC213846FDF7ECFE029601949D
:1042C0000DF11E03009323464122EC213846FDF7F1
:1042D000E1FE029601940DF11D0300932346422254
:1042E000EC213846FDF7D6FE0296019407AB009309
:1042F00023464322EC213846FDF7CCFE029601947A
:104300000DF11B03009323464422EC213846FDF7B0
:10431000C1FE029601940DF11A0300932346452233
:10432000EC213846FDF7B6FE9DF82D301B021BB27E
:104330009DF82E2013430AEE903A9DF82B301B0275
:104340001BB29DF82C2013430AEE103A9DF82A3038
:104350000EEE103A9DF828301B021BB29DF8292062
:1043600043EA02009DF826209DF8278048EA0228AB
:104370009DF825300DEE903A9DF824300DEE103A60
:104380009DF82220120212B29DF8231042EA010386
:1043900009EE903A9DF82020120212B29DF82110E9
:1043A00042EA010309EE103A9DF81F300CEE903AF4
:1043B0009DF81E300CEE103A9DF81C20120212B22D
:1043C0009DF81D1042EA010308EE903A0EE000BF8E
:1043D000B53D0008053E0008553E00086402002077
:1043E0000000804300008030000080279DF81B30D3
:1043F0000BEE903A9DF81A300BEE103AF8EEEAAA5E
:104400005FED097A6AEEA7AAB8EECAAA5FED0B7A49
:104410002AEE27AAB8EECEEA1FED0D8A2EEE08EAA4
:1044200007EE900AF8EEE77A17EE900AFCF754F8D8
:104430000022D54BFBF7F0FE0022D44BFCF7A4F88A
:10444000FCF7B4FA0FEE100A07EE908AF8EE677ADE
:1044500017EE900AFCF740F80022CB4BFBF7DCFE8E
:104460000022CB4BFCF790F8FCF7A0FA0EEE900A76
:10447000F8EEEDDADFEDC77A6DEEA7DAB8EECDDA59
:10448000DFEDC57A2DEE27DAF8EEE99AF2EE007A42
:1044900069EEA79AB8EEC99ADFEDC07A29EE279A9D
:1044A000F8EEECCADFEDBE7A6CEEA7CAB8EECCCA65
:1044B000DFEDBC7A2CEE27CAF8EEE88A68EE888A2F
:1044C000F8EEEBBA6BEE88BAB8EECBBADFEDB67A9F
:1044D0002BEE27BA8DF8125034AD062305F8BF3DF8
:1044E000009623462A4670213846FDF7DFFA0296E9
:1044F000019400952346702211463846FDF70CFDC5
:10450000029601940DF11205009523467022114682
:104510003846FDF7BFFD334622462946A348FEF73D
:10452000DDFC4FF47A70FCF7D1FDA14E64250095B7
:1045300001230DF1120271213046FDF779FB009540
:1045400001230DF1120273213046FDF771FB029534
:10455000012401940DF12F03009323461B22EC212B
:104560003046FDF7D9FC029501940DF11903009333
:1045700023460722EC213046FDF78CFD029501947D
:1045800006AB009323460822EC213046FDF782FD5E
:10459000029501940DF11703009323460922EC21A3
:1045A0003046FDF777FD9DF817109DF818301B0277
:1045B0009DF8192043EA0143134307EE903AF8EEC1
:1045C000677A77EEEA7A2AEE278A67EEA77A67EEAD
:1045D0008E7A37EE888A18EE100AFBF77DFF0246C6
:1045E0000B4674492FA800F09FFF704F2B461422F2
:1045F0002FA93846FEF772FC029501940DF11603BF
:10460000009323460422EC213046FDF743FD02953A
:1046100001940DF11503009323460522EC21304649
:10462000FDF738FD0295019405AB00932346062261
:10463000EC213046FDF72EFD9DF814109DF8153045
:104640001B029DF8162043EA0143134307EE903AFC
:10465000F8EE677A29EE086A28EE087A67EE2C5A97
:1046600067EE086A26EE8C5A39EE866A36EE256ABF
:1046700036EE056A2EEE885A27EE2D7A66EE8D5AB2
:104680007FEE056A76EE876A76EEA56A66EEA76A21
:1046900027EEA77A2BEE888A38EE288A27EE088A3A
:1046A00067EE877A67EE8B7A77EE887A76EE266AFF
:1046B00076EEA77A17EE900AFBF70EFF02460B463E
:1046C0003D492FA800F030FF2B4614222FA9384671
:1046D000FEF704FC4FF47A70FCF7F8FC1FA92046A3
:1046E000FFF767F91420229B98471FAA1CA90720EF
:1046F000FFF7CFF900287FF414AF1D98FBF7DAFE1F
:1047000000222E4BFCF76AF8FCF750F904462C4BBC
:1047100018601E98FBF7BEFE00222A4BFBF734FF01
:10472000FCF744F9284B18601C98FBF7B3FE14A360
:10473000D3E90023FCF752F8FCF738F9234D286041
:104740002046FBF7C9FE02460B4621492FA800F080
:10475000EBFE642314222FA93846FEF7BFFB28681E
:10476000FBF7BAFE02460B461A492FA800F0DCFE02
:10477000642314222FA93846FEF7B0FBD1E600BF10
:10478000000000000088C3400000D0400000B03EA0
:104790000000203E0000802F0000002D0000803C23
:1047A0000000803B000000380000001FDC020020F9
:1047B00064020020A06B0008AC6B000800005940A8
:1047C0001C0300200000503FC802002020030020EE
:1047D000B86B0008C86B000800B583B000210091D9
:1047E0000C4B5A6C42F480425A645A6C02F4804278
:1047F0000092009A01911A6C42F080521A641B6C6C
:1048000003F080530193019B0720FCF773FC03B076
:104810005DF804FB0038024030B589B000230393F3
:1048200004930593069307930268154B9A4201D0AF
:1048300009B030BD00250195124C236B43F00203F3
:104840002363236B03F002030193019BC0230393B3
:104850001223049301230593032306930423079350
:1048600003A90948FCF7A2FC0295236C43F400134A
:104870002364236C03F400130293029BD8E700BF68
:104880000054004000380240000402402DE9F0418D
:1048900088B000230393049305930693079302685B
:1048A000254B9A4202D008B0BDE8F0810024009464
:1048B00003F500331A6C42F480421A641A6C02F455
:1048C00080420092009A01941A6B42F004021A632B
:1048D0001A6B02F004020192019A02941A6B42F0E0
:1048E00002021A631B6B03F002030293029B022570
:1048F000039504950326069607230793DFF8408067
:1049000003A94046FCF752FC042303930495059445
:1049100006960527079703A94046FCF747FC4FF486
:1049200080630393049505940696079703A90348AB
:10493000FCF73CFCB7E700BF003800400004024031
:104940000008024000B589B0002303930493059347
:10495000069307930268164B9A4202D009B05DF89D
:1049600004FB0021019103F5FA331A6C42F4003282
:104970001A641A6C02F400320192019A02911A6BC5
:1049800042F001021A631B6B03F001030293029BC6
:104990000C2303930223049301230593032306931B
:1049A0000723079303A90348FCF700FCD6E700BFE1
:1049B00000440040000002407047FEE7FEE7FEE7CB
:1049C000FEE770477047704708B5FCF76DFB08BD00
:1049D0000F49D1F8883043F47003C1F888300D4B8B
:1049E0001A6842F001021A60002098601A6822F0EA
:1049F000847222F480321A60074A5A601A6822F4DC
:104A000080221A60D8604FF000638B60704700BF4F
:104A100000ED00E00038024010300024DFF834D010
:104A2000002103E00C4B5B58435004310B480C4B06
:104A300042189A42F6D30B4A02E0002342F8043BA4
:104A4000094B9A42F9D3FFF7C3FF00F011F8FFF7C3
:104A5000FFFA704700000220486E000800000020A6
:104A6000DC010020DC01002028030020FEE700001C
:104A700070B50D4E0D4CA41BA4100025A54209D104
:104A80000B4E0C4C02F074F8A41BA4100025A54298
:104A900005D170BD56F8253098470135EEE756F838
:104AA000253098470135F2E7406E0008406E000857
:104AB000406E0008446E0008024B0146186800F082
:104AC0006DB800BF0C000020024B0146186800F0D2
:104AD00017B800BF0C00002010B5431E0A449142D5
:104AE00000D110BD11F8014B03F8014FF7E7024464
:104AF0000346934200D1704703F8011BF9E7000019
:104B000038B50546002945D051F8043C0C1F002B50
:104B1000B8BFE41801F07AFB1F4A1368104633B996
:104B2000636014602846BDE8384001F070BBA342C2
:104B30000CD921686218934204BF1A685B686360ED
:104B400004BF521822600460ECE713465A680AB1A9
:104B5000A242FAD919685818A0420BD12068014422
:104B6000581882421960DDD1106852685A600144B9
:104B70001960D7E702D90C232B60D3E720682118EE
:104B80008A4204BF11685268626004BF091821603C
:104B90005C60C7E738BD00BFF801002070B5CD1CD0
:104BA00025F0030508350C2D38BF0C25002D0646D1
:104BB00001DBA94203D90C233360002070BD01F052
:104BC00025FB214A1468214691B9204C23681BB962
:104BD000304600F099FC20602946304600F094FCF5
:104BE000431C24D10C233360304601F010FBE4E772
:104BF0000B685B1B18D40B2B0FD90B60CD50CC1856
:104C0000304601F004FB04F10B00231D20F00700E7
:104C1000C31AD3D05A42E250D0E78C424B6816BF39
:104C2000636013600C46EBE70C464968CCE7C41C94
:104C300024F00304A04205D0211A304600F064FCA1
:104C40000130CFD02560DBE7F8010020FC01002017
:104C50002DE9FF4755EC104B0D9FDDF830A0002DDE
:104C60000E4691461946B8BF22462B4627F020072C
:104C7000BBBF05F100431D4600232D23B8BF1446DA
:104C8000462F0B7004D0452F00D10136022100E0E1
:104C9000032103AB019302AB00933246534645EC2C
:104CA000104B00F0EDFC472F804602D119F0010FA8
:104CB00026D0462F08EB060911D198F80030302B8A
:104CC0000AD10022002320462946FCF73FF918B9F3
:104CD000C6F10106CAF80060DAF8003099440022F3
:104CE000002320462946FCF731F938B93022039BCE
:104CF0004B4505D2591C03911A70F8E7CDF80C907A
:104D0000039B0E9AA3EB08034046136004B0BDE872
:104D1000F087F7B500290446BABF49422D232B235B
:104D2000092904F8022B437020DD0DF107031F460B
:104D30000A2691FBF6F506FB15113031092D03F813
:104D4000011C03F1FF32294609DC3031023B02F835
:104D5000011CBB42224604D3101A03B0F0BD134617
:104D6000E7E713F8012B04F8012BF2E7302319448D
:104D70008370021DC170EFE72DE9F04F8DB00C4636
:104D8000DDF8588016461F46054601F031FA0368E3
:104D900004931846FCF72AF800230A93D8F8003049
:104DA0000590073323F0070303F1080294F818A0D5
:104DB000D4F800B0C8F80020D3E90023C4E91223D6
:104DC000D4E9128929F000430793CDF818804FF0F9
:104DD000FF32A74BDDE90601FCF7EAF870BB4FF0A4
:104DE000FF32A34BDDE90601FCF7C4F830BB00221B
:104DF000002340464946FCF7B3F810B12D2384F850
:104E000043309C4A9C4BBAF1470F8CBF9046984662
:104E100003232BF00402236122604FF00009009766
:104E200033460BAA2146284600F0E6F9013040F04F
:104E30008D804FF0FF300DB0BDE8F08F42464B46FD
:104E400040464946FCF7B4F810B18C4A8C4BDAE77F
:104E500061684B1C4BF480620AA83ED10623636054
:104E60000023CDE9020309AB009349EC108B0DF14F
:104E700023032260CDF804A061682846FFF7E8FE0E
:104E80000AF0DF03472B804609D1099BD81C02DBBF
:104E90006268934247DDAAF1020A5FFA8AFABAF120
:104EA000650F099924D80139524604F1500009913F
:104EB000FFF72FFF0A9A1318012A8146236102DCAB
:104EC0002268D10701D5013323619DF82330002BDF
:104ED000A5D02D2384F84330A1E7BAF1670F00F085
:104EE0007781BAF1470FBBD10029B9D10123B6E7C9
:104EF000BAF1660F19D1002963680CDD216113B97D
:104F00002268D20702D501330B442361099BA365B4
:104F10004FF00009D9E713B92268D00701D5023351
:104F2000F3E70123F1E74FF0670ADDE90932934225
:104F300005DB22682361D107E8D50133E5E7002BC3
:104F4000D4BFC3F1020301231344DEE723685A05EB
:104F500007D42369424631462846B84701302BD151
:104F600067E7BAF1650F40F2DC8000220023D4E944
:104F70001201FBF7EBFF002833D00123414A3146F1
:104F80002846B84701303FF454AFDDE909239A427F
:104F900002DB2368D8070FD5DDE904233146284614
:104FA000B84701303FF445AF4FF0000804F11A094B
:104FB0000A9B013B434509DC23689B0700F1038101
:104FC000E0680B9B9842B8BF184634E701234A4675
:104FD00031462846B84701303FF42BAF08F10108AD
:104FE000E6E7099B002B2BDC0123264A31462846A5
:104FF000B84701303FF41DAF099B23B90A9B13B991
:105000002368D907D8D5DDE9042331462846B847B7
:1050100001303FF40EAF4FF0000904F11A0A099B6A
:105020005B424B4501DC0A9B94E701235246314623
:105030002846B84701303FF4FCAE09F10109EEE71C
:105040000A9AA36D9A42A8BF1A46002A914607DD24
:105050001346314642462846B84701303FF4E9AE90
:1050600004F11A034FF0000B29EAE979069315E0E1
:10507000FFFFEF7FDC6B0008D86B0008E46B0008D3
:10508000E06B0008E86B00080123069A31462846C9
:10509000B84701303FF4CDAE0BF1010BD4F858A066
:1050A000AAEB09035B45EFDCDDE909239A42D04412
:1050B00015DB2368DA0712D40A9B0999A3EB0A02CD
:1050C000A3EB010A9245A8BF9246BAF1000F0EDC8D
:1050D0004FF000082AEAEA7A04F11A0919E0DDE93A
:1050E000042331462846B8470130E5D1A1E65346AE
:1050F000424631462846B8470130E9D199E60123B6
:105100004A4631462846B84701303FF492AE08F18E
:105110000108DDE909239B1AA3EB0A034345EEDCF2
:105120004AE70A9A012A01DCDB073AD50123424605
:1051300031462846B84701303FF47BAEDDE9042311
:1051400031462846B847013008F101083FF471AEF6
:105150000A9B002203F1FF3AD4E912010023FBF776
:10516000F5FEC8B95346424631462846B847013095
:105170000ED15EE60123524631462846B84701303B
:105180003FF457AE08F101080A9B013B4345F1DCAF
:105190004B4604F15002DEE64FF0000804F11A0A13
:1051A000F2E70123DFE701234A4631462846B847A4
:1051B00001303FF43EAE08F10108E3680B9A9B1AF8
:1051C0004345F0DCFCE64FF0000804F11909F4E770
:1051D00000293FF48BAE0023CDE9020309AB009315
:1051E00049EC108B2260CDF804A00DF12303284672
:1051F000FFF72EFD804648E62DE9F04791461F4611
:105200008A680B69DDF820809342B8BF1346C9F85D
:10521000003091F8432006460C4612B10133C9F81C
:1052200000302368990642BFD9F800300233C9F82C
:105230000030256815F0060507D104F1190AE36866
:10524000D9F800209B1AAB4228DC94F8433022683E
:10525000003318BF012392062DD404F143023946CE
:105260003046C047013020D02368E568D9F80020D7
:1052700003F00603042B08BFAD1AA36822690CBF14
:1052800025EAE57500259342C4BF9B1AED184FF03F
:1052900000091A344D451AD1002008E00123524676
:1052A00039463046C047013003D14FF0FF30BDE8EA
:1052B000F0870135C3E7E1185A1C302081F843001C
:1052C000224494F8451082F843100233C5E70123C5
:1052D000224639463046C0470130E6D009F101097F
:1052E000D8E700002DE9F04301F1430C0C46097E9C
:1052F00085B06E291746064698460C9A00F0B38092
:1053000022D8632936D00AD8002900F0B98058295C
:1053100000F0838004F1420584F8421032E06429F1
:1053200001D06929F6D120681368050603F104014C
:105330002AD51B681160002B03DA2D225B4284F80A
:1053400043206F480A2239E0732900F09D8008D875
:105350006F2920D07029DDD1236843F0200323601A
:1053600003E0752917D07829D4D1782384F8453003
:10537000644855E01368191D1B68116004F142056B
:1053800084F8423001238CE01B68116010F0400F5C
:1053900018BF1BB2CFE713682568181D10602806D8
:1053A00001D51B6802E06806FBD51B8854486F29AD
:1053B00014BF0A220822002184F843106568A56002
:1053C000002DC0F29580216821F004012160002B9E
:1053D0003DD1002D40F08E806546082A0BD1236810
:1053E000DB0708D5236962689A42DEBF302305F8DF
:1053F000013C05F1FF35ACEB05032361CDF80080DE
:105400003B4603AA21463046FFF7F6FE01304DD158
:105410004FF0FF3005B0BDE8F083394884F84510FF
:10542000136821681D1D1B6815600A060BD5CA0785
:1054300044BF41F0200121601BB9226822F0200204
:1054400022601022B7E74D0648BF9BB2EFE76546E2
:10545000B3FBF2F102FB1133C35C05F8013D0B46CF
:105460000029F5D1B9E7136825686169181D106036
:1054700028061B6801D5196002E06A06FBD5198071
:10548000002323616546B9E71368191D11601D6883
:10549000626800212846FBF7B3FC08B1401B60603E
:1054A00063682361002384F84330A7E723692A4611
:1054B00039463046C0470130AAD023689B0713D431
:1054C000E068039B9842B8BF1846A3E701234A4609
:1054D00039463046C04701309AD00135E368039A17
:1054E0009B1AAB42F2DCEBE7002504F11909F5E762
:1054F000002BACD1037884F8423004F142056CE70C
:10550000EA6B0008FB6B000838B5064C0023054623
:105510000846236001F01EFB431C02D1236803B13F
:105520002B6038BD240300200EB400B59CB01DAB29
:10553000029006906FF000410948079104910949D3
:1055400053F8042B05910068019302A901F0A4F916
:10555000029B00221A701CB05DF804EB03B0704788
:105560000C0000200802FFFF2DE9F74F03690C69CA
:10557000A3428046C0F28280013C01F114074FEA49
:10558000840C00F1140657F8245056F8240006EB5A
:105590000C03013507EB0C090193B0FBF5F595B34E
:1055A0004FF0000A3846B646D34650F8042B93B263
:1055B00005FB03A34FEA134A9BB2ABEB0303120CA8
:1055C000DEF800B005FB02A213FA8BF34FEA124A91
:1055D0001FFA82FBDEF80020CBEB124202EB2342E3
:1055E0009BB243EA024381454FEA224B4EF8043B0B
:1055F000DBD256F80C3033B9019B043B9E421A466D
:1056000030D3C8F81040404601F018F8002825DBD8
:10561000013530464FF0000C57F8042BD0F800E06D
:1056200093B2ACEB0303120C13FA8EF3C2EB1E42DF
:1056300002EB23429BB243EA0243B9454FEA224CB4
:1056400040F8043BE8D256F8242006EB84032AB93C
:10565000043B9E421A460BD3C8F81040284603B0BC
:10566000BDE8F08F1268043B002ACAD1013CC5E7AF
:105670001268043B002AEFD1013CEAE70020EEE784
:105680002DE9F04F57EC106B97B0456A0691044630
:105690000B921293DDF88080CDE900673DB91020B0
:1056A000FFF70AFA6062C0E901550560C560636AE8
:1056B000196851B15A684A60012393408B602046B3
:1056C00000F0DAFD636A00221A603B1EBBBF23F0C4
:1056D0000043019300230122ACBFC8F80030C8F892
:1056E0000020AF4BDDF8048033EA080314D1129A8E
:1056F00042F20F731360009B23B9C8F31300002814
:1057000000F04285219BDFF8ACB2002B00F044850D
:105710000BF1030300F03EBDDDE90067002200232A
:1057200030463946FBF712FC814668B1129A0123D4
:105730001360219B002B00F024859A4B219A03F1E2
:10574000FF3B136000F028BD14AA15A947EC106BAD
:10575000204600F0EAFFC8F30A550490002D7CD0E3
:10576000C7F3130343F07F5BB2464BF4401BA5F233
:10577000FF35CDF84C9000228B4B50465946FAF736
:105780004BFD81A3D3E90023FAF7FEFE80A3D3E902
:105790000023FAF743FD064628460F46FAF78AFE2D
:1057A0007DA3D3E90023FAF7EFFE02460B4630460D
:1057B0003946FAF733FD06460F46FBF70FFC002289
:1057C0008246002330463946FBF7CAFB48B15046B3
:1057D000FAF770FE32463B46FBF7B8FB08B90AF110
:1057E000FF3ABAF1160F59D8704901EBCA01DDE949
:1057F0000023D1E90001FBF7D1FB002850D00AF1CA
:10580000FF3A00230F93149B5D1BB5F1010849BFBC
:10581000C5F10103002305934FF0000858BF05931D
:10582000BAF1000F3EDB0023D044CDF838A0079337
:10583000069B092B00F29080052BC4BF043B069306
:10584000069BA3F10203CCBF00250125032B00F228
:105850008F80DFE803F07D7F3171DDE914531D4453
:1058600005F23240202813DDC0F14000009B08FA09
:1058700000F805F2124023FA00F048EA0000FAF7B7
:1058800009FE01238246A1F1F87B013D139372E7E3
:10589000009BC0F1200003FA00F0F0E70123B1E71C
:1058A0000F90B0E7059BA3EB0A030593CAF1000331
:1058B000079300230E93BBE701230A930B9B002B56
:1058C00059DD02939946666A00227260042202F151
:1058D00014009842716853D9204600F099FC636A1D
:1058E0003060B9F10E0FD3F800B000F2E680002D61
:1058F00000F0E3809DED007BBAF1000F8DED107B91
:1059000074DD2A4A0AF00F0302EBC30393ED007B18
:105910004FEA2A16F0068DED087B65D5244BDDE9AC
:105920001001D3E90823FAF759FFCDE9000106F089
:105930000F0603251E4F4CE001230A930B9B534493
:1059400003F1010902934B46012BB8BF0123BAE7CB
:105950000023B2E70023F0E70125002306930A9510
:105960004FF0FF3302939946002212230B92AAE7CD
:1059700001230A93F4E70123029399461A46F5E7B7
:10598000013171605200A2E761436F63A787D23F84
:10599000B3C8608B288AC63FFB799F501344D33F1E
:1059A0000000F07FE96B00080000F83F486C000839
:1059B000206C0008156C0008F10708D5DDE9080126
:1059C000D7E90023FAF7E0FDCDE9080101357610AB
:1059D0000837002EF0D1DDE90823DDE90001FAF7F0
:1059E000FDFECDE900011AE00225A3E700F0A0804A
:1059F000CAF100069F4BA04F06F00F0203EBC20353
:105A0000D3E90023DDE91001FAF7BEFDCDE900017D
:105A1000361100230225002E7FD1002BE1D10F9BF0
:105A2000002B00F08780DDE900670022934B3046B1
:105A30003946FBF795FA00287CD0B9F1000F79D0F0
:105A4000029B002B35DD0AF1FF3308933946002213
:105A50008B4B3046FAF798FDCDE90001029F0135E6
:105A60002846FAF727FDDDE90023FAF78DFD00222D
:105A7000844BFAF7D3FB0546A1F15076002F5DD198
:105A80000022814BDDE90001FAF7C6FB2A463346C6
:105A9000CDE90001FBF782FA002840F088822A460F
:105AA00006F10043DDE90001FBF75AFA002840F057
:105AB0007C82DDE91023CDE90023159B002BC0F289
:105AC0005081BAF10E0F00F34C816A4B03EBCA030D
:105AD00093ED007B0B9B002B8DED027B80F2D88039
