:020000040800F2
:1000000000800120C95900082D5900082F59000807
:100010003159000833590008355900080000000024
:100020000000000000000000000000003759000838
:1000300039590008000000003B5900083D590008EC
:10004000195A000845590008195A00084D59000866
:10005000195A0008195A00085D5900086759000824
:10006000195A0008195A0008195A0008195A0008A4
:10007000195A0008195A0008195A0008195A000894
:10008000195A0008195A0008195A0008195A000884
:10009000195A0008195A0008195A0008195A000874
:1000A000195A0008195A0008195A0008195A000864
:1000B000195A0008195A0008195A0008195A000854
:1000C000195A0008195A0008195A0008195A000844
:1000D000195A0008195A0008195A0008195A000834
:1000E000195A0008195A0008195A0008195A000824
:1000F000195A0008195A0008195A0008195A000814
:10010000195A0008195A0008195A0008195A000803
:10011000195A0008195A0008195A0008195A0008F3
:10012000195A0008195A0008195A0008195A0008E3
:10013000195A0008195A0008195A0008195A0008D3
:1001400071590008195A0008195A0008195A00086C
:10015000195A0008195A0008195A0008195A0008B3
:10016000195A0008195A0008195A0008195A0008A3
:10017000195A0008195A0008000000000000000089
:08018000195A0008195A000881
:1001900010B5054C237833B9044B13B10448AFF3C1
:1001A00000800123237010BD000200200000000029
:1001B000647D000808B5034B1BB103490348AFF346
:1001C000008008BD0000000004020020647D0008DB
:1001D00081F0004102E000BF83F0004330B54FEAF8
:1001E00041044FEA430594EA050F08BF90EA020F65
:1001F0001FBF54EA000C55EA020C7FEA645C7FEAF8
:10020000655C00F0E2804FEA5454D4EB5555B8BF1A
:100210006D420CDD2C4480EA020281EA030382EA8B
:10022000000083EA010180EA020281EA0303362D1D
:1002300088BF30BD11F0004F4FEA01314FF4801CF0
:100240004CEA113102D0404261EB410113F0004F02
:100250004FEA03334CEA133302D0524263EB4303B9
:1002600094EA050F00F0A780A4F10104D5F1200E57
:100270000DDB02FA0EFC22FA05F2801841F10001B2
:1002800003FA0EF2801843FA05F359410EE0A5F186
:1002900020050EF1200E012A03FA0EFC28BF4CF0B7
:1002A000020C43FA05F3C01851EBE37101F000456D
:1002B00007D54FF0000EDCF1000C7EEB00006EEB7A
:1002C0000101B1F5801F1BD3B1F5001F0CD3490804
:1002D0005FEA30004FEA3C0C04F101044FEA44525B
:1002E00012F5800F80F09A80BCF1004F08BF5FEAE2
:1002F000500C50F1000041EB045141EA050130BDC2
:100300005FEA4C0C404141EB010111F4801FA4F164
:100310000104E9D191F0000F04BF01460020B1FAB9
:1003200081F308BF2033A3F10B03B3F120020CDAF1
:100330000C3208DD02F1140CC2F10C0201FA0CF0CF
:1003400021FA02F10CE002F11402D8BFC2F1200C34
:1003500001FA02F120FA0CFCDCBF41EA0C019040EA
:10036000E41AA2BF01EB0451294330BD6FEA040433
:100370001F3C1CDA0C340EDC04F11404C4F120021E
:1003800020FA04F001FA02F340EA030021FA04F330
:1003900045EA030130BDC4F10C04C4F1200220FA87
:1003A00002F001FA04F340EA0300294630BD21FAC5
:1003B00004F0294630BD94F0000F83F4801306BF8B
:1003C00081F480110134013D4EE77FEA645C18BF7F
:1003D0007FEA655C29D094EA050F08BF90EA020F16
:1003E00005D054EA000C04BF1946104630BD91EA0E
:1003F000030F1EBF0021002030BD5FEA545C05D111
:100400004000494128BF41F0004130BD14F580044F
:100410003CBF01F5801130BD01F0004545F0FE41C3
:1004200041F470014FF0000030BD7FEA645C1ABFF8
:10043000194610467FEA655C1CBF0B46024650EA2F
:10044000013406BF52EA033591EA030F41F400215B
:1004500030BD00BF90F0000F04BF0021704730B5E1
:100460004FF4806404F132044FF000054FF00001B6
:1004700050E700BF90F0000F04BF0021704730B577
:100480004FF4806404F1320410F0004548BF40424C
:100490004FF000013EE700BF42004FEAE2014FEAA1
:1004A00031014FEA02701FBF12F07F4393F07F4F7C
:1004B00081F06051704732F07F4208BF704793F07F
:1004C0007F4F04BF41F40021704730B54FF4607492
:1004D00001F0004521F000411CE700BF50EA010295
:1004E00008BF704730B54FF000050AE050EA01023E
:1004F00008BF704730B511F0004502D5404261EBAE
:1005000041014FF4806404F132045FEA915C3FF4EE
:10051000D8AE4FF003025FEADC0C18BF03325FEA8B
:10052000DC0C18BF033202EBDC02C2F1200300FA3C
:1005300003FC20FA02F001FA03FE40EA0E0021FA61
:1005400002F11444BDE600BF70B54FF0FF0C4CF44F
:10055000E06C1CEA11541DBF1CEA135594EA0C0F01
:1005600095EA0C0F00F0DEF82C4481EA030621EA3C
:100570004C5123EA4C5350EA013518BF52EA033577
:1005800041F4801143F4801338D0A0FB02CE4FF029
:100590000005E1FB02E506F00042E0FB03E54FF059
:1005A0000006E1FB03569CF0000F18BF4EF0010E51
:1005B000A4F1FF04B6F5007F64F5407404D25FEA4D
:1005C0004E0E6D4146EB060642EAC62141EA555100
:1005D0004FEAC52040EA5E504FEACE2EB4F1FD0C42
:1005E00088BFBCF5E06F1ED8BEF1004F08BF5FEAC0
:1005F000500E50F1000041EB045170BD06F0004672
:1006000046EA010140EA020081EA0301B4EB5C041E
:10061000C2BFD4EB0C0541EA045170BD41F4801116
:100620004FF0000E013C00F3AB8014F1360FDEBF3B
:10063000002001F0004170BDC4F10004203C35DA17
:100640000C341BDC04F11404C4F1200500FA05F39A
:1006500020FA04F001FA05F240EA020001F000423B
:1006600021F0004110EBD37021FA04F642EB0601B1
:100670005EEA430E08BF20EAD37070BDC4F10C04DB
:10068000C4F1200500FA04F320FA05F001FA04F29F
:1006900040EA020001F0004110EBD37041F100018B
:1006A0005EEA430E08BF20EAD37070BDC4F1200596
:1006B00000FA05F24EEA020E20FA04F301FA05F2FE
:1006C00043EA020321FA04F001F0004121FA04F2A6
:1006D00020EA020000EBD3705EEA430E08BF20EA76
:1006E000D37070BD94F0000F0FD101F000464000B0
:1006F00041EB010111F4801F08BF013CF7D041EA32
:10070000060195F0000F18BF704703F00046520035
:1007100043EB030313F4801F08BF013DF7D043EA06
:100720000603704794EA0C0F0CEA135518BF95EABC
:100730000C0F0CD050EA410618BF52EA4306D1D143
:1007400081EA030101F000414FF0000070BD50EA62
:10075000410606BF1046194652EA430619D094EAEC
:100760000C0F02D150EA013613D195EA0C0F05D1D6
:1007700052EA03361CBF104619460AD181EA03012A
:1007800001F0004141F0FE4141F470014FF00000E2
:1007900070BD41F0FE4141F4780170BD70B54FF07D
:1007A000FF0C4CF4E06C1CEA11541DBF1CEA1355FD
:1007B00094EA0C0F95EA0C0F00F0A7F8A4EB0504DF
:1007C00081EA030E52EA03354FEA013100F08880D6
:1007D0004FEA03334FF0805545EA131343EA12639F
:1007E0004FEA022245EA111545EA10654FEA002654
:1007F0000EF000419D4208BF964244F1FD0404F50D
:10080000407402D25B084FEA3202B61A65EB030568
:100810005B084FEA32024FF480104FF4002CB6EB25
:10082000020E75EB030E22BFB61A754640EA0C00A5
:100830005B084FEA3202B6EB020E75EB030E22BFE5
:10084000B61A754640EA5C005B084FEA3202B6EB26
:10085000020E75EB030E22BFB61A754640EA9C00E5
:100860005B084FEA3202B6EB020E75EB030E22BFB5
:10087000B61A754640EADC0055EA060E18D04FEA73
:10088000051545EA16754FEA06164FEAC30343EA13
:1008900052734FEAC2025FEA1C1CC0D111F4801FE0
:1008A0000BD141EA00014FF000004FF0004CB6E7D9
:1008B00011F4801F04BF01430020B4F1FD0C88BF78
:1008C000BCF5E06F3FF6AFAEB5EB030C04BFB6EB83
:1008D000020C5FEA500C50F1000041EB045170BD76
:1008E0000EF0004E4EEA113114EB5C04C2BFD4EBA3
:1008F0000C0541EA045170BD41F480114FF0000E27
:10090000013C90E645EA060E8DE60CEA135594EAA2
:100910000C0F08BF95EA0C0F3FF43BAF94EA0C0FA5
:100920000AD150EA01347FF434AF95EA0C0F7FF41A
:1009300025AF104619462CE795EA0C0F06D152EA6E
:1009400003353FF4FDAE1046194622E750EA410652
:1009500018BF52EA43067FF4C5AE50EA41047FF463
:100960000DAF52EA43057FF4EBAE12E74FF0FF3CC8
:1009700006E000BF4FF0010C02E000BF4FF0010C99
:100980004DF804CD4FEA410C7FEA6C5C4FEA430C12
:1009900018BF7FEA6C5C1BD001B050EA410C0CBF61
:1009A00052EA430C91EA030F02BF90EA020F0020C3
:1009B000704710F1000F91EA030F58BF994208BF2A
:1009C00090422CBFD8176FEAE37040F001007047E7
:1009D0004FEA410C7FEA6C5C02D150EA013C07D13E
:1009E0004FEA430C7FEA6C5CD6D152EA033CD3D089
:1009F0005DF8040B704700BF8446104662468C4683
:100A00001946634600E000BF01B5FFF7B7FF0028B5
:100A100048BF10F1000F01BD4DF808EDFFF7F4FFDE
:100A20000CBF012000205DF808FB00BF4DF808ED69
:100A3000FFF7EAFF34BF012000205DF808FB00BF8C
:100A40004DF808EDFFF7E0FF94BF012000205DF8AE
:100A500008FB00BF4DF808EDFFF7CEFF94BF012063
:100A600000205DF808FB00BF4DF808EDFFF7C4FF5C
:100A700034BF012000205DF808FB00BF4FEA410CA5
:100A80007FEA6C5C02D150EA013C0AD14FEA430C88
:100A90007FEA6C5C02D152EA033C02D14FF00000C5
:100AA00070474FF0010070474FEA4102B2F1E04356
:100AB00024BFB3F5001CDCF1FE5C0DD901F0004C45
:100AC0004FEAC0024CEA5070B2F1004F40EB830095
:100AD00008BF20F00100704711F0804F21D113F1C1
:100AE0003872BCBF01F00040704741F480114FEAFA
:100AF0005252C2F11802C2F1200C10FA0CF320FA83
:100B000002F018BF40F001004FEAC1234FEAD3239F
:100B100003FA0CFC40EA0C0023FA02F34FEA430309
:100B2000CCE77FEA625307D150EA01331EBF4FF092
:100B3000FE4040F44000704701F0004040F0FE40AD
:100B400040F40000704700BF53B94AB9002908BFFC
:100B500000281CBF4FF0FF314FF0FF3000F072B99A
:100B6000ADF1080C6DE904CE00F006F8DDF804E004
:100B7000DDE9022304B070472DE9F047089E0446E2
:100B80008846002B4BD18A42154667D9B2FA82F2C9
:100B90004AB1C2F1200701FA02F320FA07F79540A3
:100BA00047EA030894404FEA154E230CB8FBFEF7C2
:100BB0001FFA85FC0EFB178843EA084307FB0CF17C
:100BC000994209D9EB1807F1FF3080F01B81994257
:100BD00040F21881023F2B445B1AA4B2B3FBFEF033
:100BE0000EFB103344EA034400FB0CFCA44509D976
:100BF0002C1900F1FF3380F00781A44540F20481F5
:100C000002382C4440EA0740A4EB0C0400271EB134
:100C1000D4400023C6E900433946BDE8F0878B4243
:100C200009D9002E00F0EB800027C6E90001384604
:100C30003946BDE8F087B3FA83F7002F47D18B42DE
:100C400002D3824200F2FA80841A61EB030301208E
:100C50009846002EE0D0C6E90048DDE702B9FFDE85
:100C6000B2FA82F2002A40F08F80491B4FEA154EFB
:100C70001FFA85F80127B1FBFEFC230C0EFB1C11AB
:100C800043EA014308FB0CF1994207D9EB180CF138
:100C9000FF3002D2994200F2CD808446591AA3B2A5
:100CA000B1FBFEF00EFB101443EA044408FB00F80D
:100CB000A04507D92C1900F1FF3302D2A04500F25C
:100CC000B6801846A4EB080440EA0C409FE7C7F141
:100CD000200CBB4022FA0CFE4EEA030E01FA07F488
:100CE00020FA0CF521FA0CF34FEA1E482543B3FB1A
:100CF000F8F92C0C08FB19331FFA8EFA44EA034367
:100D000009FB0AF49C4202FA07F200FA07F10BD938
:100D10001EEB030309F1FF3080F087809C4240F214
:100D20008480A9F1020973441B1BADB2B3FBF8F038
:100D300008FB103345EA034400FB0AFAA24508D930
:100D40001EEB040400F1FF336BD2A24569D90238CF
:100D5000744440EA0940A0FB0289A4EB0A044C4514
:100D6000C2464B4654D351D0002E69D0B1EB0A0590
:100D700064EB030404FA0CFCFD40FC404CEA05055E
:100D8000C6E90054002747E7C2F1200320FA03F721
:100D9000954001FA02F021FA03F34FEA154E384369
:100DA000010CB3FBFEF71FFA85F80EFB173341EA7F
:100DB000034107FB08F38B4204FA02F407D96918D0
:100DC00007F1FF3C2FD28B422DD9023F2944CB1A89
:100DD00081B2B3FBFEF00EFB103341EA034100FB8E
:100DE00008F38B4207D9691800F1FF3C17D28B42F8
:100DF00015D902382944C91A40EA07473BE7374664
:100E0000304609E70746E7E61846FBE64145ABD220
:100E1000B8EB020A69EB0E0201381346A4E76046FC
:100E2000E9E7184695E76746D1E781467CE702384F
:100E30002C4447E7ACF1020C2B442FE7384608E777
:100E40003746E9E6704700BF034613F8012B002A36
:100E5000FBD1181A013870470000000000000000A4
:100E600001F0FF01102A2BDB10F0070F08D010F85B
:100E7000013B013A8B422DD010F0070F42B3F6D15F
:100E8000F0B441EA012141EA014122F007047FF078
:100E900000070023F0E80256083C85EA010586EACF
:100EA000010685FA47F5A3FA87F586FA47F6A5FA0B
:100EB00087F68EB9EED1F0BC01F0FF0102F0070217
:100EC00032B110F8013B013A83EA010313B1F8D1C2
:100ED0000020704701387047002D06BF35460338A3
:100EE000073815F0010F07D1013015F4807F02BFDC
:100EF000013015F4C03F0130F0BC0138704700BF2D
:100F00004FEA410212F5001215D211D56FF4787331
:100F1000B3EB625212D94FEAC12343F0004343EAD4
:100F2000505311F0004F23FA02F018BF40427047AF
:100F30004FF00000704750EA013005D111F0004039
:100F400008BF6FF0004070474FF00000704700BFCF
:100F500010B50446094B1868094BA3FB0030800903
:100F600000F0C0F908B1012010BD002221464FF069
:100F7000FF3000F077F90020F6E700BF28000020DE
:100F8000D34D621010B5032000F05AF90020FFF78E
:100F9000DFFF10B10124204610BD044604F054FBCD
:100FA000F9E70000024A136801331360704700BF7D
:100FB000DC020020014B1868704700BFDC020020F3
:100FC00038B50446FFF7F6FF0546B4F1FF3F00D001
:100FD0000134FFF7EFFF401BA042FAD338BD0000F9
:100FE000024A136823F002031360704710E000E028
:100FF000024A136843F002031360704710E000E0F8
:1010000030B583B000230193002800F0AF80044680
:1010100003681B68002BC0F2AB8090F82530002BD2
:101020002ED02168086800F40000E36822691343A9
:10103000E269134362691343A2691343A26813432D
:101040000D684D4A2A4013430B606368B3F5007F77
:1010500029D04A4A136823F4007313602268136886
:1010600013F4000F2BD050BB454B1B689B0945491F
:10107000A1FB03139B0903EB8303990001911BE080
:1010800080F82430836203F1804303F504331A6E41
:1010900042F001021A661B6E03F001030093009BED
:1010A00004F0F4FABDE7354A136843F400731360A3
:1010B000D4E7019B013B0193019B002BF9D1324BFB
:1010C0009A4227D04FF48003226A12F0030F3CD0DB
:1010D00012F0100F21D02D498A681A438A60226AC3
:1010E00012F0200F1FD02949CA681A43CA60274A44
:1010F0005361226A12F0020F1BD024494A681A4336
:101100004A60226A12F0010F19D020490A6813437D
:101110000B6022E04FF40013D6E71C498A6822EAEC
:1011200003028A60DBE71949CA6822EA0302CA603F
:10113000DDE716494A6822EA03024A60E1E71349FB
:101140000A6822EA03030B6007E0104A5168DB4398
:101150001940516011680B40136094F825304BB969
:10116000012384F82530002003B030BD0120FBE7C7
:101170000120F9E70020F7E7037D20FF040201408A
:1011800028000020632D3E050002014000040140BC
:1011900082B00023019320B301680A68002A22DB91
:1011A00090F82520D2B2012A02D0012002B0704767
:1011B0000A6842F001020A60022280F825200B4BE7
:1011C0001B689B090A4AA2FB03239B09DB000193CE
:1011D00002E0019B013B0193019B002BF9D1002010
:1011E000E4E70120E2E70120E0E700BF280000205B
:1011F000632D3E0508B502680E4B9A4207D04FF4A6
:1012000080030D4A526933EA020203D008BD4FF44D
:101210000013F6E7094A126812F4007F06D0064B65
:101220004FF4C0025A6103F039FFEFE7024A5361FD
:10123000F9E700BF00020140000401400402014040
:10124000074AD36823F4E0631B041B0C000200F47C
:10125000E060184340F0BF6040F40030D060704759
:1012600000ED00E030B4174BDB68C3F30223C3F199
:101270000704042C28BF04241D1D062D18D9033B88
:101280004FF0FF3505FA04F421EA0401994005FA0C
:1012900003F322EA0303194300280BDB0901C9B257
:1012A00000F1604000F5614080F8001330BC7047E9
:1012B0000023E5E700F00F000901C9B2024B195401
:1012C000F4E700BF00ED00E014ED00E000F01F02C5
:1012D000400901239340024A42F82030704700BF82
:1012E00000E100E00138B0F1807F0AD2064B58607F
:1012F000064AF02182F823100020986007221A6025
:1013000070470120704700BF10E000E000ED00E0F2
:1013100070B110B50446037933B102232371002064
:1013200020610123237110BD437104F0DFF9F4E75C
:10133000012070474379012B2AD030B40123437137
:10134000022202710468226801F01005AB401343C9
:10135000236089B90268136803F03C03042B06D0AC
:101360000123037100234371184630BC7047536852
:1013700043F001035360F3E70268136803F470134A
:10138000B3F5802FECD1536843F002035360E7E7D5
:101390000220704710B483B00024019400680190CB
:1013A00051B101990A4414320192019A136000204C
:1013B00003B05DF8044B704701990A44083201926A
:1013C000F3E7F8B54379012B00F0948016460D46FB
:1013D000044601234371022303710B68042B32D0AE
:1013E0002B69012B79D02068C36B06F0100207210E
:1013F000914023EA01012B68AE683343EE68334322
:1014000093400B43C363206803684FF480419140CD
:1014100023EA010303602068036840F6FC719140F1
:1014200023EA01016B6893400B4303602068036863
:10143000C02101FA02F223EA0202026001232371B1
:1014400000206071F8BD72B123685B6B002B25DA58
:10145000FFF7B0FD0128F7D9236943F008032361A2
:1014600003202071EEE7FFF7A5FD074623685B6BBD
:1014700013F4004F0BD0FFF79DFDC01B0128F5D9D9
:10148000236943F00803236103202071DAE7012078
:10149000FFF796FD2368AA691A6405E00120FFF7AB
:1014A0008FFD2368AA695A642068826C06F01001D7
:1014B00040F2FF338B4022EA0302EB698B401A4370
:1014C00082642068C36CFF228A4023EA02032A6AEE
:1014D00002FA01F10B43C36482E721688A6B06F0CC
:1014E00010001F23834022EA03026B6983401343E9
:1014F0008B6378E70220A5E7F0B482B0002341E0D7
:10150000D0F82CC02CEA040CC6F3C0049C4044EA7A
:101510000C04C46286E0062400E00024B4403C438E
:101520000235664E46F82540654C2568D44304EAEA
:1015300005064F6817F4803F01D042EA0506604D6A
:101540002E606D6804EA05064F6817F4003F01D06D
:1015500042EA05065A4D6E60AD6804EA05064F681A
:1015600017F4801F01D042EA0506554DAE60ED68C4
:101570002C404E6816F4001F01D042EA0504504A80
:10158000D46001330A6832FA03F400F09380012436
:101590009C402240F5D04D68022D01D0122D10D173
:1015A000DE08083650F826C003F00705AF000F2507
:1015B000BD402CEA050C0D69BD4045EA0C0540F81C
:1015C000265006685F000325BD40ED4305EA060C82
:1015D0004E6806F00306BE4046EA0C0606604E68FA
:1015E00006F1FF3CBCF1010F03D9112E01D0122EE0
:1015F00011D1866805EA060CCE68BE4046EA0C06A4
:101600008660466826EA040C4E68C6F300169E40C3
:1016100046EA0C0646604E6806F0030CBCF1030F68
:101620003FF46EAFC46825408C68BC402C43C46056
:101630004C6814F0805FA4D0224C256E45F0010563
:101640002566246E04F001040194019C9D08AE1CE3
:101650001A4C54F8267003F00304A6000F24B4407B
:1016600027EA0407B0F1904F3FF457AF164CA04261
:1016700016D004F58064A04214D004F58064A04222
:1016800012D004F58064A04210D004F58064A0421A
:101690000ED004F58064A0423FF43DAF07243DE73F
:1016A00001243BE7022439E7032437E7042435E724
:1016B000052433E702B0F0BC704700BF00000140D2
:1016C0000004014000100240000400480AB9816291
:1016D000704781617047436959404161704700001C
:1016E00008B5054B5B69034200D108BD024B586148
:1016F00003F06AFDF9E700BF0004014003689A693E
:1017000012F0020F01D000229A6203689A6912F067
:10171000010F03D19A6942F001029A61704770B4D7
:10172000039E05686868740D04F4806444F07F7457
:1017300044F4583444F47F7444F0030420EA040071
:10174000C1F3090141EA0241194331430143696090
:1017500070BC704770B504460D46164603689B6919
:1017600013F0100F1CD023689A6912F0200F19D1C2
:10177000B5F1FF3FF7D0FFF71DFC801BA84201D851
:10178000002DF0D1636C43F020036364202384F8C0
:101790004130002384F8423084F84030012020E0BA
:1017A00000201EE01022DA6123682025DD6120463A
:1017B000FFF7A4FF2268536823F0FF7323F48B33F1
:1017C00023F4FF7323F001035360636C43F00403BD
:1017D000636484F84150002384F8423084F8403038
:1017E000012070BD70B504460D46164623689B69FE
:1017F00013F0020F1DD1324629462046FFF7AAFFFB
:10180000C8B9B5F1FF3FF1D0FFF7D4FB801BA84268
:1018100001D8002DEAD1636C43F0200363642023D8
:1018200084F84130002384F8423084F840300120AD
:1018300000E0002070BD0120FCE7F8B505460F462A
:1018400016461C462B689B6937EA03030CBF01232D
:101850000023B34218D1B4F1FF3FF3D0FFF7AAFB46
:10186000069BC01AA04201D8002CEBD16B6C43F050
:1018700020036B64202385F84130002385F8423033
:1018800085F84030012000E00020F8BD70B582B03E
:10189000044616461D46184B00934FF08073EAB27B
:1018A000FFF73DFF079A06992046FFF79BFFE8B92F
:1018B000012D0ED12368F6B29E62079B0093069B12
:1018C000002280212046FFF7B8FF034678B10123AC
:1018D0000DE02368320A9A62079A06992046FFF7BC
:1018E00081FF38B92368F6B29E62E6E70123184605
:1018F00002B070BD0123FAE70020008070B582B00D
:10190000044616461D46184B00930023EAB2FFF723
:1019100006FF079A06992046FFF764FFE8B9012DF4
:101920000ED12368F6B29E62079B0093069B0022AD
:1019300040212046FFF781FF034678B101230DE0E7
:101940002368320A9A62079A06992046FFF74AFFEF
:1019500038B92368F6B29E62E6E70123184602B062
:1019600070BD0123FAE700BF0020008070B5054676
:101970000C4616462B689B6913F0200F1AD132468D
:1019800021462846FFF7E6FEB0B9FFF713FB801BA0
:10199000A04201D8002CEDD16B6C43F020036B64A6
:1019A000202385F84130002385F8423085F8403007
:1019B000012070BD0020FCE70120FAE770B5044665
:1019C0000D46164623689B6913F0040F3ED132463C
:1019D00029462046FFF7BEFE0146002838D123687D
:1019E0009A6912F0200F13D1FFF7E4FA801BA84286
:1019F00001D8002DE6D1636C43F0200363642023FB
:101A000084F84130002384F840300121084670BD3D
:101A10009A6912F0040F02D0228D002AF6D12022FA
:101A2000DA6121684B6823F0FF7323F48B3323F4CE
:101A3000FF7323F001034B600023636484F84120AB
:101A400084F8423084F840300121DFE70021DDE7EF
:101A50000121DBE7002859D010B5044690F8413049
:101A6000002B43D0242384F841302268136823F0EC
:101A7000010313606368226823F0706313612268B6
:101A8000936823F400439360E368012B33D0A36889
:101A9000226843F404439360E368022B31D0226848
:101AA000536843F0007343F4004353602268D368E3
:101AB00023F40043D360236962691343A169226858
:101AC00043EA0123D360E369216A22680B43136070
:101AD0002268136843F00103136000206064202330
:101AE00084F84130206384F8420010BD80F8403013
:101AF00003F012FEB6E7A368226843F40043936044
:101B0000CAE723684FF400625A60C8E701207047B3
:101B10002DE9F04383B090F84150EDB2202D40F014
:101B2000A48090F84040012C00F0A480984617460D
:101B30000E4604464FF0010980F84090FFF73AFA4C
:101B40000546009019234A464FF400412046FFF70E
:101B500074FE002840F09080212384F84130102347
:101B600084F84230002363646762A4F82A806363C8
:101B7000638D9BB2FF2B0AD9FF222285424B009333
:101B80004FF0807331462046FFF7C9FD18E0628DA3
:101B900092B222853C4B00934FF00073D2B2314693
:101BA0002046FFF7BCFD0BE0628D92B22285002338
:101BB00000934FF00073D2B231462046FFF7AFFDDD
:101BC000638D9BB2002B33D02A460A992046FFF73B
:101BD00009FE002852D1626A236812789A62636A09
:101BE00001336362638D013B9BB26385238D013BAF
:101BF0009BB22385628D92B2002AE1D0002BDFD107
:101C000000950A9B002280212046FFF716FE00283F
:101C100036D1638D9BB2FF2BC6D9FF2222850023CC
:101C200000934FF0807331462046FFF778FDC7E7F9
:101C30002A460A992046FFF799FE034610BB226800
:101C40002021D1612068426822F0FF7222F48B3299
:101C500022F4FF7222F00102426084F84110002257
:101C600084F8422084F8402000E00223184603B0A4
:101C7000BDE8F0830223F9E70123F7E70123F5E745
:101C80000123F3E70123F1E7002000802DE9F04371
:101C900083B090F84150EDB2202D40F0A48090F830
:101CA0004040012C00F0A480984617460E4604469A
:101CB0004FF0010980F84090FFF77CF9054600904D
:101CC00019234A464FF400412046FFF7B6FD00288D
:101CD00040F09080222384F84130102384F8423071
:101CE000002363646762A4F82A806363638D9BB2F8
:101CF000FF2B0AD9FF222285424B00934FF08073BD
:101D000031462046FFF70BFD18E0628D92B2228526
:101D10003C4B00934FF00073D2B231462046FFF7A0
:101D2000FEFC0BE0628D92B22285002300934FF0FF
:101D30000073D2B231462046FFF7F1FC638D9BB2AF
:101D4000002B33D02A460A992046FFF737FE002899
:101D500052D123685A6A636A1A70636A01336362F4
:101D6000238D013B9BB22385628D013A92B262853D
:101D7000628D92B2002AE1D0002BDFD100950A9B40
:101D8000002280212046FFF758FD002836D1638DC0
:101D90009BB2FF2BC6D9FF222285002300934FF070
:101DA000807331462046FFF7BAFCC7E72A460A99F6
:101DB0002046FFF7DBFD034610BB22682021D161DE
:101DC0002068426822F0FF7222F48B3222F4FF7204
:101DD00022F00102426084F84110002284F842207F
:101DE00084F8402000E00223184603B0BDE8F083E9
:101DF0000223F9E70123F7E70123F5E70123F3E7DE
:101E00000123F1E7002400802DE9F04782B0BDF8FE
:101E10002C7090F84150EDB2202D40F0BA800A9C11
:101E2000DCB1D7B190F84040012C00F0B780984663
:101E300091460D4604464FF0010A80F840A0FFF796
:101E4000B9F806460090192352464FF40041204647
:101E5000FFF7F3FC30B101239CE04FF400734364BF
:101E6000012397E0212384F84130402384F8423055
:101E7000002363640A9A62626785636301960C9B20
:101E8000009343464A4629462046FFF7FFFC70B9B7
:101E9000638D9BB2FF2B0FD9FF2222850023009375
:101EA0004FF0807329462046FFF739FC21E00023DC
:101EB00084F8403053466DE0628D92B22285002353
:101EC00000934FF00073D2B229462046FFF727FC5B
:101ED0000FE0628D92B22285002300934FF00073D1
:101EE000D2B229462046FFF71AFC638D9BB2002B25
:101EF00032D032460C992046FFF774FC00284FD1AF
:101F0000626A236812789A62636A01336362638D3E
:101F1000013B9BB26385238D013B9BB22385628D80
:101F200092B2002AE1D0002BDFD100960C9B002258
:101F300080212046FFF781FCA0BB638D9BB2FF2B65
:101F4000C7D9FF222285002300934FF080732946D2
:101F50002046FFF7E4FBC8E732460C992046FFF71E
:101F600005FD034600BB22682021D161206842683C
:101F700022F0FF7222F48B3222F4FF7222F001026F
:101F8000426084F84110002284F8422084F8402006
:101F900000E00223184602B0BDE8F0870223F9E70B
:101FA0000123F7E70123F5E70123F3E72DE9F047E4
:101FB00082B0BDF82C7090F84150EDB2202D40F069
:101FC000BC800A9CDCB1D7B190F84040012C00F0F5
:101FD000B980984691460D4604464FF0010A80F8B4
:101FE00040A0FEF7E7FF06460090192352464FF443
:101FF00000412046FFF721FC30B101239EE04FF461
:1020000000734364012399E0222384F84130402384
:1020100084F84230002363640A9A626267856363CE
:1020200001960C9B009343464A4629462046FFF7FB
:1020300065FC70B9638D9BB2FF2B0FD9FF222285FF
:10204000444B00934FF0807329462046FFF767FB0F
:1020500021E0002384F8403053466FE0628D92B255
:1020600022853C4B00934FF00073D2B229462046A4
:10207000FFF755FB0FE0628D92B22285002300939B
:102080004FF00073D2B229462046FFF748FB638D1C
:102090009BB2002B34D000960C9B002204212046DA
:1020A000FFF7CBFB00284FD123685A6A636A1A7086
:1020B000636A01336362238D013B9BB22385628D8A
:1020C000013A92B26285628D92B2002ADFD0002B73
:1020D000DDD100960C9B002280212046FFF7ADFB4E
:1020E000A0BB638D9BB2FF2BC5D9FF2222850023A5
:1020F00000934FF0807329462046FFF710FBC6E798
:1021000032460C992046FFF731FC034600BB22689B
:102110002021D1612068426822F0FF7222F48B32C4
:1021200022F4FF7222F00102426084F84110002282
:1021300084F8422084F8402000E00223184602B0D0
:10214000BDE8F0870223F9E70123F7E70123F5E76C
:102150000123F3E70024008090F84130DBB2202B0C
:1021600024D190F84030012B22D0012380F8403058
:10217000242380F841300268136823F001031360C0
:102180000268136823F480531360026813681943CC
:1021900011600268136843F001031360202380F884
:1021A0004130002380F840301846704702207047C5
:1021B0000220704790F84130DBB2202B22D190F8FA
:1021C0004030012B20D0012380F84030242380F8B8
:1021D00041300268136823F001031360026813683A
:1021E00023F4706343EA012111600268136843F02D
:1021F00001031360202380F84130002380F8403031
:10220000184670470220704702207047024A136840
:1022100043F48073136070470070004008B5B0F558
:10222000804F03D0084600F057F808BD084600F07C
:102230006FF8FAE770470000024B186800F4C060BE
:10224000704700BF00700040B0F5007F0FD01F4BFB
:102250001B6803F4C063B3F5806F34D01B4A136866
:1022600023F4C06343F48063136000207047174B6E
:102270001B6803F4C063B3F5007F22D0134A1368D0
:1022800023F4C06343F400731360114B1A683223C4
:1022900003FB02F30F4AA2FB03239B0C013300E074
:1022A000013B0A4A526912F4806F01D0002BF7D12A
:1022B000064B5B6913F4806F01D100207047032047
:1022C0007047002070470020704700BF007000403A
:1022D0002800002083DE1B430B4A136823F007030A
:1022E00013600A4A136943F004031361012808D0FC
:1022F00040BF20BF20BF054A136923F004031361C8
:10230000704730BFF7E700BF0070004000ED00E00D
:102310000C4A136823F0070343F0010313600A4AD1
:10232000136943F004031361012808D040BF20BFA4
:1023300020BF054A136923F004031361704730BFBF
:10234000F7E700BF0070004000ED00E07047704705
:102350007047704708B51C4B5B6913F4803F14D17C
:10236000194B5B6B13F0080F16D1174B5B6B13F017
:10237000100F17D1144B5B6B13F0200F18D1124BB9
:102380005B6B13F0400F19D108BDFFF753FF0E4BE5
:102390004FF480325A61E3E7FFF7D8FF0A4B082277
:1023A0005A63E2E7FFF7D3FF074B10225A63E1E7D6
:1023B000FFF7CEFF044B20225A63E0E7FFF7C9FF87
:1023C000014B40225A63DFE70004014030B583B07F
:1023D0000546204B9B6D13F0805F0BD0FFF72CFF61
:1023E000B0F5007F17D0802D1FD82DD0702D2DD0A7
:1023F00000211BE0174CA36D43F08053A365A36D30
:1024000003F080530193019BFFF716FFA36D23F0A8
:102410008053A365E4E7802D03D9A02D03D90221C1
:1024200004E0002102E0012100E003210A4A1368D0
:1024300023F007030B431360136803F007038B4279
:1024400006D0012003B030BD0221EFE70121EDE706
:102450000020F7E70010024000200240314A936854
:10246000D26802F0030213F00C030AD00C2B06D042
:10247000042B1FD0082B20D00020014610E0012A99
:10248000F6D1284A126812F0080F0CD1254AD2F86A
:102490009420C2F30322244951F8221043B10020B2
:1024A0000C2B0DD070471F4A1268C2F30312F2E7DB
:1024B0000846F5E71D480021F2E71D480021EFE737
:1024C000184BDA6802F00302DB68C3F3021301332E
:1024D000022A0AD0032A1AD0B1FBF3F3114AD068BA
:1024E000C0F3062000FB03F008E01048B0FBF3F354
:1024F0000C4AD068C0F3062000FB03F0094BDB68F0
:10250000C3F3416301335B00B0FBF3F0CAE7084853
:10251000B0FBF3F3034AD068C0F3062000FB03F0DE
:10252000ECE700BF00100240947D00080024F40096
:1025300000127A00002800F09082F0B583B00446C3
:10254000AC4B9D6805F00C05DE6806F003060368D9
:1025500013F0100F5DD0E5B10C2D18D0A369002B3E
:1025600000F0B780A34A136843F001031360FEF73D
:1025700021FD07469F4B1B6813F0020F40F0968029
:10258000FEF718FDC01B0228F4D9032371E2012EC7
:10259000E4D1984B1B6813F0020F03D0A369002B02
:1025A00000F05E82206A934B1B6813F0080F5DD029
:1025B000904B1B6803F0F00398425ED9FFF706FFCB
:1025C000002840F04F828B4B1A6842F008021A60D4
:1025D0001A6822F0F002216A0A431A605A6822F44B
:1025E0007F42E16942EA01225A60FFF737FF814BDF
:1025F0009B68C3F30313804AD35C03F01F03D840E6
:102600007E4B18600020FEF7A3FC0346002840F034
:102610003082236813F0010F7AD0082D6FD00C2D73
:102620006BD06368B3F5803F00F09180B3F5A02FC5
:1026300000F093806F4B1A6822F480321A601A6897
:1026400022F480221A606368002B00F09380FEF76A
:10265000B1FC0746674B1B6813F4003F58D1FEF7E7
:10266000A9FCC01B6428F5D9032302E2614BD3F80F
:1026700094301B0903F0F0039EE75E4B1A6842F0AA
:1026800008021A601A6822F0F002216A0A431A60EE
:102690005A6822F47F42E16942EA01225A60206AC4
:1026A000FFF794FE0028A0D00123E2E1514B1A6805
:1026B00042F008021A601A6822F0F002216A0A4306
:1026C0001A605A6822F47F42E16942EA01225A60A4
:1026D0009FE7484A136823F001031360FEF76AFC82
:1026E0000746444B1B6813F0020F92D0FEF762FCC2
:1026F000C01B0228F5D90323BBE1032E91D13D4B2A
:102700001B6813F4003F03D06368002B00F0AC811A
:10271000236813F0020F4FD0042D3CD00C2D38D07D
:10272000E368002B75D0334A136843F48073136059
:10273000FEF740FC06462F4B1B6813F4806F5FD1F9
:10274000FEF738FC801B0228F5D9032391E1294AC2
:10275000136843F48033136075E703F18043A3F5F6
:102760003C331A6842F480221A601A6842F48032BC
:102770001A6068E7FEF71EFC07461E4B1B6813F441
:10278000003FC5D0FEF716FCC01B6428F5D9032313
:102790006FE1022EC4D1174B1B6813F4806F03D076
:1027A000E368002B00F06281124A536823F0F8536B
:1027B000216943EA01635360236813F0080F53D083
:1027C0006369002B39D00B4AD2F8943043F00103EF
:1027D000C2F89430FEF7EEFB0646064BD3F8943071
:1027E00013F0020F40D1FEF7E5FB801B0228F4D95D
:1027F00003233EE100100240C47D000828000020B1
:102800009E4A536823F0F853216943EA01635360F9
:10281000D2E79A4A136823F480731360FEF7CAFB69
:102820000646964B1B6813F4806FC5D0FEF7C2FBBB
:10283000801B0228F5D903231BE1904AD2F894307B
:1028400023F00103C2F89430FEF7B4FB06468B4B2D
:10285000D3F8943013F0020F06D0FEF7ABFB801BC9
:102860000228F4D9032304E1236813F0040F7AD07B
:10287000824B9B6D13F0805F0BD1804B9A6D42F0C1
:1028800080529A659B6D03F080530193019B012652
:1028900000E000267A4B1B6813F4807F26D0A368E3
:1028A000012B37D0052B3DD0744BD3F8902022F06C
:1028B0000102C3F89020D3F8902022F00402C3F85C
:1028C0009020A368002B3BD0FEF774FB07466B4BB0
:1028D000D3F8903013F0020F44D1FEF76BFBC01B0E
:1028E00041F288339842F2D90323C2E0644A136864
:1028F00043F480731360FEF75DFB0746604B1B6873
:1029000013F4807FCBD1FEF755FBC01B0228F5D90D
:102910000323AEE0594AD2F8903043F00103C2F8E5
:102920009030CEE7554BD3F8902042F00402C3F824
:102930009020D3F8902042F00102C3F89020C0E725
:10294000FEF738FB07464D4BD3F8903013F0020FDB
:1029500008D0FEF72FFBC01B41F288339842F2D912
:10296000032386E066BBA36A002B00F081800C2D58
:1029700000F08280022B29D0404B1A6822F080722E
:102980001A601B6813F0205F04D13C4AD36823F01F
:102990000303D360394AD36823F0887323F4803368
:1029A000D360FEF707FB0446344B1B6813F0007F2F
:1029B00051D0FEF7FFFA001B0228F5D9032358E097
:1029C0002E4A936D23F080539365CCE72B4A13680E
:1029D00023F080731360FEF7EDFA0546274B1B6862
:1029E00013F0007F06D0FEF7E5FA401B0228F5D968
:1029F00003233EE0236B5A1E636B1B0243EA021360
:102A0000A26B120943EA4243E26A1343E26B5208A3
:102A1000013A43EA4253226C5208013A43EA4263C4
:102A2000164AD360136843F080731360D36843F091
:102A30008073D360FEF7BEFA0446104B1B6813F098
:102A4000007F06D1FEF7B6FA001B0228F5D9032352
:102A50000FE000230DE000230BE001231846704730
:102A6000012306E0012304E0012302E0012300E04A
:102A70000023184603B0F0BD0123FAE7001002401E
:102A800000700040002800F09A8070B504464E4B5C
:102A90001B6803F007038B420CD24B4A136823F0E8
:102AA00007030B431360136803F007038B4201D045
:102AB000012070BD0D46236813F0010F39D0636803
:102AC000032B09D0022B26D063BB404A126812F0B8
:102AD000020F06D10120ECE73C4A126812F0007F99
:102AE0006FD03A498A6822F0030213438B60FEF7E5
:102AF00061FA0646354B9B6803F00C036268B3EB42
:102B0000820F16D0FEF756FA801B41F288339842A6
:102B1000F0D90320CDE72D4A126812F4003FE0D12E
:102B20000120C6E7294A126812F4806FD9D101202A
:102B3000BFE7236813F0020F06D0244A936823F0FE
:102B4000F003A1680B4393601F4B1B6803F007035E
:102B5000AB420CD91C4A136823F007032B431360C4
:102B6000136803F00703AB4201D00120A1E72368FB
:102B700013F0040F06D0154A936823F4E063E1686C
:102B80000B439360236813F0080F07D00F4A936834
:102B900023F46053216943EAC1039360FFF75EFCAD
:102BA0000A4B9B68C3F30313094AD35C03F01F036A
:102BB000D840084B18600020FEF7CAF979E70120D9
:102BC0007047012075E700BF00200240001002405E
:102BD000C47D000828000020014B1868704700BF22
:102BE0002800002008B5FFF7F7FF054B9B68C3F3EB
:102BF0000223044AD35C03F01F03D84008BD00BF82
:102C000000100240D47D000808B5FFF7E5FF054B32
:102C10009B68C3F3C223044AD35C03F01F03D8406C
:102C200008BD00BF00100240D47D0008F8B55A4B23
:102C3000DB6813F0030F18D0574BDB6803F0030376
:102C40000268934202D001252846F8BD002A00F010
:102C5000A080514BDB68C3F30213013342689342F7
:102C600001D00125F0E700251AE00368022B59D0B6
:102C7000032B5ED0012B01D001250FE0464A1268DC
:102C800012F0020F61D0444DEA6822F073024468EA
:102C9000013C43EA04131343EB600025002DD3D11C
:102CA0000F4604463C4A136823F080631360FEF726
:102CB00081F90646384B1B6813F0006F05D0FEF70C
:102CC00079F9801B0228F5D90325002DBCD1002FEE
:102CD0003DD131490B6923F41F3323F44073A068BD
:102CE000E2681209520442EA002213430B612A4AA5
:102CF000136843F080631360FEF75CF90646264BC9
:102D00001B6813F0006F05D1FEF754F9801B0228F1
:102D1000F5D90325002D97D11F4A1369A1690B43EB
:102D2000136191E71C4A126812F4806FABD1012540
:102D3000B4E7194A126812F4003FA4D1164A126887
:102D400012F4802F9FD10125A8E70125A6E7012FC6
:102D50000FD01148026922F0C06222F4FE42A1683D
:102D600063695B08013B5B0643EA0123134303618C
:102D7000BDE70948026922F4C00222F4FE42A168BC
:102D800023695B08013B5B0543EA012313430361AD
:102D9000ADE7012558E700BF00100240F8B5514BE0
:102DA000DB6813F0030F18D04E4BDB6803F003030E
:102DB0000268934202D001252846F8BD002A00F09F
:102DC0008E80484BDB68C3F30213013342689342A1
:102DD00001D00125F0E700251AE00368022B59D045
:102DE000032B5ED0012B01D001250FE03D4A126874
:102DF00012F0020F61D03B4DEA6822F07302446882
:102E0000013C43EA04131343EB600025002DD3D1AA
:102E10000F460446334A136823F080531360FEF7CD
:102E2000C9F806462F4B1B6813F0005F05D0FEF76C
:102E3000C1F8801B0228F5D90325002DBCD1002F35
:102E40003DD128494B6923F41F3323F44073A06814
:102E5000E2681209520442EA002213434B61214AFC
:102E6000136843F080531360FEF7A4F806461D4B29
:102E70001B6813F0005F05D1FEF79CF8801B022849
:102E8000F5D90325002D97D1164A536961690B4383
:102E9000536191E7134A126812F4806FABD1012598
:102EA000B4E7104A126812F4003FA4D10D4A126828
:102EB00012F4802F9FD10125A8E70125A6E7094834
:102EC000426922F0C06222F4FE42A16823695B08D5
:102ED000013B5B0643EA012313434361BFE701253E
:102EE0006AE700BF001002402DE9F04182B00446BD
:102EF000036813F4006F2FD0436EB3F5800F25D015
:102F000008D9B3F5000F10D0B3F5400F40F0998009
:102F1000002610E0002B40F0948000210430FFF7E1
:102F200085FE06463EB1374618E05E4AD36843F454
:102F30008033D36000265B4AD2F8883023F4400304
:102F4000616E0B43C2F88830002707E00021203073
:102F5000FFF724FF0646E5E700273E46236813F403
:102F6000805F15D0A36EB3F1807F7AD06CD9B3F1B6
:102F7000007F70D0B3F1407F7AD1002E7BD1494AD7
:102F8000D2F8883023F04073A16E0B43C2F888302A
:102F9000236813F4003F00F08E80424B9B6D13F0CA
:102FA000805F6AD13F4B9A6D42F080529A659B6D6B
:102FB00003F080530193019B4FF001083A4A1368D4
:102FC00043F480731360FDF7F5FF0546364B1B682D
:102FD00013F4807F05D1FDF7EDFF401B0228F5D9E2
:102FE0000326002E62D12F4BD3F8903013F4407398
:102FF00016D0D4F884209A4212D02A4AD2F89030BF
:1030000023F44073D2F8901041F48031C2F890104C
:10301000D2F8901021F48031C2F89010C2F89030AC
:1030200013F0010F2CD1002E40F043811D4AD2F83D
:10303000903023F44073D4F884100B43C2F89030DE
:1030400035E001273E4689E793B90021201DFFF7AF
:10305000EDFD064691E7134AD36843F48033D3600D
:103060008BE7002104F12000FFF798FE064684E775
:1030700001273E468CE737468AE74FF000089DE778
:10308000FDF798FF0546074BD3F8903013F0020F79
:10309000C9D1FDF78FFF401B41F288339842F2D926
:1030A0000326C0E700100240007000403746B8F128
:1030B000000F40F00081236813F0010F08D09D4AF3
:1030C000D2F8883023F00303A16B0B43C2F8883099
:1030D000236813F0020F08D0964AD2F8883023F004
:1030E0000C03E16B0B43C2F88830236813F0040F24
:1030F00008D0904AD2F8883023F03003216C0B437B
:10310000C2F88830236813F0080F08D0894AD2F833
:10311000883023F0C003616C0B43C2F88830236809
:1031200013F0100F08D0834AD2F8883023F440738C
:10313000A16C0B43C2F88830236813F0200F08D02D
:103140007C4AD2F8883023F44063E16C0B43C2F828
:103150008830236813F4007F08D0764AD2F888308C
:1031600023F44023E16D0B43C2F88830236813F445
:10317000806F08D06F4AD2F8883023F44013216E54
:103180000B43C2F88830236813F0400F08D0694A17
:10319000D2F8883023F44053216D0B43C2F88830B5
:1031A000236813F0800F08D0624AD2F8883023F4E5
:1031B0004043616D0B43C2F88830236813F4807F6D
:1031C00008D05C4AD2F8883023F44033A16D0B4319
:1031D000C2F88830236813F4005F0FD0554AD2F844
:1031E000883023F04063E16E0B43C2F88830E36E11
:1031F000B3F1006F65D0B3F1806F67D0236813F42B
:10320000002F0FD04B4AD2F8883023F04063216F53
:103210000B43C2F88830236FB3F1006F5ED0B3F177
:10322000806F60D0236813F4802F0FD0414AD2F80A
:10323000883023F04063616F0B43C2F88830636FBE
:10324000B3F1006F57D0B3F1806F59D0236813F4F6
:10325000804F0FD0374AD2F8883023F04053A16F07
:103260000B43C2F88830A36FB3F1805F50D0B3F145
:10327000005F55D0236813F4004F08D02D4AD2F8D0
:10328000883023F08043E16F0B43C2F88830236815
:1032900013F4803F09D0274AD2F8883023F0004346
:1032A000D4F880100B43C2F88830384602B0BDE82D
:1032B000F0813746FBE61F4A936D23F080539365F8
:1032C000F9E6D36843F48013D36097E70121201D0A
:1032D000FFF7ACFC002891D007468FE7D36843F492
:1032E0008013D3609EE70121201DFFF79FFC00287B
:1032F00098D0074696E7D36843F48013D360A5E7D8
:103300000121201DFFF792FC00289FD007469DE772
:103310000221201DFFF78AFC0028ABD00746A9E751
:10332000022104F12000FFF739FD0028A2D0074652
:10333000A0E700BF0010024038B504460268D36819
:1033400023F0A003D360FDF735FE05462368DB6854
:1033500013F0200F07D1FDF72DFE401BB0F57A7F4B
:10336000F4D9032000E0002038BD38B50368DA68DE
:1033700012F0400F01D0002038BD04464FF0FF325C
:10338000DA60FDF717FE05462368DB6813F0400F8F
:1033900007D1FDF70FFE401BB0F57A7FF4D903206B
:1033A000EAE70020E8E738B5002864D0044690F842
:1033B0002130002B44D0022384F821302368CA2214
:1033C0005A62236853225A622046FFF7CEFF054611
:1033D00000283AD12268936823F4E00323F04003E5
:1033E000936021688A68636820690343A069034386
:1033F00013438B602368E2681A6122681369A1682D
:1034000043EA014313612268D36823F08003D36049
:1034100023689B6813F0200F20D02268D36C23F020
:103420000303D3642168CB6CE269606902431343F0
:10343000CB642368FF225A62012384F821300BE019
:1034400080F8203002F09EF9B5E72368FF225A6227
:10345000042384F821300125284638BD2046FFF793
:103460006BFF0028D9D02368FF225A62042384F816
:1034700021300125F0E70125EEE7002302E00133CA
:103480000A38C0B20928FAD81B01DBB218437047CA
:1034900070B590F82030012B6ED0012380F82030D9
:1034A000022380F821303AB94B7813F0100F03D083
:1034B00003F0EF030A334B700E460446002A34D162
:1034C000C878FFF7DAFF05047078FFF7D6FF45EA02
:1034D0000025B078FFF7D1FF2843357840EA45351D
:1034E0002368CA225A62236853225A622046FFF791
:1034F0003CFF064620BB236825F07F4525F0C0052C
:103500005D602268D36823F08003D36023689B68E2
:1035100013F0200F20D02368FF225A62012384F881
:103520002130002384F8203014E0CD784878000260
:1035300040EA05408D7828430D7840EA4535CFE7CD
:103540002368FF225A62042384F82130002384F880
:1035500020300126304670BD2046FFF7EDFE0028E2
:10356000D9D02368FF225A62042384F82130002333
:1035700084F820300126EDE70226EBE7F8B590F855
:103580002030012B7FD015460E460446012380F8DB
:103590002030022380F821300368CA225A6203686F
:1035A00053225A62FFF7E1FE074600283ED1002D64
:1035B00047D123689B6813F0400F01D10023F370BB
:1035C0003078FFF75AFF05047078FFF756FF45EA99
:1035D0000025B078FFF751FF2843F37840EA835085
:1035E000236800F07F3020F0FE4018602268936866
:1035F00023F48023936021688B68F268306902436A
:1036000013438B602268D36823F08003D360236860
:103610009B6813F0200F26D02368FF225A620123F3
:1036200084F82130002384F820302DE02368FF2225
:103630005A62042384F82130002384F820300127C3
:1036400022E023689B6813F0400F01D10023F37040
:1036500033787078000240EA0340B3781843F37877
:1036600040EA8350BCE72046FFF766FE0028D3D02F
:103670002368FF225A62042384F82130002384F84F
:103680002030012700E002273846F8BD030903EB8C
:1036900083035A0000F00F001044C0B2704770B5A9
:1036A00003689B6A4B6003681B69C3F30E038B605E
:1036B00003681B6803F07F3323F0FE43C3F3054028
:1036C0000870C3F306264E7003F07F058D709B0DC6
:1036D000CB705AB90C46FFF7D9FF20703046FFF780
:1036E000D5FF60702846FFF7D1FFA070002070BDA5
:1036F00070B503685B6823F07F4323F0C003180CA8
:10370000C870C3F304264E7003F03F058D70C3F3F9
:1037100042330B705AB90C46FFF7B8FFE0703046E1
:10372000FFF7B4FF60702846FFF7B0FFA0700020DD
:1037300070BD0000F8B590F82030012B72D015460E
:103740000E460446012380F82030022380F8213001
:103750000368CA225A62036853225A6203689B684C
:1037600013F4806F17D0FDF725FC07462368DB684C
:1037700013F0040F0FD0FDF71DFCC01BB0F57A7FCE
:10378000F4D92368FF225A62032084F82100002321
:1037900084F8203045E02268936823F480639360C6
:1037A0002268D368DBB263F49063D360FDF702FC58
:1037B00007462368D86810F0040F0FD1FDF7FAFB15
:1037C000C01BB0F57A7FF4D92368FF225A62032028
:1037D00084F82100002384F8203022E05E61236811
:1037E0009A6822F0070215439D600F4B5A6842F415
:1037F00080125A609A6842F480129A602268936834
:1038000043F4804393602268936843F48063936039
:103810002368FF225A62012384F82130002084F8B3
:103820002000F8BD0220FCE70004014038B590F804
:103830002030012B37D00446012380F820300223AA
:1038400080F821300368CA225A62036853225A6200
:103850000268936823F4806393600268936823F49A
:1038600080439360FDF7A6FB05462368DA6812F0F3
:10387000040F0FD1FDF79EFB401BB0F57A7FF4D902
:103880002368FF225A62032084F82100002384F871
:10389000203007E0FF225A62012384F82130002003
:1038A00084F8200038BD0220FCE7704710B50446BC
:1038B0000A4B4FF480125A610368DA6812F4806F81
:1038C00003D1012384F8213010BDDA68D2B262F44A
:1038D0009062DA60FFF7E9FFF3E700BF0004014000
:1038E000002853D010B504460023836290F85D3061
:1038F000002B40D0022384F85D302268136823F047
:1039000040031360E368B3F5E06F39D90022B3F5E3
:10391000706F04D0B3F5E06F01D00021A162216B7C
:1039200021B9B3F5E06F2ED9022323636368A16840
:103930000B4321690B4361690B43A16901F40071D9
:103940000B43E1690B43216A0B43A06A21680343DF
:103950000B60638B03F00403616A0B43616B0B43E1
:10396000E1680B43216813434B600020206601236C
:1039700084F85D3010BD80F85C3001F01DFFB9E7C0
:103980004FF48052C3E701232363CFE70120704740
:1039900010B4036A046A24F001040462846924F008
:1039A000F00444EA021223F00A030B43826103622B
:1039B0005DF8044B704710B4036A23F010030362F0
:1039C0008469036A24F4704444EA023223F0A003B9
:1039D00043EA0113826103625DF8044B7047836818
:1039E00023F07003194341F0070181607047000024
:1039F000022380F83D3002689168094B0B40062B8A
:103A000009D09168064B0B40B3F5803F03D0136893
:103A100043F001031360012380F83D30002070471C
:103A200007000100022380F83D300368196A41F263
:103A30001112114208D1196A40F24442114203D1D5
:103A40001A6822F001021A60012380F83D3000203C
:103A5000704700000368304A904212D0B0F1804FA6
:103A60000FD0A2F5943290420BD002F580629042C2
:103A700007D002F58062904203D002F59432904262
:103A800003D123F070034A681343234A90421ED0A7
:103A9000B0F1804F1BD0A2F59432904217D002F5BE
:103AA0008062904213D002F5806290420FD002F5FE
:103AB000943290420BD002F54062904207D002F55A
:103AC0008062904203D002F58062904203D123F4D9
:103AD0004073CA68134323F080034A6913430360A9
:103AE0008B68C3620B6883620B4B98420FD003F55F
:103AF000006398420BD003F54063984207D003F56A
:103B00008063984203D003F58063984201D10B692A
:103B10000363012343617047002C0140A8B110B535
:103B2000044690F83D305BB1022384F83D30211DFE
:103B30002068FFF78FFF012384F83D30002010BD7F
:103B400080F83C3001F06CFEEEE70120704710B4C5
:103B5000846824F47F4442EA03230B4323438360B5
:103B60005DF8044B7047000090F83C30012B73D097
:103B700010B50446012380F83C30022380F83D3024
:103B800002689068354B034093600B68402B59D016
:103B900010D9702B3CD01BD8502B49D0602B30D182
:103BA000CA6849682068FFF706FF60212068FFF7B0
:103BB00016FF26E0102B06D004D9202B03D0302B83
:103BC00001D01EE0EBB919462068FFF708FF18E0A6
:103BD000B3F5805F0ED0B3F5005F12D1CB684A68B1
:103BE00089682068FFF7B3FF2268936843F4804335
:103BF000936006E02268936823F4803323F0070380
:103C00009360012384F83D30002084F83C0010BD0F
:103C1000CB684A6889682068FFF799FF2268936833
:103C200023F4803323F0770343F077039360E8E7CE
:103C3000CA6849682068FFF7ABFE50212068FFF78B
:103C4000CEFEDEE7CA6849682068FFF7A1FE402182
:103C50002068FFF7C4FED4E7022070478800FEFF0B
:103C600090F83C30012B28D030B4012380F83C3050
:103C7000022380F83D30026853689568104CA242D8
:103C800003D004F50064A24203D123F470034C680E
:103C9000234323F070030C68234325F080048968D4
:103CA0002143536003689960012380F83D3000236D
:103CB00080F83C30184630BC70470220704700BF87
:103CC000002C01402DE9F048044601688368026930
:103CD000134342691343C26913430868A24A02406E
:103CE00013430B602268536823F44053E1680B438D
:103CF0005360A16922689D4B9A4201D0236A1943FF
:103D0000936823F430630B4393602368984A93428B
:103D100027D0984A934238D0974A93424ED0974A38
:103D2000934261D0964A934274D0904A934200F0F5
:103D30008A8010258D4A934200F0AA80E369B3F58A
:103D4000004F00F03581082D00F2BF81DFE815F04B
:103D50007F0195019F01BD01AA01BD01BD01BD010A
:103D6000B40102F55842D2F8882002F00302032A77
:103D700009D8DFE802F0020481060125DAE704250C
:103D8000D8E70825D6E71025D4E702F5E632D2F8C1
:103D9000882002F00C020C2A0ED8DFE802F0070D92
:103DA0000D0D090D0D0D6F0D0D0D0B000025C1E75B
:103DB0000425BFE70825BDE71025BBE702F5E4327F
:103DC000D2F8882002F03002102A09D005D9202A22
:103DD00056D0302A06D10825ACE71AB90025A9E744
:103DE0000425A7E71025A5E702F5E232D2F88820DE
:103DF00002F0C002402A09D005D9802A42D0C02A48
:103E000006D1082596E71AB9002593E7042591E71E
:103E100010258FE702F5E032D2F8882002F44072D4
:103E2000B2F5807F0BD007D9B2F5007F2CD0B2F568
:103E3000407F06D108257DE71AB900257AE70425D9
:103E400078E7102576E702F5C832D2F8882002F428
:103E50004062B2F5806F0BD007D9B2F5006F15D074
:103E6000B2F5406F06D1082564E71AB9002561E76D
:103E700004255FE710255DE702255BE7022559E78A
:103E8000022557E7022555E7022553E7022551E7AA
:103E9000082D00F21D81DFE815F00C001B01140055
:103EA0001B0111001B011B011B0109004FF4004005
:103EB00008E0FEF797FE28B90020D9E0FEF7CEFA19
:103EC000F9E73048626802EB4203834200F2028164
:103ED000B0EB023F00F20081082D66D8DFE805F064
:103EE00005652065306565655800FEF77BFE002599
:103EF000070E0602626850082B4616EB000B47F1CE
:103F0000000C58466146FCF71FFE03462846A3F501
:103F100040711D4A914200F2E1802268D360A7E01F
:103F2000560800252B46DFF864B04FF0000C1BEB61
:103F300006004CF10001FCF707FE03462846E6E7C1
:103F4000FEF78CFA0025070E0602626850082B4621
:103F500016EB000B47F1000C58466146FCF7F4FDE8
:103F600003462846D3E700BFF369FFEF0080004017
:103F7000003801400044004000480040004C004030
:103F8000005000400024F400FFFC0F00000024F467
:103F90005008002700252B4610F5000047F10001CE
:103FA000FCF7D2FD03462846B1E701200023AEE727
:103FB000082D49D8DFE805F0051E2948344848484F
:103FC0003F00FEF70FFE6268530803EB4003B3FBAC
:103FD000F2F39BB20020A3F110014FF6EF72914271
:103FE0007ED89AB222F00F02C3F342031343226831
:103FF000D3603DE0FEF708FE6268530803EB400320
:10400000B3FBF2F39BB20020E5E76268530803F1CB
:10401000F47303F59043B3FBF2F39BB20020DAE7AD
:10402000FEF71CFA6268530803EB4003B3FBF2F39C
:104030009BB20020CFE76268530803F58033B3FBDF
:10404000F2F39BB20020C6E701200023C3E7FEF78E
:10405000C9FD636800EB5302B2FBF3F292B2002099
:10406000A2F110014FF6EF7399423BD82368DA6052
:10407000002222666266BDE8F088FEF7C5FD63682F
:1040800000EB5302B2FBF3F292B20020E8E7636860
:104090005A0802F5740202F51052B2FBF3F292B222
:1040A0000020DDE7FEF7DAF9636800EB5302B2FBAC
:1040B000F3F292B20020D3E763685A0802F5004297
:1040C000B2FBF3F292B20020CAE701200022C7E758
:1040D0000120CDE70120CBE70120C9E70120C7E798
:1040E0000120C5E70120C3E7436A13F0010F06D0A2
:1040F0000268536823F40033816A0B435360436AB8
:1041000013F0020F06D00268536823F48033C16AAB
:104110000B435360436A13F0040F06D002685368E0
:1041200023F48023016B0B435360436A13F0080FA1
:1041300006D00268536823F40043416B0B4353607D
:10414000436A13F0100F06D00268936823F480537B
:10415000816B0B439360436A13F0200F06D0026813
:10416000936823F40053C16B0B439360436A13F0CD
:10417000400F0AD00268536823F48013016C0B438C
:104180005360036CB3F5801F0BD0436A13F0800FAC
:1041900006D00268536823F40023816C0B435360FC
:1041A00070470268536823F4C003416C0B435360AB
:1041B000EBE72DE9F04105460F4616469846069C6A
:1041C0002B68DB6937EA03030CBF01230023B342EA
:1041D0001DD1B4F1FF3FF3D02CB1FCF7EBFEA0EB07
:1041E0000800A042ECD92A68136823F4D073136046
:1041F0002A68936823F001039360202385F87130C7
:1042000085F87230002385F87030032000E000202C
:10421000BDE8F0812DE9F04182B01E4690F8713082
:10422000DBB2202B4ED104460D46904600294ED0DD
:10423000002A4ED090F87030012B4CD0012380F82A
:10424000703000234367212380F87130FCF7B2FE01
:104250000746A4F85080A4F8528009E023682A7821
:104260001A850135B4F85230013B9BB2A4F85230A4
:10427000B4F852309BB2ABB100963B46002280218D
:104280002046FFF796FF40BBA368B3F5805FE5D1FA
:104290002369002BE2D1226835F8023BC3F30803FF
:1042A0001385DFE700963B46002240212046FFF7BA
:1042B00080FF034698B9202284F87120002284F8F8
:1042C000702000E00223184602B0BDE8F08101230F
:1042D000F9E70123F7E70223F5E70323F3E70323D5
:1042E000F1E730B583B0044600234367FCF762FE74
:1042F000054623681B6813F0080F0ED123681B685E
:1043000013F0040F17D1202384F8713084F8723031
:10431000002084F8700003B030BD6FF07E4300933E
:10432000034600224FF400112046FFF742FF002809
:10433000E4D00320EFE76FF07E4300932B4600228A
:104340004FF480012046FFF734FF0028DBD0032024
:10435000E1E778B310B5044690F871300BB324232D
:1043600084F871302268136823F00103136020463B
:10437000FFF7A8FC012813D0636ABBB92268536811
:1043800023F4904353602268936823F02A039360D8
:104390002268136843F0010313602046FFF7A1FF72
:1043A00010BD80F8703001F04FFAD8E72046FFF7D3
:1043B0009BFEE3E701207047F0B58BB00024059425
:1043C0000694079408940994424BDA6C42F0040274
:1043D000DA64DA6C02F004020092009ADA6C42F0BD
:1043E0008002DA64DA6C02F080020192019ADA6CDF
:1043F00042F00102DA64DA6C02F001020292029ADF
:10440000DA6C42F00202DA64DA6C02F00202039221
:10441000039ADA6C42F00802DA64DB6C03F00803FA
:104420000493049B2C4F224640F231313846FDF76D
:104430004DF922460C214FF09040FDF747F9274DEA
:10444000224646F203412846FDF740F940F2313357
:104450000593012606960794089405A93846FDF7AA
:104460004BF8032305931E4B0693079405A94FF0C1
:104470009040FDF741F80C230593069607940894A5
:1044800005A94FF09040FDF737F846F20343059336
:1044900006960794089405A92846FDF72DF84FF4D1
:1044A000006305930694079405A92846FDF724F8B0
:1044B000224621460620FCF7D5FE0620FCF706FF23
:1044C000224621460720FCF7CDFE0720FCF7FEFE22
:1044D0000BB0F0BD00100240000800480004004886
:1044E0000000111038B50D4C0D4B23600D4B63606F
:1044F0000025A5600123E36025616561A561E56193
:1045000025622046FDF7A6FA29462046FDF724FE3F
:1045100029462046FDF74EFE38BD00BFF4020020BC
:1045200000540040EC9C901008B50948094B03600A
:104530004FF4E133436000238360C36003610C22C6
:1045400042618361C36103624362FFF702FF08BDFA
:10455000000400200038014008B50948094B0360F9
:104560004FF4E133436000238360C36003610C2296
:1045700042618361C36103624362FFF7EAFE08BDE3
:10458000740300200050004030B589B0002404942A
:104590000594069407940194029403940E4D4FF0F1
:1045A00080432B606C60AC604FF0FF33EB602C619C
:1045B000AC612846FFF7B2FA4FF48053049304A984
:1045C0002846FFF7D1FA0194039401A92846FFF782
:1045D00047FB09B030BD00BF0005002010B58AB010
:1045E0002422002101A801F06BFB0A4C0A4B236036
:1045F0002046FCF78DFE00220192029202230393D3
:1046000001230493059201A92046FCF7DAFE0AB0C3
:1046100010BD00BFE00200200074004008B509484A
:10462000094B0360402303618023C360002383613F
:104630004361C3618360436011230362FCF7E0FCC4
:1046400008BD00BF480300200002014030B587B01C
:1046500000240194029403940494059400941A4D48
:104660001A4B2B606C607F23AB60FF23EB602C61E7
:104670006C61AC61EC612846FEF795FE16238DF85F
:10468000043030238DF805308DF8064004940594ED
:10469000012201A92846FEF771FF07238DF800309B
:1046A00008238DF8013001228DF8022021238DF896
:1046B000033069462846FEF7EBFE042221462846D1
:1046C000FFF738F807B030BD78040020002800401C
:1046D00008B50E480E4B03604FF48273436000230D
:1046E00083604FF4E062C260036143614FF4802253
:1046F0008261C3610362436283620722C262036311
:1047000008234363FFF7ECF808BD00BF9C040020BA
:10471000003001402DE9F04184B08046214E6427ED
:10472000029701240194204D009523463122EC216B
:104730003046FDF73BFC029701942B19009323466A
:104740003222EC213046FDF731FC02970194AB1C7C
:10475000009323463322EC213046FDF727FC0297D5
:104760000194EB1C009323463422EC213046FDF7E4
:104770001DFC029701940435009523463522EC2157
:104780003046FDF713FC88F80040022388F801301A
:10479000032388F80230042388F8033004B0BDE80E
:1047A000F08100BFF40200201C020020F0B585B0AB
:1047B000584E6427029701240194574D6B1D0093B6
:1047C00023463622EC213046FDF7F0FB0297019498
:1047D000AB1D009323463722EC213046FDF7E6FB64
:1047E00002970194EB1D009323463822EC213046BA
:1047F000FDF7DCFB0297019405F1080300932346C3
:104800003922EC213046FDF7D1FB0297019405F1E6
:104810000903009323463A22EC213046FDF7C6FBFC
:104820000297019405F10A03009323463B22EC21F1
:104830003046FDF7BBFB0297019405F10B03009393
:1048400023463C22EC213046FDF7B0FB0297019451
:1048500005F10C03009323463D22EC213046FDF781
:10486000A5FB0297019405F10D03009323463E2218
:10487000EC213046FDF79AFB0297019405F10E03F7
:10488000009323463F22EC213046FDF78FFB029731
:10489000019405F10F03009323464022EC2130469A
:1048A000FDF784FB0297019405F110030093234662
:1048B0004122EC213046FDF779FB0297019405F186
:1048C0001103009323464222EC213046FDF76EFB94
:1048D0000297019405F11203009323464322EC2131
:1048E0003046FDF763FB0297019405F11303009333
:1048F00023464422EC213046FDF758FB02970194F1
:104900001435009523464522EC213046FDF74EFB39
:1049100005B0F0BDF40200201C02002000B587B0F5
:1049200006AA2D2302F8013D64230293012301937B
:1049300000921C22EC210348FDF766FA07B05DF8EF
:1049400004FB00BFF4020020064B59781A7842EAB3
:104950000122DA82D9789A7842EA01221A831A79F6
:104960005A8370471C020020134B99795A7942EA06
:1049700001229A83197ADA7942EA0122DA835A7A91
:104980001A849A7A5A84197BDA7A42EA01229A8442
:10499000997B5A7B42EA0122DA84DA7B1A851A7CF7
:1049A0005A85997C5A7C42EA01229A85DA7CDA851A
:1049B0001A7D1A86704700BF1C020020124BB3F903
:1049C000162007EE902AF8EEE77A9FED107A67EE50
:1049D000877AC3ED0D7AB3F9182007EE902AF8EE26
:1049E000E77A9FED0B7A67EE877AC3ED0E7AB3F91B
:1049F0001A2007EE902AF8EEE77A9FED067A67EE26
:104A0000877AC3ED0F7A70471C02002000008043B4
:104A1000000080300000802710B54A4CB4F91C001B
:104A200007EE900AF8EEE77A17EE900AFBF734FDEE
:104A30000022454BFBF7D0FB0022444BFBF784FDE3
:104A4000FCF732F82064E08B07EE900AF8EE677A04
:104A500017EE900AFBF720FD00223B4BFBF7BCFB57
:104A600000223B4BFBF770FDFCF71EF86064B4F9C5
:104A7000203007EE903AF8EEE77A9FED367A67EE4F
:104A8000877AC4ED127AB4F9223007EE903AF8EE44
:104A9000E77A9FED317A67EE877AC4ED137AB4F93D
:104AA000243007EE903AF8EEE77AB2EE007A67EE3D
:104AB000877AC4ED147AB4F9263007EE903AF8EE0E
:104AC000E77A9FED267A67EE877AC4ED157AB4F916
:104AD000283007EE903AF8EEE77A9FED217A67EEFC
:104AE000877AC4ED167AB4F92A3007EE903AF8EED8
:104AF000E77A9FED1C7A67EE877AC4ED177AB4F9EE
:104B00002C3007EE103AB8EEC77ADFED176A27EEC1
:104B1000267A84ED187AB4F92E3007EE903AF8EE42
:104B2000E77A67EEA67AC4ED197AB4F9303007EE69
:104B3000903AF8EEE77A9FED0D7A67EE877AC4ED4A
:104B40001A7A10BD1C0200200000D0400000B03EC8
:104B50000000203E0000802F0000002D0000803C5F
:104B60000000803B00000038000080270000001F8C
:104B7000F0B585B04A4E6427029701250195494C4E
:104B800004F1840300932B460422EC213046FDF708
:104B90000DFA0297019504F1850300932B46052237
:104BA000EC213046FDF702FA0297019504F18603E5
:104BB00000932B460622EC213046FDF7F7F994F8D6
:104BC00086201204384B1A6094F885100902374B7E
:104BD000196094F88430364803600A431343C4F8DC
:104BE000883007EE903AB8EE677A84ED237AD4EDF8
:104BF000207AD4ED156A67EEA66A27EEA75A94EDDF
:104C0000160A25EE000A27EE856AD4ED175A66EEDD
:104C1000255AD4ED144A76EEA46A30EE260A75EED3
:104C2000805AC4ED245AD4ED114A67EEA44AD4ED5B
:104C3000126A65EE266A94ED130A26EE006A94ED78
:104C4000105A34EE855A76EE856A76EE266A67EE5D
:104C5000266AC4ED256A27EE076A84ED1E6A94ED84
:104C6000190A27EE800AD4ED187A30EE270A84ED6F
:104C70001F0A26EE000A84ED260A27EE067AD4EDF6
:104C80001A7A27EE277A30EE070A84ED270A75EEA6
:104C9000A66A30EE260A84ED280A05B0F0BD00BFF2
:104CA000F40200201C0200204005002048050020DE
:104CB0004003002010B50446FFF72CFDFFF72EFE41
:104CC000FFF774FD2046FFF73FFEFFF74DFEFFF7AD
:104CD00075FEFFF7A1FE10BDF0B587B00024039468
:104CE000049405940227019701260296124D01A90A
:104CF0002846FCF701FC324639462846FCF7E6FC1C
:104D000001960294039401A92846FCF7F5FB2023A1
:104D100001930294039405F5806501A92846FCF7E8
:104D2000EBFB102301930294039401A92846FCF79E
:104D3000E3FB07B0F0BD00BF0004004870B586B0CB
:104D4000002403940494059402260196134B0293C5
:104D5000134D01A92846FCF7CFFB3046FCF7C0FCF9
:104D6000224621460720FCF77DFA0720FCF7AEFA21
:104D70000126019602960394049401A92846FCF7A3
:104D8000BBFB224631462846FCF7A0FC05480368D9
:104D90005C62FEF72DFE06B070BD00BF0000211062
:104DA000000400480005002070B586B0002403947C
:104DB0000494059402250195134B029301A913480D
:104DC000FCF79AFB2846FCF78BFC2246214607207D
:104DD000FCF748FA0720FCF779FA20230193012613
:104DE0000296039404940A4D01A92846FCF784FB1B
:104DF000224631462846FCF769FC064803685C6297
:104E0000FEF7F6FD06B070BD00002110000400485A
:104E1000000800480005002070B586B00024039407
:104E20000494059402250195134B029301A913489C
:104E3000FCF762FB2846FCF753FC2246214607207C
:104E4000FCF710FA0720FCF741FA10230193012622
:104E50000296039404940A4D01A92846FCF74CFBE2
:104E6000224631462846FCF731FC064803685C625E
:104E7000FEF7BEFD06B070BD000021100004004822
:104E8000000800480005002070B586B00024029498
:104E900003940494059406AD022345F8143D104E86
:104EA00029463046FCF728FB012301930294039422
:104EB00029463046FCF720FB2023019302940394FB
:104EC00006F5806629463046FCF716FB1023019351
:104ED0000294039429463046FCF70EFB06B070BDE1
:104EE000000400480000000038B52DED048B0025BB
:104EF0009FED538AB0EE489AF0EE488A31E0FFF712
:104F0000EBFE0120FCF75CF8FFF718FF0120FCF72F
:104F100057F84C4CD4ED297AF8EE677A78EEA78AE8
:104F2000FFF7DAFE0120FCF74BF8FFF73DFF012009
:104F3000FCF746F8D4ED297AF8EE677A39EE279A2D
:104F4000FFF7CAFE0120FCF73BF8FFF765FF0120E1
:104F5000FCF736F8D4ED297AF8EE677A38EE278A2E
:104F600001353F2DCBDDFFF78FFFDFED377A28EEE0
:104F7000A77A29EE279A68EE277A37EE497A77EEF4
:104F8000C97AC7EE277A17EE900AFBF785FA20A3B5
:104F9000D3E90023FBF7D8FA1FA3D3E90023FBF7DB
:104FA0001DF9FBF781FD9FED297A07EE900AC7EE08
:104FB000877AB7EE007A77EE677A17EE900AFBF7FA
:104FC0006BFA17A3D3E90023FBF7BEFA16A3D3E9C4
:104FD0000023FBF703F9FBF767FDFBF75DFA41ECF4
:104FE000100B00F01BFD53EC102B11A1D1E90001B7
:104FF000FBF7F2F810A3D3E90023FBF7CFFBFBF795
:1050000053FD104B186700EE100ABDEC048B38BD41
:1050100084EB51B81E3D78400000000000728D40C6
:1050200088CE19EEAF60C33EAB2864434C04F03E1B
:105030001C64ED4A2602703F88CE19EEAF60B33E85
:10504000000000001C0200200000803C00007A44A8
:1050500070B50F4E336800255D620E4C01224FF48F
:1050600080612046FCF732FB3046FEF7C1FC012090
:10507000FBF7A6FF2A464FF480612046FCF726FB8B
:105080000120FBF79DFF044BD3F8A43070BD00BF97
:1050900000050020000400481C02002010B5082173
:1050A0004FF09040FCF717FB044C2046FEF7BAFC8B
:1050B00023685A6A024BC3F8A42010BD00050020E3
:1050C0001C02002030B585B006238DF80F30002378
:1050D0008DF80E308DF80D308DF80C30264C64258F
:1050E000009501230DF10E0219212046FCF7CEFD9B
:1050F000009501230DF10F0270212046FCF708FDF9
:105100000095012303AA71212046FCF7BFFD0095FD
:1051100001230DF10D0273212046FCF7B7FD9DF828
:105120000D209DF80C3043EA0223B3F50C7F17D90C
:10513000A3F2312292B2B2F50C7F14D3A3F26142F2
:1051400092B2B2F5BB7F10D3A3F2D75292B2B2F5AE
:105150000C7F0CD340F6060293420AD8002000E0F0
:10516000002005B030BD0120FBE70220F9E7032055
:10517000F7E70420F5E700BFF402002030B585B062
:1051800021238DF80F3000238DF80C308DF80D3071
:105190000C4C6425009501230DF10F02B821204627
:1051A000FCF7B6FC0095022303AAB9212046FCF7C0
:1051B0006DFD9DF80C009DF80D3043EA002005B010
:1051C00030BD00BFF402002010B5012804D0022831
:1051D00008D0042810D010BD04214FF09040FCF7F7
:1051E0007AFAF8E7104C2046FEF71CFC23685A6A4E
:1051F0000E4BC3F8A420EEE70B4C2046FEF712FC42
:1052000023685A6A094BC3F8A420D3F8A420084C99
:105210000849204601F0B8F96423142221460648C3
:10522000FEF7F8FFD7E700BF000500201C020020B2
:1052300000000020E87D000874030020000000004A
:1052400038B52DED028B0024254600E001341F2CDB
:1052500008DCFFF7FDFE1F2CF8D03D4BD3F8A4303F
:105260001D44F3E707EE905AF8EE677A9FED397A1E
:1052700067EE877AFCEEE77A17EE900AFBF7EAF81A
:105280002BA3D3E90023FBF75FF92BA3D3E900237A
:10529000FAF7A2FFFBF708FCDFED2F7A07EE100A02
:1052A00087EE278A18EE100AFBF7F6F804460D463B
:1052B00023A3D3E90023FBF747F902460B46204618
:1052C0002946FBF741F902460B4620462946FBF7E3
:1052D0003BF904460D46DFED217A68EE277A68EE49
:1052E000277A17EE900AFBF7D7F802460B462046BE
:1052F0002946FAF773FF04460D46DFED197A68EE8A
:10530000277A17EE900AFBF7C7F802460B462046AD
:105310002946FAF761FF0CA3D3E90023FAF75EFFF1
:10532000FBF7C2FB00EE100ABDEC028B38BD00BFDC
:10533000ACADD85F764F7E3F2B8716D9CEB72940CC
:10534000333333333313ABC0CDCCCCCCCC5BA9409F
:105350001C0200200000003D0000344300B027463E
:105360000064234630B5B9B04422002127A800F0DC
:10537000A7FC002422942394249425942694882224
:105380002146684600F09CFCFCF740FF1B4AD2F81F
:10539000903023F01803C2F890300623279301229F
:1053A00029924FF480752A9510232B930223319371
:1053B000329333920A2234920722359236933793EE
:1053C00027A8FDF7B7F80F232293032323932494F0
:1053D00025942694042122A8FDF754FB084B009342
:1053E0000E941294149421956846FDF77DFD4FF4B8
:1053F0000070FCF729FF39B030BD00BF001002403B
:105400005100020010B50B4C002242F210712046F0
:10541000FEF790F9FBF7E4FD02214FF48040FCF722
:10542000FDFEFBF7E5FD2046FEF700FAFFF79AFFC9
:1054300010BD00BF78040020F0B52DED028B99B0AF
:10544000FBF7A0FDFFF78EFFFEF7B6FFFFF74AF868
:10545000FFF76AF8FFF780F8FFF796F8FFF7BEF856
:10546000FFF7DCF8FFF7F2F8FFF732F916A8FFF7BD
:1054700021FC4FF4FA60FBF7A3FD5F4C00212046AE
:10548000FBF758FF40F68C03002211462046FBF73D
:1054900081FF5A4B11AC0FCB07C424F8023B1B0C05
:1054A00023700023CDF853308DF857305448FBF764
:1054B0006FFE544C544F002221463846FEF718F92F
:1054C00022786378E1780091504902A801F05CF8F5
:1054D0004F4C6423C2B202A92046FEF79BFE4D4DFD
:1054E000002229463846FEF7DAF82A786B78A97840
:1054F0000091494902A801F047F86423C2B202A909
:105500002046FEF787FEFFF7EFFC9FED448A60EE32
:10551000087A17EE900AFAF7BFFF02460B46404999
:1055200011A801F031F86423142211A92046FEF7D6
:1055300071FE3C4E3C4BC6F88030FFF719FBDFEDA7
:105540003B7A20EE270A86ED200A60EE087A17EEF5
:10555000900AFAF7A1FF02460B46354911A801F05F
:1055600013F86423142211A92046FEF753FEFFF717
:1055700067FE60EE087A17EE900AFAF78DFF024692
:105580000B462C4911A800F0FFFF6423142211A937
:105590002046FEF73FFEFFF795FD274E02462749BE
:1055A000304600F0F1FF6423142231462046FEF716
:1055B00031FEFFF7E3FD02462149304600F0E4FFEB
:1055C0006423142231462046FEF724FE0022294699
:1055D0003846FEF764F82A786B78A9780091194963
:1055E00002A800F0D1FF6423C2B202A92046FEF750
:1055F00011FEFFF707FF5CE7E0020020807D000856
:10560000480300204405002078040020F87D0008AD
:1056100074030020EC030020107E00080000C84244
:105620002C7E00081C0200200000C8410000003C45
:10563000387E0008447E000800000020507E0008EC
:10564000607E0008687E000800B583B00E4B1A6EBD
:1056500042F001021A661A6E02F001020092009AEC
:105660009A6D42F080529A659B6D03F080530193CE
:10567000019B002211460120FBF7F4FD0120FBF7FE
:1056800025FE03B05DF804FB0010024000B587B0B2
:10569000002301930293039304930593026803F19B
:1056A000804303F581339A4202D007B05DF804FBD2
:1056B00003F58733DA6C42F00202DA64DB6C03F044
:1056C00002030093009B042301930323029301A987
:1056D0000548FBF711FF002211464020FBF7C2FDF1
:1056E0004020FBF7F3FDE0E7000400480268094BA7
:1056F0009A4200D0704782B003F5CE339A6D42F0E3
:1057000000529A659B6D03F000530193019B02B018
:10571000704700BF0074004010B588B000230393A9
:1057200004930593069307930268134B9A4201D0A2
:1057300008B010BD114CE36C43F00203E364E36C6A
:1057400003F002030193019BC023039312230493EC
:1057500001230593032306930423079303A9084811
:10576000FBF7CAFEA36D43F40013A365A36D03F416
:1057700000130293029BDBE700540040001002403C
:105780000004004808B50268094B9A4200D008BDE1
:10579000084AD2F8903043F40043C2F89030002217
:1057A00011460320FBF75EFD0320FBF78FFDEEE7BC
:1057B000002800400010024000B589B00023039388
:1057C00004930593069307930268144B9A4202D000
:1057D00009B05DF804FB03F560431A6E42F4805291
:1057E0001A661A6E02F480520192019ADA6C42F043
:1057F0000102DA64DB6C03F001030293029BF023E5
:10580000039302230493032306930523079303A919
:105810004FF09040FBF770FEDAE700BF0030014028
:105820000368B3F1804F00D0704782B003F50433B2
:105830009A6D42F001029A659B6D03F0010301939A
:10584000019B02B07047000070B58AB00023059339
:10585000069307930893099303682F4A934204D051
:105860002E4A934236D00AB070BD2D4B9A6D42F449
:1058700080129A659A6D02F480120092009ADA6C96
:1058800042F00402DA64DA6C02F004020192019A36
:10589000DA6C42F00802DA64DB6C03F0080302936E
:1058A000029B4FF480530593022606960325089524
:1058B0000824099405A91B48FBF71EFE0423059341
:1058C0000696002307930895099405A91648FBF747
:1058D00013FEC8E7124B1A6E42F480421A661A6E23
:1058E00002F480420392039ADA6C42F00102DA6415
:1058F000DB6C03F001030493049B4FF4C063059336
:1059000002230693032308930723099305A94FF065
:105910009040FBF7F1FDA6E7005000400038014041
:105920000010024000080048000C00487047FEE7E5
:10593000FEE7FEE7FEE770477047704708B5FBF7E4
:1059400031FB08BD08B5FCF705FD08BD08B50248E8
:10595000FDF7ACFF08BD00BF7804002008B50120AA
:10596000FBF7BEFE08BD08B50220FBF7B9FE08BD77
:1059700008B50248FBF73EFC08BD00BF4803002005
:105980000F49D1F8883043F47003C1F888300D4BCB
:105990001A6842F001021A60002098601A6822F02A
:1059A000A85222F410221A604FF48052DA601A686A
:1059B00022F480221A6098614FF000638B60704778
:1059C00000ED00E000100240DFF834D0002103E0D9
:1059D0000C4B5B58435004310B480C4B42189A4215
:1059E000F6D30B4A02E0002342F8043B094B9A42EB
:1059F000F9D3FFF7C5FF00F03FF9FFF71DFDFEE704
:105A00000080012008810008000000200002002022
:105A10000002002050050020FEE700002DE9F043C1
:105A20002DED028B8BB055EC104B00F053F8274B4B
:105A3000B0EE408AF0EE608A93F90060731C12D0D9
:105A400022462B4620462946FBF718F8074650B950
:105A50004FF000084FF000092046294642464B46C9
:105A6000FAF7E4FF40B9B0EE480AF0EE680A0BB06E
:105A7000BDEC028BBDE8F0830122154B0897009224
:105A8000CDE90445CDE90245019396B142464B4626
:105A900040464946FAF782FE022ECDE906010AD1B8
:105AA00000F0E4F821230360089B53B99DED068BB9
:105AB000D9E7CDE90689684600F0D6F80028F3D189
:105AC000EEE700F0D3F8089B0360EFE72C0000201E
:105AD000887E00082DE9F041624A57EC106BBA430A
