:020000040800F2
:1000000000800120853A0008093A00080B3A0008F0
:100010000D3A00080F3A0008113A000800000000ED
:10002000000000000000000000000000133A00087B
:10003000153A000800000000173A0008193A0008B5
:10004000D53A0008D53A0008D53A0008D53A000854
:10005000D53A0008D53A0008213A0008D53A0008F8
:10006000D53A0008D53A0008D53A0008D53A000834
:10007000D53A0008D53A0008D53A0008D53A000824
:10008000D53A0008D53A0008D53A0008D53A000814
:10009000D53A0008D53A0008D53A0008D53A000804
:1000A000D53A0008D53A0008D53A0008D53A0008F4
:1000B000D53A0008D53A0008D53A0008D53A0008E4
:1000C000D53A0008D53A0008D53A0008D53A0008D4
:1000D000D53A0008D53A0008D53A0008D53A0008C4
:1000E000D53A0008D53A0008D53A0008D53A0008B4
:1000F000D53A0008D53A0008D53A0008D53A0008A4
:10010000D53A0008D53A0008D53A0008D53A000893
:10011000D53A0008D53A0008D53A0008D53A000883
:10012000D53A0008D53A0008D53A0008D53A000873
:10013000D53A0008D53A0008D53A0008D53A000863
:100140002D3A0008D53A0008D53A0008D53A0008FB
:10015000D53A0008D53A0008D53A0008D53A000843
:10016000D53A0008D53A0008D53A0008D53A000833
:10017000D53A0008D53A0008000000000000000051
:08018000D53A0008D53A000849
:1001900010B5054C237833B9044B13B10448AFF3C1
:1001A00000800123237010BDE80100200000000042
:1001B000C45B000808B5034B1BB103490348AFF308
:1001C000008008BD00000000EC010020C45B0008B6
:1001D00081F0004102E000BF83F0004330B54FEAF8
:1001E00041044FEA430594EA050F08BF90EA020F65
:1001F0001FBF54EA000C55EA020C7FEA645C7FEAF8
:10020000655C00F0E2804FEA5454D4EB5555B8BF1A
:100210006D420CDD2C4480EA020281EA030382EA8B
:10022000000083EA010180EA020281EA0303362D1D
:1002300088BF30BD11F0004F4FEA01314FF4801CF0
:100240004CEA113102D0404261EB410113F0004F02
:100250004FEA03334CEA133302D0524263EB4303B9
:1002600094EA050F00F0A780A4F10104D5F1200E57
:100270000DDB02FA0EFC22FA05F2801841F10001B2
:1002800003FA0EF2801843FA05F359410EE0A5F186
:1002900020050EF1200E012A03FA0EFC28BF4CF0B7
:1002A000020C43FA05F3C01851EBE37101F000456D
:1002B00007D54FF0000EDCF1000C7EEB00006EEB7A
:1002C0000101B1F5801F1BD3B1F5001F0CD3490804
:1002D0005FEA30004FEA3C0C04F101044FEA44525B
:1002E00012F5800F80F09A80BCF1004F08BF5FEAE2
:1002F000500C50F1000041EB045141EA050130BDC2
:100300005FEA4C0C404141EB010111F4801FA4F164
:100310000104E9D191F0000F04BF01460020B1FAB9
:1003200081F308BF2033A3F10B03B3F120020CDAF1
:100330000C3208DD02F1140CC2F10C0201FA0CF0CF
:1003400021FA02F10CE002F11402D8BFC2F1200C34
:1003500001FA02F120FA0CFCDCBF41EA0C019040EA
:10036000E41AA2BF01EB0451294330BD6FEA040433
:100370001F3C1CDA0C340EDC04F11404C4F120021E
:1003800020FA04F001FA02F340EA030021FA04F330
:1003900045EA030130BDC4F10C04C4F1200220FA87
:1003A00002F001FA04F340EA0300294630BD21FAC5
:1003B00004F0294630BD94F0000F83F4801306BF8B
:1003C00081F480110134013D4EE77FEA645C18BF7F
:1003D0007FEA655C29D094EA050F08BF90EA020F16
:1003E00005D054EA000C04BF1946104630BD91EA0E
:1003F000030F1EBF0021002030BD5FEA545C05D111
:100400004000494128BF41F0004130BD14F580044F
:100410003CBF01F5801130BD01F0004545F0FE41C3
:1004200041F470014FF0000030BD7FEA645C1ABFF8
:10043000194610467FEA655C1CBF0B46024650EA2F
:10044000013406BF52EA033591EA030F41F400215B
:1004500030BD00BF90F0000F04BF0021704730B5E1
:100460004FF4806404F132044FF000054FF00001B6
:1004700050E700BF90F0000F04BF0021704730B577
:100480004FF4806404F1320410F0004548BF40424C
:100490004FF000013EE700BF42004FEAE2014FEAA1
:1004A00031014FEA02701FBF12F07F4393F07F4F7C
:1004B00081F06051704732F07F4208BF704793F07F
:1004C0007F4F04BF41F40021704730B54FF4607492
:1004D00001F0004521F000411CE700BF50EA010295
:1004E00008BF704730B54FF000050AE050EA01023E
:1004F00008BF704730B511F0004502D5404261EBAE
:1005000041014FF4806404F132045FEA915C3FF4EE
:10051000D8AE4FF003025FEADC0C18BF03325FEA8B
:10052000DC0C18BF033202EBDC02C2F1200300FA3C
:1005300003FC20FA02F001FA03FE40EA0E0021FA61
:1005400002F11444BDE600BF70B54FF0FF0C4CF44F
:10055000E06C1CEA11541DBF1CEA135594EA0C0F01
:1005600095EA0C0F00F0DEF82C4481EA030621EA3C
:100570004C5123EA4C5350EA013518BF52EA033577
:1005800041F4801143F4801338D0A0FB02CE4FF029
:100590000005E1FB02E506F00042E0FB03E54FF059
:1005A0000006E1FB03569CF0000F18BF4EF0010E51
:1005B000A4F1FF04B6F5007F64F5407404D25FEA4D
:1005C0004E0E6D4146EB060642EAC62141EA555100
:1005D0004FEAC52040EA5E504FEACE2EB4F1FD0C42
:1005E00088BFBCF5E06F1ED8BEF1004F08BF5FEAC0
:1005F000500E50F1000041EB045170BD06F0004672
:1006000046EA010140EA020081EA0301B4EB5C041E
:10061000C2BFD4EB0C0541EA045170BD41F4801116
:100620004FF0000E013C00F3AB8014F1360FDEBF3B
:10063000002001F0004170BDC4F10004203C35DA17
:100640000C341BDC04F11404C4F1200500FA05F39A
:1006500020FA04F001FA05F240EA020001F000423B
:1006600021F0004110EBD37021FA04F642EB0601B1
:100670005EEA430E08BF20EAD37070BDC4F10C04DB
:10068000C4F1200500FA04F320FA05F001FA04F29F
:1006900040EA020001F0004110EBD37041F100018B
:1006A0005EEA430E08BF20EAD37070BDC4F1200596
:1006B00000FA05F24EEA020E20FA04F301FA05F2FE
:1006C00043EA020321FA04F001F0004121FA04F2A6
:1006D00020EA020000EBD3705EEA430E08BF20EA76
:1006E000D37070BD94F0000F0FD101F000464000B0
:1006F00041EB010111F4801F08BF013CF7D041EA32
:10070000060195F0000F18BF704703F00046520035
:1007100043EB030313F4801F08BF013DF7D043EA06
:100720000603704794EA0C0F0CEA135518BF95EABC
:100730000C0F0CD050EA410618BF52EA4306D1D143
:1007400081EA030101F000414FF0000070BD50EA62
:10075000410606BF1046194652EA430619D094EAEC
:100760000C0F02D150EA013613D195EA0C0F05D1D6
:1007700052EA03361CBF104619460AD181EA03012A
:1007800001F0004141F0FE4141F470014FF00000E2
:1007900070BD41F0FE4141F4780170BD70B54FF07D
:1007A000FF0C4CF4E06C1CEA11541DBF1CEA1355FD
:1007B00094EA0C0F95EA0C0F00F0A7F8A4EB0504DF
:1007C00081EA030E52EA03354FEA013100F08880D6
:1007D0004FEA03334FF0805545EA131343EA12639F
:1007E0004FEA022245EA111545EA10654FEA002654
:1007F0000EF000419D4208BF964244F1FD0404F50D
:10080000407402D25B084FEA3202B61A65EB030568
:100810005B084FEA32024FF480104FF4002CB6EB25
:10082000020E75EB030E22BFB61A754640EA0C00A5
:100830005B084FEA3202B6EB020E75EB030E22BFE5
:10084000B61A754640EA5C005B084FEA3202B6EB26
:10085000020E75EB030E22BFB61A754640EA9C00E5
:100860005B084FEA3202B6EB020E75EB030E22BFB5
:10087000B61A754640EADC0055EA060E18D04FEA73
:10088000051545EA16754FEA06164FEAC30343EA13
:1008900052734FEAC2025FEA1C1CC0D111F4801FE0
:1008A0000BD141EA00014FF000004FF0004CB6E7D9
:1008B00011F4801F04BF01430020B4F1FD0C88BF78
:1008C000BCF5E06F3FF6AFAEB5EB030C04BFB6EB83
:1008D000020C5FEA500C50F1000041EB045170BD76
:1008E0000EF0004E4EEA113114EB5C04C2BFD4EBA3
:1008F0000C0541EA045170BD41F480114FF0000E27
:10090000013C90E645EA060E8DE60CEA135594EAA2
:100910000C0F08BF95EA0C0F3FF43BAF94EA0C0FA5
:100920000AD150EA01347FF434AF95EA0C0F7FF41A
:1009300025AF104619462CE795EA0C0F06D152EA6E
:1009400003353FF4FDAE1046194622E750EA410652
:1009500018BF52EA43067FF4C5AE50EA41047FF463
:100960000DAF52EA43057FF4EBAE12E74FF0FF3CC8
:1009700006E000BF4FF0010C02E000BF4FF0010C99
:100980004DF804CD4FEA410C7FEA6C5C4FEA430C12
:1009900018BF7FEA6C5C1BD001B050EA410C0CBF61
:1009A00052EA430C91EA030F02BF90EA020F0020C3
:1009B000704710F1000F91EA030F58BF994208BF2A
:1009C00090422CBFD8176FEAE37040F001007047E7
:1009D0004FEA410C7FEA6C5C02D150EA013C07D13E
:1009E0004FEA430C7FEA6C5CD6D152EA033CD3D089
:1009F0005DF8040B704700BF8446104662468C4683
:100A00001946634600E000BF01B5FFF7B7FF0028B5
:100A100048BF10F1000F01BD4DF808EDFFF7F4FFDE
:100A20000CBF012000205DF808FB00BF4DF808ED69
:100A3000FFF7EAFF34BF012000205DF808FB00BF8C
:100A40004DF808EDFFF7E0FF94BF012000205DF8AE
:100A500008FB00BF4DF808EDFFF7CEFF94BF012063
:100A600000205DF808FB00BF4DF808EDFFF7C4FF5C
:100A700034BF012000205DF808FB00BF4FEA410CA5
:100A80007FEA6C5C02D150EA013C0AD14FEA430C88
:100A90007FEA6C5C02D152EA033C02D14FF00000C5
:100AA00070474FF0010070474FEA4102B2F1E04356
:100AB00024BFB3F5001CDCF1FE5C0DD901F0004C45
:100AC0004FEAC0024CEA5070B2F1004F40EB830095
:100AD00008BF20F00100704711F0804F21D113F1C1
:100AE0003872BCBF01F00040704741F480114FEAFA
:100AF0005252C2F11802C2F1200C10FA0CF320FA83
:100B000002F018BF40F001004FEAC1234FEAD3239F
:100B100003FA0CFC40EA0C0023FA02F34FEA430309
:100B2000CCE77FEA625307D150EA01331EBF4FF092
:100B3000FE4040F44000704701F0004040F0FE40AD
:100B400040F40000704700BF53B94AB9002908BFFC
:100B500000281CBF4FF0FF314FF0FF3000F072B99A
:100B6000ADF1080C6DE904CE00F006F8DDF804E004
:100B7000DDE9022304B070472DE9F047089E0446E2
:100B80008846002B4BD18A42154667D9B2FA82F2C9
:100B90004AB1C2F1200701FA02F320FA07F79540A3
:100BA00047EA030894404FEA154E230CB8FBFEF7C2
:100BB0001FFA85FC0EFB178843EA084307FB0CF17C
:100BC000994209D9EB1807F1FF3080F01B81994257
:100BD00040F21881023F2B445B1AA4B2B3FBFEF033
:100BE0000EFB103344EA034400FB0CFCA44509D976
:100BF0002C1900F1FF3380F00781A44540F20481F5
:100C000002382C4440EA0740A4EB0C0400271EB134
:100C1000D4400023C6E900433946BDE8F0878B4243
:100C200009D9002E00F0EB800027C6E90001384604
:100C30003946BDE8F087B3FA83F7002F47D18B42DE
:100C400002D3824200F2FA80841A61EB030301208E
:100C50009846002EE0D0C6E90048DDE702B9FFDE85
:100C6000B2FA82F2002A40F08F80491B4FEA154EFB
:100C70001FFA85F80127B1FBFEFC230C0EFB1C11AB
:100C800043EA014308FB0CF1994207D9EB180CF138
:100C9000FF3002D2994200F2CD808446591AA3B2A5
:100CA000B1FBFEF00EFB101443EA044408FB00F80D
:100CB000A04507D92C1900F1FF3302D2A04500F25C
:100CC000B6801846A4EB080440EA0C409FE7C7F141
:100CD000200CBB4022FA0CFE4EEA030E01FA07F488
:100CE00020FA0CF521FA0CF34FEA1E482543B3FB1A
:100CF000F8F92C0C08FB19331FFA8EFA44EA034367
:100D000009FB0AF49C4202FA07F200FA07F10BD938
:100D10001EEB030309F1FF3080F087809C4240F214
:100D20008480A9F1020973441B1BADB2B3FBF8F038
:100D300008FB103345EA034400FB0AFAA24508D930
:100D40001EEB040400F1FF336BD2A24569D90238CF
:100D5000744440EA0940A0FB0289A4EB0A044C4514
:100D6000C2464B4654D351D0002E69D0B1EB0A0590
:100D700064EB030404FA0CFCFD40FC404CEA05055E
:100D8000C6E90054002747E7C2F1200320FA03F721
:100D9000954001FA02F021FA03F34FEA154E384369
:100DA000010CB3FBFEF71FFA85F80EFB173341EA7F
:100DB000034107FB08F38B4204FA02F407D96918D0
:100DC00007F1FF3C2FD28B422DD9023F2944CB1A89
:100DD00081B2B3FBFEF00EFB103341EA034100FB8E
:100DE00008F38B4207D9691800F1FF3C17D28B42F8
:100DF00015D902382944C91A40EA07473BE7374664
:100E0000304609E70746E7E61846FBE64145ABD220
:100E1000B8EB020A69EB0E0201381346A4E76046FC
:100E2000E9E7184695E76746D1E781467CE702384F
:100E30002C4447E7ACF1020C2B442FE7384608E777
:100E40003746E9E6704700BF034613F8012B002A36
:100E5000FBD1181A013870470000000000000000A4
:100E600001F0FF01102A2BDB10F0070F08D010F85B
:100E7000013B013A8B422DD010F0070F42B3F6D15F
:100E8000F0B441EA012141EA014122F007047FF078
:100E900000070023F0E80256083C85EA010586EACF
:100EA000010685FA47F5A3FA87F586FA47F6A5FA0B
:100EB00087F68EB9EED1F0BC01F0FF0102F0070217
:100EC00032B110F8013B013A83EA010313B1F8D1C2
:100ED0000020704701387047002D06BF35460338A3
:100EE000073815F0010F07D1013015F4807F02BFDC
:100EF000013015F4C03F0130F0BC0138704700BF2D
:100F00004FEA410212F5001215D211D56FF4787331
:100F1000B3EB625212D94FEAC12343F0004343EAD4
:100F2000505311F0004F23FA02F018BF40427047AF
:100F30004FF00000704750EA013005D111F0004039
:100F400008BF6FF0004070474FF00000704700BFCF
:100F500010B50446094B1868094BA3FB0030800903
:100F600000F0B0F908B1012010BD002221464FF079
:100F7000FF3000F067F90020F6E700BF1400002002
:100F8000D34D621010B5032000F04AF90020FFF79E
:100F9000DFFF10B10124204610BD044602F000FC22
:100FA000F9E70000024A136801331360704700BF7D
:100FB000C4020020014B1868704700BFC402002023
:100FC00038B50446FFF7F6FF0546B4F1FF3F00D001
:100FD0000134FFF7EFFF401BA042FAD338BD0000F9
:100FE00030B583B000230193002800F0AF800446A1
:100FF00003681B68002BC0F2AB8090F82530002BF3
:101000002ED02168086800F40000E36822691343C9
:10101000E269134362691343A2691343A26813434D
:101020000D684D4A2A4013430B606368B3F5007F97
:1010300029D04A4A136823F40073136022681368A6
:1010400013F4000F2BD050BB454B1B689B0945493F
:10105000A1FB03139B0903EB8303990001911BE0A0
:1010600080F82430836203F1804303F504331A6E61
:1010700042F001021A661B6E03F001030093009B0D
:1010800002F0A6FBBDE7354A136843F40073136012
:10109000D4E7019B013B0193019B002BF9D1324B1B
:1010A0009A4227D04FF48003226A12F0030F3CD0FB
:1010B00012F0100F21D02D498A681A438A60226AE3
:1010C00012F0200F1FD02949CA681A43CA60274A64
:1010D0005361226A12F0020F1BD024494A681A4356
:1010E0004A60226A12F0010F19D020490A6813439E
:1010F0000B6022E04FF40013D6E71C498A6822EA0D
:1011000003028A60DBE71949CA6822EA0302CA605F
:10111000DDE716494A6822EA03024A60E1E713491B
:101120000A6822EA03030B6007E0104A5168DB43B8
:101130001940516011680B40136094F825304BB989
:10114000012384F82530002003B030BD0120FBE7E7
:101150000120F9E70020F7E7037D20FF04020140AA
:1011600014000020632D3E050002014000040140F0
:1011700082B00023019320B301680A68002A22DBB1
:1011800090F82520D2B2012A02D0012002B0704787
:101190000A6842F001020A60022280F825200B4B07
:1011A0001B689B090A4AA2FB03239B09DB000193EE
:1011B00002E0019B013B0193019B002BF9D1002030
:1011C000E4E70120E2E70120E0E700BF140000208F
:1011D000632D3E0508B502680E4B9A4207D04FF4C6
:1011E00080030D4A526933EA020203D008BD4FF46E
:1011F0000013F6E7094A126812F4007F06D0064B86
:101200004FF4C0025A6102F0D3F9EFE7024A53618A
:10121000F9E700BF00020140000401400402014060
:10122000074AD36823F4E0631B041B0C000200F49C
:10123000E060184340F0BF6040F40030D060704779
:1012400000ED00E030B4174BDB68C3F30223C3F1B9
:101250000704042C28BF04241D1D062D18D9033BA8
:101260004FF0FF3505FA04F421EA0401994005FA2C
:1012700003F322EA0303194300280BDB0901C9B277
:1012800000F1604000F5614080F8001330BC704709
:101290000023E5E700F00F000901C9B2024B195421
:1012A000F4E700BF00ED00E014ED00E000F01F02E5
:1012B000400901239340024A42F82030704700BFA2
:1012C00000E100E00138B0F1807F0AD2064B58609F
:1012D000064AF02182F823100020986007221A6045
:1012E00070470120704700BF10E000E000ED00E013
:1012F00070B110B50446037933B102232371002085
:1013000020610123237110BD437102F091FAF4E7CB
:10131000012070474379012B2AD030B40123437157
:10132000022202710468226801F01005AB401343E9
:10133000236089B90268136803F03C03042B06D0CC
:101340000123037100234371184630BC7047536872
:1013500043F001035360F3E70268136803F470136A
:10136000B3F5802FECD1536843F002035360E7E7F5
:101370000220704710B483B00024019400680190EB
:1013800051B101990A4414320192019A136000206C
:1013900003B05DF8044B704701990A44083201928A
:1013A000F3E7F8B54379012B00F0948016460D461B
:1013B000044601234371022303710B68042B32D0CE
:1013C0002B69012B79D02068C36B06F0100207212E
:1013D000914023EA01012B68AE683343EE68334342
:1013E00093400B43C363206803684FF480419140EE
:1013F00023EA010303602068036840F6FC71914012
:1014000023EA01016B6893400B4303602068036883
:10141000C02101FA02F223EA0202026001232371D1
:1014200000206071F8BD72B123685B6B002B25DA78
:10143000FFF7C0FD0128F7D9236943F008032361B2
:1014400003202071EEE7FFF7B5FD074623685B6BCD
:1014500013F4004F0BD0FFF7ADFDC01B0128F5D9E9
:10146000236943F00803236103202071DAE7012098
:10147000FFF7A6FD2368AA691A6405E00120FFF7BB
:101480009FFD2368AA695A642068826C06F01001E7
:1014900040F2FF338B4022EA0302EB698B401A4390
:1014A00082642068C36CFF228A4023EA02032A6A0E
:1014B00002FA01F10B43C36482E721688A6B06F0EC
:1014C00010001F23834022EA03026B698340134309
:1014D0008B6378E70220A5E7F0B482B0002341E0F7
:1014E000D0F82CC02CEA040CC6F3C0049C4044EA9B
:1014F0000C04C46286E0062400E00024B4403C43AF
:101500000235664E46F82540654C2568D44304EA0A
:1015100005064F6817F4803F01D042EA0506604D8A
:101520002E606D6804EA05064F6817F4003F01D08D
:1015300042EA05065A4D6E60AD6804EA05064F683A
:1015400017F4801F01D042EA0506554DAE60ED68E4
:101550002C404E6816F4001F01D042EA0504504AA0
:10156000D46001330A6832FA03F400F09380012456
:101570009C402240F5D04D68022D01D0122D10D193
:10158000DE08083650F826C003F00705AF000F2527
:10159000BD402CEA050C0D69BD4045EA0C0540F83C
:1015A000265006685F000325BD40ED4305EA060CA2
:1015B0004E6806F00306BE4046EA0C0606604E681A
:1015C00006F1FF3CBCF1010F03D9112E01D0122E00
:1015D00011D1866805EA060CCE68BE4046EA0C06C4
:1015E0008660466826EA040C4E68C6F300169E40E4
:1015F00046EA0C0646604E6806F0030CBCF1030F89
:101600003FF46EAFC46825408C68BC402C43C46076
:101610004C6814F0805FA4D0224C256E45F0010583
:101620002566246E04F001040194019C9D08AE1C03
:101630001A4C54F8267003F00304A6000F24B4409B
:1016400027EA0407B0F1904F3FF457AF164CA04281
:1016500016D004F58064A04214D004F58064A04242
:1016600012D004F58064A04210D004F58064A0423A
:101670000ED004F58064A0423FF43DAF07243DE75F
:1016800001243BE7022439E7032437E7042435E744
:10169000052433E702B0F0BC704700BF00000140F2
:1016A0000004014000100240000400480AB98162B1
:1016B000704781617047436959404161704700003C
:1016C00008B5054B5B69034200D108BD024B586168
:1016D00001F07EFFF9E700BF00040140002859D067
:1016E00010B5044690F84130002B43D0242384F8F1
:1016F00041302268136823F0010313606368226895
:1017000023F0706313612268936823F400439360AD
:10171000E368012B33D0A368226843F40443936049
:10172000E368022B31D02268536843F0007343F41E
:10173000004353602268D36823F40043D3602369D5
:1017400062691343A169226843EA0123D360E36914
:10175000216A22680B4313602268136843F0010377
:10176000136000206064202384F84130206384F8F3
:10177000420010BD80F8403002F08AF8B6E7A36856
:10178000226843F400439360CAE723684FF4006281
:101790005A60C8E70120704790F84130DBB2202B37
:1017A00024D190F84030012B22D0012380F8403022
:1017B000242380F841300268136823F0010313608A
:1017C0000268136823F48053136002681368194396
:1017D00011600268136843F001031360202380F84E
:1017E0004130002380F8403018467047022070478F
:1017F0000220704790F84130DBB2202B22D190F8C4
:101800004030012B20D0012380F84030242380F881
:1018100041300268136823F0010313600268136803
:1018200023F4706343EA012111600268136843F0F6
:1018300001031360202380F84130002380F84030FA
:10184000184670470220704702207047024B186804
:1018500000F4C060704700BF00700040B0F5007F2A
:101860000FD01F4B1B6803F4C063B3F5806F34D0F7
:101870001B4A136823F4C06343F4806313600020A1
:101880007047174B1B6803F4C063B3F5007F22D089
:10189000134A136823F4C06343F400731360114BBD
:1018A0001A68322303FB02F30F4AA2FB03239B0CAB
:1018B000013300E0013B0A4A526912F4806F01D003
:1018C000002BF7D1064B5B6913F4806F01D1002028
:1018D000704703207047002070470020704700BF0A
:1018E000007000401400002083DE1B4330B583B03D
:1018F0000546204B9B6D13F0805F0BD0FFF7A6FFD2
:10190000B0F5007F17D0802D1FD82DD0702D2DD091
:1019100000211BE0174CA36D43F08053A365A36D1A
:1019200003F080530193019BFFF790FFA36D23F019
:101930008053A365E4E7802D03D9A02D03D90221AC
:1019400004E0002102E0012100E003210A4A1368BB
:1019500023F007030B431360136803F007038B4264
:1019600006D0012003B030BD0221EFE70121EDE7F1
:101970000020F7E70010024000200240314A93683F
:10198000D26802F0030213F00C030AD00C2B06D02D
:10199000042B1FD0082B20D00020014610E0012A84
:1019A000F6D1284A126812F0080F0CD1254AD2F855
:1019B0009420C2F30322244951F8221043B100209D
:1019C0000C2B0DD070471F4A1268C2F30312F2E7C6
:1019D0000846F5E71D480021F2E71D480021EFE722
:1019E000184BDA6802F00302DB68C3F30213013319
:1019F000022A0AD0032A1AD0B1FBF3F3114AD068A5
:101A0000C0F3062000FB03F008E01048B0FBF3F33E
:101A10000C4AD068C0F3062000FB03F0094BDB68DA
:101A2000C3F3416301335B00B0FBF3F0CAE708483E
:101A3000B0FBF3F3034AD068C0F3062000FB03F0C9
:101A4000ECE700BF00100240E05B00080024F40057
:101A500000127A00002800F09082F0B583B00446AE
:101A6000AC4B9D6805F00C05DE6806F003060368C4
:101A700013F0100F5DD0E5B10C2D18D0A369002B29
:101A800000F0B780A34A136843F001031360FFF727
:101A900091FA07469F4B1B6813F0020F40F09680A7
:101AA000FFF788FAC01B0228F4D9032371E2012E44
:101AB000E4D1984B1B6813F0020F03D0A369002BED
:101AC00000F05E82206A934B1B6813F0080F5DD014
:101AD000904B1B6803F0F00398425ED9FFF706FFB6
:101AE000002840F04F828B4B1A6842F008021A60BF
:101AF0001A6822F0F002216A0A431A605A6822F436
:101B00007F42E16942EA01225A60FFF737FF814BC9
:101B10009B68C3F30313804AD35C03F01F03D840D0
:101B20007E4B18600020FFF713FA0346002840F0B0
:101B30003082236813F0010F7AD0082D6FD00C2D5E
:101B40006BD06368B3F5803F00F09180B3F5A02FB0
:101B500000F093806F4B1A6822F480321A601A6882
:101B600022F480221A606368002B00F09380FFF754
:101B700021FA0746674B1B6813F4003F58D1FFF763
:101B800019FAC01B6428F5D9032302E2614BD3F88C
:101B900094301B0903F0F0039EE75E4B1A6842F095
:101BA00008021A601A6822F0F002216A0A431A60D9
:101BB0005A6822F47F42E16942EA01225A60206AAF
:101BC000FFF794FE0028A0D00123E2E1514B1A68F0
:101BD00042F008021A601A6822F0F002216A0A43F1
:101BE0001A605A6822F47F42E16942EA01225A608F
:101BF0009FE7484A136823F001031360FFF7DAF9FF
:101C00000746444B1B6813F0020F92D0FFF7D2F93E
:101C1000C01B0228F5D90323BBE1032E91D13D4B14
:101C20001B6813F4003F03D06368002B00F0AC8105
:101C3000236813F0020F4FD0042D3CD00C2D38D068
:101C4000E368002B75D0334A136843F48073136044
:101C5000FFF7B0F906462F4B1B6813F4806F5FD176
:101C6000FFF7A8F9801B0228F5D9032391E1294A3F
:101C7000136843F48033136075E703F18043A3F5E1
:101C80003C331A6842F480221A601A6842F48032A7
:101C90001A6068E7FFF78EF907461E4B1B6813F4BE
:101CA000003FC5D0FFF786F9C01B6428F5D9032390
:101CB0006FE1022EC4D1174B1B6813F4806F03D061
:101CC000E368002B00F06281124A536823F0F85356
:101CD000216943EA01635360236813F0080F53D06E
:101CE0006369002B39D00B4AD2F8943043F00103DA
:101CF000C2F89430FFF75EF90646064BD3F89430ED
:101D000013F0020F40D1FFF755F9801B0228F4D9D8
:101D100003233EE100100240105C00081400002084
:101D20009E4A536823F0F853216943EA01635360E4
:101D3000D2E79A4A136823F480731360FFF73AF9E5
:101D40000646964B1B6813F4806FC5D0FFF732F937
:101D5000801B0228F5D903231BE1904AD2F8943066
:101D600023F00103C2F89430FFF724F906468B4BA9
:101D7000D3F8943013F0020F06D0FFF71BF9801B45
:101D80000228F4D9032304E1236813F0040F7AD066
:101D9000824B9B6D13F0805F0BD1804B9A6D42F0AC
:101DA00080529A659B6D03F080530193019B01263D
:101DB00000E000267A4B1B6813F4807F26D0A368CE
:101DC000012B37D0052B3DD0744BD3F8902022F057
:101DD0000102C3F89020D3F8902022F00402C3F847
:101DE0009020A368002B3BD0FFF7E4F807466B4B2D
:101DF000D3F8903013F0020F44D1FFF7DBF8C01B8B
:101E000041F288339842F2D90323C2E0644A13684E
:101E100043F480731360FFF7CDF80746604B1B68EF
:101E200013F4807FCBD1FFF7C5F8C01B0228F5D98A
:101E30000323AEE0594AD2F8903043F00103C2F8D0
:101E40009030CEE7554BD3F8902042F00402C3F80F
:101E50009020D3F8902042F00102C3F89020C0E710
:101E6000FFF7A8F807464D4BD3F8903013F0020F58
:101E700008D0FFF79FF8C01B41F288339842F2D98F
:101E8000032386E066BBA36A002B00F081800C2D43
:101E900000F08280022B29D0404B1A6822F0807219
:101EA0001A601B6813F0205F04D13C4AD36823F00A
:101EB0000303D360394AD36823F0887323F4803353
:101EC000D360FFF777F80446344B1B6813F0007FAC
:101ED00051D0FFF76FF8001B0228F5D9032358E013
:101EE0002E4A936D23F080539365CCE72B4A1368F9
:101EF00023F080731360FFF75DF80546274B1B68DE
:101F000013F0007F06D0FFF755F8401B0228F5D9E3
:101F100003233EE0236B5A1E636B1B0243EA02134A
:101F2000A26B120943EA4243E26A1343E26B52088E
:101F3000013A43EA4253226C5208013A43EA4263AF
:101F4000164AD360136843F080731360D36843F07C
:101F50008073D360FFF72EF80446104B1B6813F014
:101F6000007F06D1FFF726F8001B0228F5D90323CE
:101F70000FE000230DE000230BE00123184670471B
:101F8000012306E0012304E0012302E0012300E035
:101F90000023184603B0F0BD0123FAE70010024009
:101FA00000700040002800F09A8070B504464E4B47
:101FB0001B6803F007038B420CD24B4A136823F0D3
:101FC00007030B431360136803F007038B4201D030
:101FD000012070BD0D46236813F0010F39D06368EE
:101FE000032B09D0022B26D063BB404A126812F0A3
:101FF000020F06D10120ECE73C4A126812F0007F84
:102000006FD03A498A6822F0030213438B60FEF7CF
:10201000D1FF0646354B9B6803F00C036268B3EBB7
:10202000820F16D0FEF7C6FF801B41F2883398421C
:10203000F0D90320CDE72D4A126812F4003FE0D119
:102040000120C6E7294A126812F4806FD9D1012015
:10205000BFE7236813F0020F06D0244A936823F0E9
:10206000F003A1680B4393601F4B1B6803F0070349
:10207000AB420CD91C4A136823F007032B431360AF
:10208000136803F00703AB4201D00120A1E72368E6
:1020900013F0040F06D0154A936823F4E063E16857
:1020A0000B439360236813F0080F07D00F4A93681F
:1020B00023F46053216943EAC1039360FFF75EFC98
:1020C0000A4B9B68C3F30313094AD35C03F01F0355
:1020D000D840084B18600020FEF73AFF79E701204E
:1020E0007047012075E700BF002002400010024049
:1020F000105C000814000020014B1868704700BFF6
:102100001400002008B5FFF7F7FF054B9B68C3F3E9
:102110000223044AD35C03F01F03D84008BD00BF6C
:1021200000100240205C000808B5FFF7E5FF054BF2
:102130009B68C3F3C223044AD35C03F01F03D84057
:1021400008BD00BF00100240205C0008F8B55A4BE3
:10215000DB6813F0030F18D0574BDB6803F0030361
:102160000268934202D001252846F8BD002A00F0FB
:10217000A080514BDB68C3F30213013342689342E2
:1021800001D00125F0E700251AE00368022B59D0A1
:10219000032B5ED0012B01D001250FE0464A1268C7
:1021A00012F0020F61D0444DEA6822F073024468D5
:1021B000013C43EA04131343EB600025002DD3D107
:1021C0000F4604463C4A136823F080631360FEF711
:1021D000F1FE0646384B1B6813F0006F05D0FEF782
:1021E000E9FE801B0228F5D90325002DBCD1002F64
:1021F0003DD131490B6923F41F3323F44073A068A8
:10220000E2681209520442EA002213430B612A4A8F
:10221000136843F080631360FEF7CCFE0646264B3E
:102220001B6813F0006F05D1FEF7C4FE801B022867
:10223000F5D90325002D97D11F4A1369A1690B43D6
:10224000136191E71C4A126812F4806FABD101252B
:10225000B4E7194A126812F4003FA4D1164A126872
:1022600012F4802F9FD10125A8E70125A6E7012FB1
:102270000FD01148026922F0C06222F4FE42A16828
:1022800063695B08013B5B0643EA01231343036177
:10229000BDE70948026922F4C00222F4FE42A168A7
:1022A00023695B08013B5B0543EA01231343036198
:1022B000ADE7012558E700BF00100240F8B5514BCB
:1022C000DB6813F0030F18D04E4BDB6803F00303F9
:1022D0000268934202D001252846F8BD002A00F08A
:1022E0008E80484BDB68C3F302130133426893428C
:1022F00001D00125F0E700251AE00368022B59D030
:10230000032B5ED0012B01D001250FE03D4A12685E
:1023100012F0020F61D03B4DEA6822F0730244686C
:10232000013C43EA04131343EB600025002DD3D195
:102330000F460446334A136823F080531360FEF7B8
:1023400039FE06462F4B1B6813F0005F05D0FEF7E1
:1023500031FE801B0228F5D90325002DBCD1002FAA
:102360003DD128494B6923F41F3323F44073A068FF
:10237000E2681209520442EA002213434B61214AE7
:10238000136843F080531360FEF714FE06461D4B9E
:102390001B6813F0005F05D1FEF70CFE801B0228BE
:1023A000F5D90325002D97D1164A536961690B436E
:1023B000536191E7134A126812F4806FABD1012583
:1023C000B4E7104A126812F4003FA4D10D4A126813
:1023D00012F4802F9FD10125A8E70125A6E709481F
:1023E000426922F0C06222F4FE42A16823695B08C0
:1023F000013B5B0643EA012313434361BFE7012529
:102400006AE700BF001002402DE9F04182B00446A7
:10241000036813F4006F2FD0436EB3F5800F25D0FF
:1024200008D9B3F5000F10D0B3F5400F40F09980F4
:10243000002610E0002B40F0948000210430FFF7CC
:1024400085FE06463EB1374618E05E4AD36843F43F
:102450008033D36000265B4AD2F8883023F44003EF
:10246000616E0B43C2F88830002707E0002120305E
:10247000FFF724FF0646E5E700273E46236813F4EE
:10248000805F15D0A36EB3F1807F7AD06CD9B3F1A1
:10249000007F70D0B3F1407F7AD1002E7BD1494AC2
:1024A000D2F8883023F04073A16E0B43C2F8883015
:1024B000236813F4003F00F08E80424B9B6D13F0B5
:1024C000805F6AD13F4B9A6D42F080529A659B6D56
:1024D00003F080530193019B4FF001083A4A1368BF
:1024E00043F480731360FEF765FD0546364B1B68A9
:1024F00013F4807F05D1FEF75DFD401B0228F5D95E
:102500000326002E62D12F4BD3F8903013F4407382
:1025100016D0D4F884209A4212D02A4AD2F89030A9
:1025200023F44073D2F8901041F48031C2F8901037
:10253000D2F8901021F48031C2F89010C2F8903097
:1025400013F0010F2CD1002E40F043811D4AD2F828
:10255000903023F44073D4F884100B43C2F89030C9
:1025600035E001273E4689E793B90021201DFFF79A
:10257000EDFD064691E7134AD36843F48033D360F8
:102580008BE7002104F12000FFF798FE064684E760
:1025900001273E468CE737468AE74FF000089DE763
:1025A000FEF708FD0546074BD3F8903013F0020FF5
:1025B000C9D1FEF7FFFC401B41F288339842F2D9A3
:1025C0000326C0E700100240007000403746B8F113
:1025D000000F40F00081236813F0010F08D09D4ADE
:1025E000D2F8883023F00303A16B0B43C2F8883084
:1025F000236813F0020F08D0964AD2F8883023F0EF
:102600000C03E16B0B43C2F88830236813F0040F0E
:1026100008D0904AD2F8883023F03003216C0B4365
:10262000C2F88830236813F0080F08D0894AD2F81E
:10263000883023F0C003616C0B43C2F888302368F4
:1026400013F0100F08D0834AD2F8883023F4407377
:10265000A16C0B43C2F88830236813F0200F08D018
:102660007C4AD2F8883023F44063E16C0B43C2F813
:102670008830236813F4007F08D0764AD2F8883077
:1026800023F44023E16D0B43C2F88830236813F430
:10269000806F08D06F4AD2F8883023F44013216E3F
:1026A0000B43C2F88830236813F0400F08D0694A02
:1026B000D2F8883023F44053216D0B43C2F88830A0
:1026C000236813F0800F08D0624AD2F8883023F4D0
:1026D0004043616D0B43C2F88830236813F4807F58
:1026E00008D05C4AD2F8883023F44033A16D0B4304
:1026F000C2F88830236813F4005F0FD0554AD2F82F
:10270000883023F04063E16E0B43C2F88830E36EFB
:10271000B3F1006F65D0B3F1806F67D0236813F415
:10272000002F0FD04B4AD2F8883023F04063216F3E
:102730000B43C2F88830236FB3F1006F5ED0B3F162
:10274000806F60D0236813F4802F0FD0414AD2F8F5
:10275000883023F04063616F0B43C2F88830636FA9
:10276000B3F1006F57D0B3F1806F59D0236813F4E1
:10277000804F0FD0374AD2F8883023F04053A16FF2
:102780000B43C2F88830A36FB3F1805F50D0B3F130
:10279000005F55D0236813F4004F08D02D4AD2F8BB
:1027A000883023F08043E16F0B43C2F88830236800
:1027B00013F4803F09D0274AD2F8883023F0004331
:1027C000D4F880100B43C2F88830384602B0BDE818
:1027D000F0813746FBE61F4A936D23F080539365E3
:1027E000F9E6D36843F48013D36097E70121201DF5
:1027F000FFF7ACFC002891D007468FE7D36843F47D
:102800008013D3609EE70121201DFFF79FFC002865
:1028100098D0074696E7D36843F48013D360A5E7C2
:102820000121201DFFF792FC00289FD007469DE75D
:102830000221201DFFF78AFC0028ABD00746A9E73C
:10284000022104F12000FFF739FD0028A2D007463D
:10285000A0E700BF0010024010B4036A046A24F02D
:1028600001040462846924F0F00444EA021223F0B3
:102870000A030B43826103625DF8044B704710B496
:10288000036A23F0100303628469036A24F470442A
:1028900044EA023223F0A00343EA01138261036297
:1028A0005DF8044B7047836823F07003194341F0CF
:1028B0000701816070470000022380F83D30026804
:1028C0009168094B0B40062B09D09168064B0B40D1
:1028D000B3F5803F03D0136843F001031360012375
:1028E00080F83D300020704707000100022380F887
:1028F0003D300368196A41F21112114208D1196A78
:1029000040F24442114203D11A6822F001021A60D7
:10291000012380F83D300020704700000368304AF2
:10292000904212D0B0F1804F0FD0A2F59432904275
:102930000BD002F58062904207D002F5806290428F
:1029400003D002F59432904203D123F070034A6819
:102950001343234A90421ED0B0F1804F1BD0A2F502
:102960009432904217D002F58062904213D002F563
:10297000806290420FD002F5943290420BD002F563
:102980004062904207D002F58062904203D002F587
:102990008062904203D123F44073CA68134323F04A
:1029A00080034A69134303608B68C3620B688362C8
:1029B0000B4B98420FD003F5006398420BD003F500
:1029C0004063984207D003F58063984203D003F533
:1029D0008063984201D10B6903630123436170470F
:1029E000002C0140A8B110B5044690F83D305BB111
:1029F000022384F83D30211D2068FFF78FFF01235B
:102A000084F83D30002010BD80F83C3000F076FFA7
:102A1000EEE70120704710B4846824F47F4442EA52
:102A200003230B43234383605DF8044B704700008E
:102A300090F83C30012B73D010B50446012380F888
:102A40003C30022380F83D3002689068354B0340EB
:102A500093600B68402B59D010D9702B3CD01BD8F9
:102A6000502B49D0602B30D1CA6849682068FFF7E5
:102A700006FF60212068FFF716FF26E0102B06D026
:102A800004D9202B03D0302B01D01EE0EBB919461E
:102A90002068FFF708FF18E0B3F5805F0ED0B3F5AC
:102AA000005F12D1CB684A6889682068FFF7B3FFDE
:102AB0002268936843F48043936006E02268936839
:102AC00023F4803323F007039360012384F83D301F
:102AD000002084F83C0010BDCB684A6889682068F3
:102AE000FFF799FF2268936823F4803323F077037C
:102AF00043F077039360E8E7CA6849682068FFF706
:102B0000ABFE50212068FFF7CEFEDEE7CA684968B9
:102B10002068FFF7A1FE40212068FFF7C4FED4E73C
:102B2000022070478800FEFF90F83C30012B28D02F
:102B300030B4012380F83C30022380F83D30026835
:102B400053689568104CA24203D004F50064A24279
:102B500003D123F470034C68234323F070030C6803
:102B6000234325F0800489682143536003689960FA
:102B7000012380F83D30002380F83C30184630BCFB
:102B800070470220704700BF002C01402DE9F0483B
:102B90000446016883680269134342691343C269AA
:102BA00013430868A24A024013430B60226853682B
:102BB00023F44053E1680B435360A16922689D4BA5
:102BC0009A4201D0236A1943936823F430630B437C
:102BD00093602368984A934227D0984A934238D00A
:102BE000974A93424ED0974A934261D0964A934275
:102BF00074D0904A934200F08A8010258D4A934207
:102C000000F0AA80E369B3F5004F00F03581082D8C
:102C100000F2BF81DFE815F07F0195019F01BD0142
:102C2000AA01BD01BD01BD01B40102F55842D2F8AF
:102C3000882002F00302032A09D8DFE802F0020428
:102C400081060125DAE70425D8E70825D6E710250F
:102C5000D4E702F5E632D2F8882002F00C020C2A02
:102C60000ED8DFE802F0070D0D0D090D0D0D6F0DEB
:102C70000D0D0B000025C1E70425BFE70825BDE7C2
:102C80001025BBE702F5E432D2F8882002F03002CA
:102C9000102A09D005D9202A56D0302A06D1082575
:102CA000ACE71AB90025A9E70425A7E71025A5E791
:102CB00002F5E232D2F8882002F0C002402A09D0A0
:102CC00005D9802A42D0C02A06D1082596E71AB92C
:102CD000002593E7042591E710258FE702F5E03200
:102CE000D2F8882002F44072B2F5807F0BD007D969
:102CF000B2F5007F2CD0B2F5407F06D108257DE7E4
:102D00001AB900257AE7042578E7102576E702F559
:102D1000C832D2F8882002F44062B2F5806F0BD03E
:102D200007D9B2F5006F15D0B2F5406F06D108256E
:102D300064E71AB9002561E704255FE710255DE720
:102D400002255BE7022559E7022557E7022555E7EB
:102D5000022553E7022551E7082D00F21D81DFE827
:102D600015F00C001B0114001B0111001B011B01BD
:102D70001B0109004FF4004008E0FFF7C3F928B930
:102D80000020D9E0FEF7FAFDF9E73048626802EB6F
:102D90004203834200F20281B0EB023F00F2008165
:102DA000082D66D8DFE805F00565206530656565A6
:102DB0005800FFF7A7F90025070E060262685008C1
:102DC0002B4616EB000B47F1000C58466146FDF709
:102DD000BBFE03462846A3F540711D4A914200F20E
:102DE000E1802268D360A7E0560800252B46DFF873
:102DF00064B04FF0000C1BEB06004CF10001FDF736
:102E0000A3FE03462846E6E7FEF7B8FD0025070EB9
:102E10000602626850082B4616EB000B47F1000CC7
:102E200058466146FDF790FE03462846D3E700BFAB
:102E3000F369FFEF0080004000380140004400408B
:102E400000480040004C0040005000400024F400C6
:102E5000FFFC0F00000024F45008002700252B463B
:102E600010F5000047F10001FDF76EFE034628460D
:102E7000B1E701200023AEE7082D49D8DFE805F0CF
:102E8000051E2948344848483F00FFF73BF962686F
:102E9000530803EB4003B3FBF2F39BB20020A3F112
:102EA00010014FF6EF7291427ED89AB222F00F02D3
:102EB000C3F3420313432268D3603DE0FFF734F9C4
:102EC0006268530803EB4003B3FBF2F39BB20020AC
:102ED000E5E76268530803F1F47303F59043B3FB2D
:102EE000F2F39BB20020DAE7FEF748FD6268530870
:102EF00003EB4003B3FBF2F39BB20020CFE7626821
:102F0000530803F58033B3FBF2F39BB20020C6E70E
:102F100001200023C3E7FFF7F5F8636800EB5302D5
:102F2000B2FBF3F292B20020A2F110014FF6EF7360
:102F300099423BD82368DA60002222666266BDE8C7
:102F4000F088FFF7F1F8636800EB5302B2FBF3F28D
:102F500092B20020E8E763685A0802F5740202F5AD
:102F60001052B2FBF3F292B20020DDE7FEF706FD4D
:102F7000636800EB5302B2FBF3F292B20020D3E796
:102F800063685A0802F50042B2FBF3F292B20020E5
:102F9000CAE701200022C7E70120CDE70120CBE7E7
:102FA0000120C9E70120C7E70120C5E70120C3E7E9
:102FB000436A13F0010F06D00268536823F400330C
:102FC000816A0B435360436A13F0020F06D0026814
:102FD000536823F48033C16A0B435360436A13F090
:102FE000040F06D00268536823F48023016B0B435F
:102FF0005360436A13F0080F06D00268536823F445
:103000000043416B0B435360436A13F0100F06D02B
:103010000268936823F48053816B0B439360436A87
:1030200013F0200F06D00268936823F40053C16B9D
:103030000B439360436A13F0400F0AD00268536851
:1030400023F48013016C0B435360036CB3F5801FB2
:103050000BD0436A13F0800F06D00268536823F444
:103060000023816C0B43536070470268536823F45C
:10307000C003416C0B435360EBE72DE9F04105467B
:103080000F4616469846069C2B68DB6937EA030311
:103090000CBF01230023B3421DD1B4F1FF3FF3D095
:1030A0002CB1FDF787FFA0EB0800A042ECD92A68FD
:1030B000136823F4D07313602A68936823F0010324
:1030C0009360202385F8713085F87230002385F8ED
:1030D0007030032000E00020BDE8F0812DE9F041D0
:1030E00082B01E4690F87130DBB2202B4ED10446E0
:1030F0000D46904600294ED0002A4ED090F87030F0
:10310000012B4CD0012380F870300023436721232A
:1031100080F87130FDF74EFF0746A4F85080A4F800
:10312000528009E023682A781A850135B4F85230B4
:10313000013B9BB2A4F85230B4F852309BB2ABB111
:1031400000963B46002280212046FFF796FF40BBB9
:10315000A368B3F5805FE5D12369002BE2D1226833
:1031600035F8023BC3F308031385DFE700963B46BF
:10317000002240212046FFF780FF034698B9202215
:1031800084F87120002284F8702000E002231846A1
:1031900002B0BDE8F0810123F9E70123F7E702233C
:1031A000F5E70323F3E70323F1E730B583B00446E3
:1031B00000234367FDF7FEFE054623681B6813F0F6
:1031C000080F0ED123681B6813F0040F17D12023BA
:1031D00084F8713084F87230002084F8700003B0F5
:1031E00030BD6FF07E430093034600224FF4001180
:1031F0002046FFF742FF0028E4D00320EFE76FF0FE
:103200007E4300932B4600224FF480012046FFF7B7
:1032100034FF0028DBD00320E1E778B310B5044683
:1032200090F871300BB3242384F87130226813684E
:1032300023F0010313602046FFF7A8FC012813D0F8
:10324000636ABBB92268536823F4904353602268D1
:10325000936823F02A0393602268136843F0010304
:1032600013602046FFF7A1FF10BD80F8703000F01A
:1032700059FBD8E72046FFF79BFEE3E701207047A4
:10328000F0B58BB000240594069407940894099433
:103290003D4BDA6C42F00402DA64DA6C02F00402AC
:1032A0000092009ADA6C42F08002DA64DA6C02F082
:1032B00080020192019ADA6C42F00102DA64DA6C5F
:1032C00002F001020292029ADA6C42F00202DA641F
:1032D000DA6C02F002020392039ADA6C42F00802FE
:1032E000DA64DB6C03F008030493049B22460C2190
:1032F0004FF09040FEF7DAF9244F2246302138464D
:10330000FEF7D4F9224E224646F203413046FEF73C
:10331000CDF9012505951F4B0693079405A94FF09C
:103320009040FEF7D9F80C2305930695079408946E
:1033300005A94FF09040FEF7CFF83023059306958E
:103340000794089405A93846FEF7C6F846F20343E9
:10335000059306950794089405A93046FEF7BCF836
:103360004FF4006305930694079405A93046FEF7D1
:10337000B3F8224621460620FDF764FF0620FDF73C
:1033800095FF0BB0F0BD00BF0010024000080048E0
:10339000000400480000111038B50D4C0D4B23609F
:1033A0000D4B63600025A5600123E3602561656125
:1033B000A561E56125622046FEF790F92946204681
:1033C000FEF7EAF929462046FEF714FA38BD00BF99
:1033D000DC02002000540040EC9C901008B5094825
:1033E000094B03604FF4E133436000238360C36003
:1033F00003610C2242618361C36103624362FFF790
:103400000CFF08BDD40300200038014008B509486E
:10341000094B03604FF4E133436000238360C360D2
:1034200003610C2242618361C36103624362FFF75F
:10343000F4FE08BD5C0300200050004030B589B0A8
:103440000024049405940694079401940294039430
:103450000E4D4FF080432B606C60AC604FF0FF333B
:10346000EB602C61AC612846FFF7BCFA4FF4805347
:10347000049304A92846FFF7DBFA0194039401A9F9
:103480002846FFF751FB09B030BD00BF4C040020B7
:1034900010B58AB02422002101A800F041FB094C9C
:1034A000094B23602046FDF723FF00220192029280
:1034B000039201230493059201A92046FDF771FFB1
:1034C0000AB010BDC80200200074004008B50948C9
:1034D000094B0360402303618023C36000238361A1
:1034E0004361C3618360436011230362FDF778FD8C
:1034F00008BD00BF300300200002014000000000B2
:1035000070B5234E336800255D62224C01224FF4D2
:1035100080612046FEF7CAF83046FFF7CDF90A2051
:10352000FDF74EFD2A464FF480612046FEF7BEF8B7
:103530000A20FDF745FD184BD3ED297AF8EE677A9E
:103540009FED167A67EE877A9FED157AC7EE877A38
:1035500017EE900AFCF7A0FF0BA3D3E90023FDF7B9
:103560001DF9FDF7A1FAFCF797FF0E4C02460B463A
:103570000D49204600F038FF6423102221460B48F5
:10358000FFF7ACFD70BD00BF8082C00705AEFA3FFB
:103590004C04002000040048040200200024744968
:1035A0008096984C000000202C5C00085C030020F2
:1035B00010B5054C2046FFF799F923685A6A034B6A
:1035C000C3F8A42010BD00BF4C040020040200205A
:1035D00010B5012804D0022808D0042810D010BD4E
:1035E00004214FF09040FEF766F8F8E7104C2046B3
:1035F000FFF77CF923685A6A0E4BC3F8A420EEE764
:103600000B4C2046FFF772F923685A6A094BC3F83E
:10361000A420D3F8A420084C0849204600F0E4FE7A
:103620006423142221460648FFF758FDD7E700BF60
:103630004C04002004020020000000204C5C000824
:103640005C03002010B5B8B02422002128A800F0A7
:1036500067FA0024229423942494259426948822A3
:103660002146684600F05CFA022327934FF48072EB
:103670002A9210222B9231933293012233920A2202
:103680003492072235923693379327A8FEF7E2F952
:103690000F23229303232393249425942694042117
:1036A00022A8FEF77FFC512300930E9412941494E9
:1036B0006846FEF7A9FE4FF40070FEF7CFF838B069
:1036C00010BD000038B5FDF75DFCFFF7BBFFFFF74D
:1036D000D7FDFFF761FEFFF781FEFFF797FEFFF7CB
:1036E000ADFEFFF7D5FEFFF7F1FE4FF4FA60FDF7F0
:1036F00067FC234C00212046FDF70CFE40F68C03AE
:10370000002211462046FDF735FE1E48FDF730FD2C
:103710001D4BD3F8A4201D4C1D49204600F064FE2B
:1037200064230A2221461B48FFF7D8FC002400E04E
:103730000134B4F5806F14DAFFF7E2FE40F2FF3394
:103740009C42F5D0104BD3F8A420104D12492846C6
:1037500000F04AFE6423022229460E48FFF7BEFC11
:10376000E6E7094BD3F8A420084C0C49204600F0AA
:103770003BFE6423022221460648FFF7AFFCFEE72A
:10378000C8020020300300200402002000000020B6
:103790005C5C00085C030020685C00086C5C00084E
:1037A00082B00A4B1A6E42F001021A661A6E02F0DB
:1037B00001020092009A9A6D42F080529A659B6DC8
:1037C00003F080530193019B02B070470010024048
:1037D00000B587B0002301930293039304930593EC
:1037E000026803F1804303F581339A4202D007B0A7
:1037F0005DF804FB03F58733DA6C42F00202DA6409
:10380000DB6C03F002030093009B0423019303236A
:10381000029301A90548FDF75FFE002211464020F2
:10382000FDF710FD4020FDF741FDE0E700040048F2
:1038300000B589B00023039304930593069307937F
:103840000268124B9A4202D009B05DF804FB03F5FE
:10385000CE339A6D42F000529A659A6D02F0005292
:103860000192019ADA6C42F00102DA64DB6C03F037
:1038700001030293029B102303930323049303A9E0
:103880004FF09040FDF728FEDEE700BF00740040D7
:1038900010B588B000230393049305930693079310
:1038A0000268134B9A4201D008B010BD114CE36C72
:1038B00043F00203E364E36C03F002030193019B12
:1038C000C023039312230493012305930323069338
:1038D0000423079303A90848FDF7FEFDA36D43F4F5
:1038E0000013A365A36D03F400130293029BDBE7AF
:1038F0000054004000100240000400480368B3F187
:10390000804F00D0704782B003F504339A6D42F0C7
:1039100001029A659B6D03F001030193019B02B0C4
:103920007047000070B58AB0002305930693079393
:103930000893099303682F4A934204D02E4A934276
:1039400036D00AB070BD2D4B9A6D42F480129A6544
:103950009A6D02F480120092009ADA6C42F004022E
:10396000DA64DA6C02F004020192019ADA6C42F035
:103970000802DA64DB6C03F008030293029B4FF445
:10398000805305930226069603250895082409947A
:1039900005A91B48FDF7A0FD042305930696002307
:1039A00007930895099405A91648FDF795FDC8E702
:1039B000124B1A6E42F480421A661A6E02F480426A
:1039C0000392039ADA6C42F00102DA64DB6C03F0D2
:1039D00001030493049B4FF4C063059302230693F1
:1039E000032308930723099305A94FF09040FDF79F
:1039F00073FDA6E70050004000380140001002406F
:103A000000080048000C00487047FEE7FEE7FEE7AC
:103A1000FEE770477047704708B5FDF7C3FA08BD69
:103A200008B50120FDF74CFE08BD000008B50248AE
:103A3000FDF7D0FB08BD00BF300300200F49D1F8CF
:103A4000883043F47003C1F888300D4B1A6842F097
:103A500001021A60002098601A6822F0A85222F42D
:103A600010221A604FF48052DA601A6822F4802221
:103A70001A6098614FF000638B60704700ED00E0C2
:103A800000100240DFF834D0002103E00C4B5B58FB
:103A9000435004310B480C4B42189A42F6D30B4A60
:103AA00002E0002342F8043B094B9A42F9D3FFF7A6
:103AB000C5FF00F011F8FFF705FEFEE700800120CA
:103AC000E85E000800000020E8010020E801002076
:103AD00098040020FEE7000070B50D4E0D4CA41BAD
:103AE000A4100025A54209D10B4E0C4C02F06AF837
:103AF000A41BA4100025A54205D170BD56F82530A1
:103B000098470135EEE756F8253098470135F2E73A
:103B1000D85E0008D85E0008D85E0008DC5E0008A9
:103B200002440346934200D1704703F8011BF9E7B2
:103B30002DE9FF4755EC104B0D9FDDF830A0002D0F
:103B40000E4691461946B8BF22462B4627F020075D
:103B5000BBBF05F100431D4600232D23B8BF14460B
:103B6000462F0B7004D0452F00D10136022100E012
:103B7000032103AB019302AB00933246534645EC5D
:103B8000104B00F0DDFC472F804602D119F0010FE9
:103B900026D0462F08EB060911D198F80030302BBB
:103BA0000AD10022002320462946FCF735FF18B928
:103BB000C6F10106CAF80060DAF800309944002224
:103BC000002320462946FCF727FF38B93022039B03
:103BD0004B4505D2591C03911A70F8E7CDF80C90AB
:103BE000039B0E9AA3EB08034046136004B0BDE8A4
:103BF000F087F7B500290446BABF49422D232B238D
:103C0000092904F8022B437020DD0DF107031F463C
:103C10000A2691FBF6F506FB15113031092D03F844
:103C2000011C03F1FF32294609DC3031023B02F866
:103C3000011CBB42224604D3101A03B0F0BD134648
:103C4000E7E713F8012B04F8012BF2E730231944BE
:103C50008370021DC170EFE72DE9F04F8DB00C4667
:103C6000DDF8588016461F46054601F021FA036824
:103C700004931846FDF7E8F800230A93D8F80030BB
:103C80000590073323F0070303F1080294F818A006
:103C9000D4F800B0C8F80020D3E90023C4E9122307
:103CA000D4E9128929F000430793CDF818804FF02A
:103CB000FF32A74BDDE90601FCF7E0FE70BB4FF0D9
:103CC000FF32A34BDDE90601FCF7BAFE30BB002250
:103CD000002340464946FCF7A9FE10B12D2384F885
:103CE00043309C4A9C4BBAF1470F8CBF9046984694
:103CF00003232BF00402236122604FF00009009798
:103D000033460BAA2146284600F0E6F9013040F080
:103D10008D804FF0FF300DB0BDE8F08F42464B462E
:103D200040464946FCF7AAFE10B18C4A8C4BDAE7B4
:103D300061684B1C4BF480620AA83ED10623636085
:103D40000023CDE9020309AB009349EC108B0DF180
:103D500023032260CDF804A061682846FFF7E8FE3F
:103D60000AF0DF03472B804609D1099BD81C02DBF0
:103D70006268934247DDAAF1020A5FFA8AFABAF151
:103D8000650F099924D80139524604F15000099170
:103D9000FFF72FFF0A9A1318012A8146236102DCDC
:103DA0002268D10701D5013323619DF82330002B10
:103DB000A5D02D2384F84330A1E7BAF1670F00F0B6
:103DC0007781BAF1470FBBD10029B9D10123B6E7FA
:103DD000BAF1660F19D1002963680CDD216113B9AE
:103DE0002268D20702D501330B442361099BA365E6
:103DF0004FF00009D9E713B92268D00701D5023383
:103E0000F3E70123F1E74FF0670ADDE90932934256
:103E100005DB22682361D107E8D50133E5E7002BF4
:103E2000D4BFC3F1020301231344DEE723685A051C
:103E300007D42369424631462846B84701302BD182
:103E400067E7BAF1650F40F2DC8000220023D4E975
:103E50001201FCF7E1FD002833D00123414A31462D
:103E60002846B84701303FF454AFDDE909239A42B0
:103E700002DB2368D8070FD5DDE904233146284645
:103E8000B84701303FF445AF4FF0000804F11A097C
:103E90000A9B013B434509DC23689B0700F1038132
:103EA000E0680B9B9842B8BF184634E701234A46A6
:103EB00031462846B84701303FF42BAF08F10108DE
:103EC000E6E7099B002B2BDC0123264A31462846D6
:103ED000B84701303FF41DAF099B23B90A9B13B9C2
:103EE0002368D907D8D5DDE9042331462846B847E9
:103EF00001303FF40EAF4FF0000904F11A0A099B9C
:103F00005B424B4501DC0A9B94E701235246314654
:103F10002846B84701303FF4FCAE09F10109EEE74D
:103F20000A9AA36D9A42A8BF1A46002A914607DD55
:103F30001346314642462846B84701303FF4E9AEC1
:103F400004F11A034FF0000B29EAE979069315E012
:103F5000FFFFEF7F745C0008705C00087C5C000869
:103F6000785C0008805C00080123069A31462846E8
:103F7000B84701303FF4CDAE0BF1010BD4F858A097
:103F8000AAEB09035B45EFDCDDE909239A42D04443
:103F900015DB2368DA0712D40A9B0999A3EB0A02FE
:103FA000A3EB010A9245A8BF9246BAF1000F0EDCBE
:103FB0004FF000082AEAEA7A04F11A0919E0DDE96B
:103FC000042331462846B8470130E5D1A1E65346DF
:103FD000424631462846B8470130E9D199E60123E7
:103FE0004A4631462846B84701303FF492AE08F1C0
:103FF0000108DDE909239B1AA3EB0A034345EEDC24
:104000004AE70A9A012A01DCDB073AD50123424636
:1040100031462846B84701303FF47BAEDDE9042342
:1040200031462846B847013008F101083FF471AE27
:104030000A9B002203F1FF3AD4E912010023FCF7A6
:10404000EBFCC8B95346424631462846B8470130D2
:104050000ED15EE60123524631462846B84701306C
:104060003FF457AE08F101080A9B013B4345F1DCE0
:104070004B4604F15002DEE64FF0000804F11A0A44
:10408000F2E70123DFE701234A4631462846B847D5
:1040900001303FF43EAE08F10108E3680B9A9B1A29
:1040A0004345F0DCFCE64FF0000804F11909F4E7A1
:1040B00000293FF48BAE0023CDE9020309AB009346
:1040C00049EC108B2260CDF804A00DF123032846A3
:1040D000FFF72EFD804648E62DE9F04791461F4642
:1040E0008A680B69DDF820809342B8BF1346C9F88F
:1040F000003091F8432006460C4612B10133C9F84E
:1041000000302368990642BFD9F800300233C9F85D
:104110000030256815F0060507D104F1190AE36897
:10412000D9F800209B1AAB4228DC94F8433022686F
:10413000003318BF012392062DD404F143023946FF
:104140003046C047013020D02368E568D9F8002008
:1041500003F00603042B08BFAD1AA36822690CBF45
:1041600025EAE57500259342C4BF9B1AED184FF070
:1041700000091A344D451AD1002008E001235246A7
:1041800039463046C047013003D14FF0FF30BDE81B
:10419000F0870135C3E7E1185A1C302081F843004D
:1041A000224494F8451082F843100233C5E70123F6
:1041B000224639463046C0470130E6D009F10109B0
:1041C000D8E700002DE9F04301F1430C0C46097ECD
:1041D00085B06E291746064698460C9A00F0B380C3
:1041E00022D8632936D00AD8002900F0B98058298E
:1041F00000F0838004F1420584F8421032E0642923
:1042000001D06929F6D120681368050603F104017D
:104210002AD51B681160002B03DA2D225B4284F83B
:1042200043206F480A2239E0732900F09D8008D8A6
:104230006F2920D07029DDD1236843F0200323604B
:1042400003E0752917D07829D4D1782384F8453034
:10425000644855E01368191D1B68116004F142059C
:1042600084F8423001238CE01B68116010F0400F8D
:1042700018BF1BB2CFE713682568181D1060280609
:1042800001D51B6802E06806FBD51B8854486F29DE
:1042900014BF0A220822002184F843106568A56033
:1042A000002DC0F29580216821F004012160002BCF
:1042B0003DD1002D40F08E806546082A0BD1236841
:1042C000DB0708D5236962689A42DEBF302305F810
:1042D000013C05F1FF35ACEB05032361CDF800800F
:1042E0003B4603AA21463046FFF7F6FE01304DD18A
:1042F0004FF0FF3005B0BDE8F083394884F8451031
:10430000136821681D1D1B6815600A060BD5CA07B6
:1043100044BF41F0200121601BB9226822F0200235
:1043200022601022B7E74D0648BF9BB2EFE7654613
:10433000B3FBF2F102FB1133C35C05F8013D0B4600
:104340000029F5D1B9E7136825686169181D106067
:1043500028061B6801D5196002E06A06FBD51980A2
:10436000002323616546B9E71368191D11601D68B4
:10437000626800212846FCF773FD08B1401B6060AD
:1043800063682361002384F84330A7E723692A4642
:1043900039463046C0470130AAD023689B0713D462
:1043A000E068039B9842B8BF1846A3E701234A463A
:1043B00039463046C04701309AD00135E368039A48
:1043C0009B1AAB42F2DCEBE7002504F11909F5E793
:1043D000002BACD1037884F8423004F142056CE73D
:1043E000825C0008935C00080EB400B59CB01DAB65
:1043F000029006906FF00041094807910491094925
:1044000053F8042B05910068019302A901F05CFAAE
:10441000029B00221A701CB05DF804EB03B07047D9
:10442000180000200802FFFF2DE9F74F03690C690F
:10443000A3428046C0F28280013C01F114074FEA9A
:10444000840C00F1140657F8245056F8240006EBAB
:104450000C03013507EB0C090193B0FBF5F595B39F
:104460004FF0000A3846B646D34650F8042B93B2B4
:1044700005FB03A34FEA134A9BB2ABEB0303120CF9
:10448000DEF800B005FB02A213FA8BF34FEA124AE2
:104490001FFA82FBDEF80020CBEB124202EB234234
:1044A0009BB243EA024381454FEA224B4EF8043B5C
:1044B000DBD256F80C3033B9019B043B9E421A46BE
:1044C00030D3C8F81040404601F028F8002825DB1A
:1044D000013530464FF0000C57F8042BD0F800E0BF
:1044E00093B2ACEB0303120C13FA8EF3C2EB1E4231
:1044F00002EB23429BB243EA0243B9454FEA224C06
:1045000040F8043BE8D256F8242006EB84032AB98D
:10451000043B9E421A460BD3C8F81040284603B00D
:10452000BDE8F08F1268043B002ACAD1013CC5E700
:104530001268043B002AEFD1013CEAE70020EEE7D5
:104540002DE9F04F57EC106B97B0456A0691044681
:104550000B921293DDF88080CDE900673DB9102001
:1045600000F0B4FD6062C0E901550560C560636A92
:10457000196851B15A684A60012393408B60204604
:1045800000F0EBFD636A00221A603B1EBBBF23F004
:104590000043019300230122ACBFC8F80030C8F8E3
:1045A0000020AF4BDDF8048033EA080314D1129ADF
:1045B00042F20F731360009B23B9C8F31300002865
:1045C00000F04285219BDFF8ACB2002B00F044855F
:1045D0000BF1030300F03EBDDDE90067002200237C
:1045E00030463946FCF718FA814668B1129A012321
:1045F0001360219B002B00F024859A4B219A03F134
:10460000FF3B136000F028BD14AA15A947EC106BFE
:10461000204600F0FAFFC8F30A550490002D7CD024
:10462000C7F3130343F07F5BB2464BF4401BA5F284
:10463000FF35CDF84C9000228B4B50465946FBF786
:10464000CBFD81A3D3E90023FBF77EFF80A3D3E951
:104650000023FBF7C3FD064628460F46FBF70AFF7B
:104660007DA3D3E90023FBF76FFF02460B463046DC
:104670003946FBF7B3FD06460F46FCF741FC002226
:104680008246002330463946FCF7D0F948B15046FF
:10469000FBF7F0FE32463B46FCF7BEF908B90AF1DB
:1046A000FF3ABAF1160F59D8704901EBCA01DDE99A
:1046B0000023D1E90001FCF7D7F9002850D00AF116
:1046C000FF3A00230F93149B5D1BB5F1010849BF0E
:1046D000C5F10103002305934FF0000858BF05936F
:1046E000BAF1000F3EDB0023D044CDF838A0079389
:1046F000069B092B00F29080052BC4BF043B069358
:10470000069BA3F10203CCBF00250125032B00F279
:104710008F80DFE803F07D7F3171DDE914531D44A4
:1047200005F23240202813DDC0F14000009B08FA5A
:1047300000F805F2124023FA00F048EA0000FBF707
:1047400089FE01238246A1F1F87B013D139372E7B4
:10475000009BC0F1200003FA00F0F0E70123B1E76D
:104760000F90B0E7059BA3EB0A030593CAF1000382
:10477000079300230E93BBE701230A930B9B002BA7
:1047800059DD02939946666A00227260042202F1A2
:1047900014009842716853D9204600F0AAFC636A5D
:1047A0003060B9F10E0FD3F800B000F2E680002DB2
:1047B00000F0E3809DED007BBAF1000F8DED107BE2
:1047C00074DD2A4A0AF00F0302EBC30393ED007B6A
:1047D0004FEA2A16F0068DED087B65D5244BDDE9FE
:1047E0001001D3E90823FBF7D9FFCDE9000106F05A
:1047F0000F0603251E4F4CE001230A930B9B5344E5
:1048000003F1010902934B46012BB8BF0123BAE71C
:104810000023B2E70023F0E70125002306930A9561
:104820004FF0FF3302939946002212230B92AAE71E
:1048300001230A93F4E70123029399461A46F5E708
:10484000013171605200A2E761436F63A787D23FD5
:10485000B3C8608B288AC63FFB799F501344D33F6F
:104860000000F07F815C00080000F83FE05C000879
:10487000B85C0008AD5C0008F10708D5DDE9080167
:10488000D7E90023FBF760FECDE90801013576107A
:104890000837002EF0D1DDE90823DDE90001FBF740
:1048A0007DFFCDE900011AE00225A3E700F0A0801A
:1048B000CAF100069F4BA04F06F00F0203EBC203A4
:1048C000D3E90023DDE91001FBF73EFECDE900014D
:1048D000361100230225002E7FD1002BE1D10F9B42
:1048E000002B00F08780DDE900670022934B304603
:1048F0003946FCF79BF800287CD0B9F1000F79D03D
:10490000029B002B35DD0AF1FF3308933946002264
:104910008B4B3046FBF718FECDE90001029F0135B5
:104920002846FBF7A7FDDDE90023FBF70DFE00227B
:10493000844BFBF753FC0546A1F15076002F5DD167
:104940000022814BDDE90001FBF746FC2A46334695
:10495000CDE90001FCF788F8002840F088822A465B
:1049600006F10043DDE90001FCF760F8002840F0A3
:104970007C82DDE91023CDE90023159B002BC0F2DA
:104980005081BAF10E0F00F34C816A4B03EBCA035E
:1049900093ED007B0B9B002B8DED027B80F2D8808A
:1049A000B9F1000F00F3D48040F05E820022664B24
:1049B00051EC170BFBF7C8FDDDE90023FCF74AF8C3
:1049C0004F464E46002840F0348231230BF101055A
:1049D0008BF800300AF1010A2FE2F20705D5D7E97A
:1049E0000023FBF7B1FD013501237610083772E78C
:1049F000022574E7CDF820A04F4691E74D4B03EB1D
:104A0000C70353E902010A9B002B47D002460B461D
:104A100000204E49FBF7C2FE2A463346FBF7DCFB7B
:104A2000CDE90C015D46DDE90001FCF769FA0646B7
:104A3000FBF720FD02460B46DDE90001FBF7CCFB4E
:104A4000303605F8016BDDE90C23CDE90001FBF7F9
:104A5000EDFF002863D1DDE9002300203749FBF793
:104A6000BBFBDDE90C23FBF7E1FF002840F0B7803A
:104A7000A5EB0B039F427FF77CAF0022304BDDE9B3
:104A80000C01FBF761FD0022CDE90C012C4BDDE9A7
:104A90000001FBF759FDCDE90001C4E72A46334682
:104AA000FBF752FDCDE90C010BEB07055E46DDE996
:104AB0000001FCF725FA0746FBF7DCFC303702461D
:104AC0000B46DDE90001FBF787FB06F8017BAE42F0
:104AD000CDE900014FF0000226D11C4BDDE90C01AD
:104AE000FBF77CFB02460B46DDE90001FBF7BCFF50
:104AF000002874D1DDE90C2300201449FBF76CFB7E
:104B000002460B46DDE90001FBF790FF00283FF469
:104B100030AF15F8013C302B05F1FF3202D0DDF843
:104B200020A04AE01546F4E7054BFBF70DFDCDE963
:104B30000001BCE7E05C0008B85C00080000F03F42
:104B40000000244000001C40000014400000E03F32
:104B5000DDE900675D46DDE9022330463946FBF7B3
:104B60001DFEFCF7CDF98046FBF784FCDDE902234E
:104B7000FBF7EAFC02460B463046394608F13006A0
:104B8000FBF72AFB05F8016BA5EB0B06B1450246C6
:104B90000B4639D1FBF722FBDDE9022306460F461F
:104BA000FBF762FFC8B9DDE9022330463946FBF75F
:104BB00033FF10B118F0010F0FD10499204600F017
:104BC000CCFA0023129A2B700AF101031360219B87
:104BD000002B00F041821D603EE2CDF820A015F8C8
:104BE000012C392A05F1FF3308D19B450AD1089BD6
:104BF0000133089330238BF800305B461A7801327A
:104C00001A708CE71D46EAE700229B4BFBF79CFCE1
:104C10000022002306460F46FBF7FEFE00289AD02E
:104C2000CBE70A9A002A00F08B80069A012A6EDCF4
:104C3000139A002A67D003F23343079F059D059A14
:104C400001211A4420460592984400F026FB0646AE
:104C5000002D0CDDB8F1000F09DD4545059A2B4606
:104C6000A8BF4346D21A0592ED1AA8EB0308079B8A
:104C7000EBB10A9B002B67D08FB131463A462046F4
:104C800000F0AAFB049A01460646204600F00EFBFF
:104C900004990890204600F060FA089B0493079B53
:104CA000DA1B04D00499204600F096FB0490012101
:104CB000204600F0F2FA0E9B0746002B00F0D08150
:104CC0001A460146204600F087FB069B012B07464B
:104CD00040DC009B002B39D1019BC3F31303002B55
:104CE00036D1019B23F000431B0D1B052BB1059B07
:104CF0000133059308F10108012307930E9B002B54
:104D00002AD1012030E0149BC3F1360395E7079BBD
:104D100009F1FF37BB42BFBF079B0797FA1A0E9BEB
:104D2000BBBF9B180E93DF1B0027B9F1000FB5BF67
:104D3000059B059DA3EB09054B46B8BF00237EE705
:104D4000079F059D0A9E83E7079AABE70023D4E7F8
:104D5000009BD2E7002307933B6907EB83031869A5
:104D600000F04DFAC0F12000404410F01F0047D081
:104D7000C0F12003042B3BDD059BC0F11C00034464
:104D8000059305448044059B002B05DD1A460499D4
:104D9000204600F06FFB0490B8F1000F05DD3946A6
:104DA0004246204600F066FB07460F9B53B3394648
:104DB000049800F0B3FB002824DA00230A220499A7
:104DC000204600F0E1F90A9B04900AF1FF3A002B1B
:104DD00000F04D81002331460A22204600F0D4F92C
:104DE000029B002B06464FDC069B022B4CDD11E09C
:104DF000C9D0059A1C331A4405921D449844C2E751
:104E00000346F6E7B9F1000F38DC069B022B35DDCF
:104E1000CDF80890029B63B939460522204600F080
:104E2000B3F901460746049800F078FB00283FF7E5
:104E3000CCAD0B9B5D466FEA030A4FF00009394683
:104E4000204600F08AF9002E3FF4B7AEB9F1000F0A
:104E500005D0B14503D04946204600F07EF93146E1
:104E6000204600F07AF9A8E600273E46E1E7DDF8A3
:104E700020A03E46A9E500BF000024400A9BCDF8D3
:104E80000890002B00F0FA80002D05DD31462A46FF
:104E9000204600F0EFFA0646079B002B4CD07168C5
:104EA000204600F026F9326902320546920006F1EA
:104EB0000C010C3000F012F901222946204600F0C6
:104EC000D9FA009BCDF814B003F00103B146079363
:104ED000064639460498FFF7A7FA4946054600F109
:104EE0003008049800F01AFB3246009039462046FC
:104EF00000F02EFBC368024603BB014608900498ED
:104F000000F00CFB089A034611462046089300F077
:104F100024F9089BA3B9069A92B9079A82B9B8F105
:104F2000390F29D0009B002B01DD05F13108059BCD
:104F30005D1C83F8008082E73046C2E70123E3E787
:104F4000009A002A04DB25D1069A1ABB079A0ABBED
:104F5000002BECDD01220499204600F08BFA394643
:104F6000049000F0DBFA002803DCE0D118F0010F18
:104F7000DDD0B8F1390FD8D1059B059A5D1C3923D6
:104F8000137015F8013C392B05F1FF324FD0013376
:104F9000137054E7059A002B02F1010506DDB8F104
:104FA000390FE9D008F10108059BC2E7029A05F81C
:104FB000018CA5EB0B03934221D000230A22049914
:104FC000204600F0E1F8B14504904FF000034FF0A7
:104FD0000A024946204605D100F0D6F88146064629
:104FE000059576E700F0D0F83146814600230A2285
:104FF000204600F0C9F80646F2E74FF0000901220A
:105000000499204600F036FA3946049000F086FAFA
:105010000028B6DC02D118F0010FB2D115F8013C1E
:10502000302B05F1FF327FF40AAF1546F6E79345C2
:1050300005D131230AF1010A8BF80030FFE615464D
:105040009FE7DFF864B007E0219BDFF860B01BB199
:105050000BF10803219A1360584617B0BDE8F08F92
:10506000069B012B7FF735AE0E9B079349E6029B0B
:10507000002B03DC069B022B3FF7CCAE5D46394686
:105080000498FFF7D1F900F1300805F8018B029A76
:10509000A5EB0B039A42B0DD00230A2204992046B7
:1050A00000F072F80490EAE7805C0008A45C000855
:1050B000044B1B68186A044B002808BF1846F030E0
:1050C000704700BF180000207C000020024B014602
:1050D000186800F045BB00BF1800002010B5431E43
:1050E0000A44914200D110BD11F8014B03F8014F61
:1050F000F7E770B5456A04460E463DB91020FFF744
:10510000E5FF6062C0E901550560C560656AEB684E
:1051100083B1636ADB6853F82600B8B9012101FA4C
:1051200006F56A1D9200204600F0BEFA60B1C0E9A3
:1051300001650EE021220421204600F0B5FA636AE1
:10514000E860DB68002BE4D1002070BD026843F802
:1051500026200023C0E90333F7E770B5446A06460A
:105160000D463CB91020FFF7B1FF7062C0E9014461
:105170000460C4603DB1736A6A68DB6853F822104A
:10518000296043F8225070BD2DE9F0410D691F469A
:1051900006460C4601F1140C0023DCF8000081B235
:1051A00002FB01710F0C000C02FB007089B201338D
:1051B00001EB00419D424FEA10474CF8041BECDC28
:1051C000D7B1A368AB4212DC616830460131FFF70A
:1051D00090FF2269023204F10C01804692000C30EB
:1051E000FFF77CFF21463046FFF7B7FF444604EB4C
:1051F000850301355F6125612046BDE8F081020C21
:1052000012040346B2B90304102013F07F4F04BF09
:105210001B02083013F0704F04BF1B01043013F061
:10522000404F04BF9B000230002B06DB5B0003D520
:10523000013070470020E8E720207047036813F032
:10524000070201460BD0DA0723D4980749BF5B0851
:105250009B0801200B605CBF0B600220704798B276
:10526000A8B91B0C102013F0FF0F04BF1B0A083055
:105270001A0704BF1B0904309A0704BF9B080230B9
:10528000DA0702D45B0806D001300B607047104685
:10529000E9E7002070472020704710B50C46012137
:1052A000FFF727FF01224461026110BD2DE9F74F8E
:1052B00014460A6923699A42B8BF0B468846BCBFA8
:1052C000A0461C46D8F81070D4F81090D8F80830D2
:1052D000D8F8041007EB0906B342B8BF0131FFF755
:1052E00008FF00F1140505EB860E2B4600227345DE
:1052F00016D304F1140208F1140102EB890301EB47
:1053000087070093009B019293420CD8002E03DD87
:105310005EF8043D002B5DD0066103B0BDE8F08F60
:1053200043F8042BE3E7B2F800B0BBF1000F23D041
:105330008946AC464FF0000859F8044BDCF800A051
:10534000A3B21FFA8AFA0BFB03A34FEA144ADCF854
:10535000004043444FEA14480BFB0A8404EB134417
:10536000E2469BB243EA04434F454FEA14484AF8E9
:10537000043B2BD8CCF80480019BB3F802A0043284
:10538000BAF1000F20D02B688946A8464FF0000BD9
:10539000B9F800C0B8F802400AFB0C445C44C446AB
:1053A0009BB243EA04434CF8043B59F8043BB8F879
:1053B00004B01B0C0AFB03B303EB14434F454FEA45
:1053C000134B05D8C8F8043004359BE7D446B3E73F
:1053D000E046DDE7013E99E72DE9F843154612F076
:1053E000030206460F4607D0013A214C002354F829
:1053F0002220FFF7C9FE0746AD1035D0746A3CB9CC
:105400001020FFF763FE7062C0E901440460C460CD
:10541000D6F82480D8F808404CB940F271213046C3
:10542000FFF73BFF0023C8F80800044603604FF075
:105430000008EB070AD5394622463046FFF736FF0B
:10544000394681463046FFF788FE4F466D100BD037
:10545000206838B9224621463046FFF727FF2060F2
:10546000C0F800800446E4E73846BDE8F88300BF92
:10547000A85D00082DE9F0470C464FEA621A23693F
:1054800049680AEB0309A3680746164609F10105B6
:10549000AB4232DB3846FFF72CFE0023804600F19A
:1054A00014011A4653452BDB20692AEAEA7A04F1F3
:1054B000140316F01F0201EB8A0103EB800C25D0C8
:1054C000C2F1200E00201E688A46964030434AF8FA
:1054D000040B53F8040B9C4520FA0EF014D84860D6
:1054E00008B109F10205013D3846C8F810502146BF
:1054F000FFF733FE4046BDE8F08701315B00C7E7A8
:1055000041F823200133CDE75146DCE7043953F855
:10551000042B41F8042F9C45F9D8E4E703690A6994
:105520009B1A30B50CD192001430143184181144F8
:1055300054F8045D51F8042D954203D005D301239E
:10554000184630BDA042F3D3FAE74FF0FF33F7E738
:105550002DE9F0470D460746114628461446FFF749
:10556000DDFF061E08D131463846FFF7C2FD012394
:10557000C0E90436BDE8F087A4BF23462C46384670
:105580006168A6BF1D4600260126FFF7B2FD2B6904
:10559000C660266905F1140904F1140202EB8607BE
:1055A00009EB830800F114054FF0000E52F804AB2C
:1055B00059F8044B1EFA8AF1A3B2C91A230CC3EBA3
:1055C0001A4303EB214389B24FEA234EC84541EA0F
:1055D0000343944645F8043BE8D8BC4504D355F84A
:1055E000043D83B10661C5E75CF8041B1EFA81F334
:1055F0001A1402EB11429BB243EA02434FEA224ED5
:1056000045F8043BE9E7013EE9E72DE9F7430E469B
:10561000012159EC108B1546FFF76BFDC9F30A54B5
:105620000746C9F3130334BB0193B8F1000327D035
:1056300002A840F8083DFFF701FE0099F0B1019A79
:10564000C0F1200302FA03F30B43C2407B610192D5
:10565000019BBB61002B14BF022101213961C4B140
:10566000A4F2334404443460C0F135002860384665
:1056700003B0BDE8F08343F48013D5E77961E7E731
:1056800001A8FFF7DBFD019B7B610121396120301F
:10569000E5E707EB8103A0F2324030601869FFF7BD
:1056A000AEFDC0EB4110E1E738B502FB01F4214645
:1056B00000F056F8054618B122460021FEF730FAF0
:1056C000284638BD38B50546002945D051F8043C78
:1056D0000C1F002BB8BFE41800F029FA1F4A13680A
:1056E000104633B9636014602846BDE8384000F0C6
:1056F0001FBAA3420CD921686218934204BF1A68EA
:105700005B68636004BF521822600460ECE71346D4
:105710005A680AB1A242FAD919685818A0420BD1A6
:1057200020680144581882421960DDD1106852681F
:105730005A6001441960D7E702D90C232B60D3E7E4
:10574000206821188A4204BF11685268626004BF51
:10575000091821605C60C7E738BD00BFB8020020AF
:1057600070B5CD1C25F0030508350C2D38BF0C2570
:10577000002D064601DBA94203D90C23336000202B
:1057800070BD00F0D4F9214A1468214691B9204C2B
:1057900023681BB9304600F08FF920602946304657
:1057A00000F08AF9431C24D10C233360304600F00A
:1057B000BFF9E4E70B685B1B18D40B2B0FD90B6008
:1057C000CD50CC18304600F0B3F904F10B00231D86
:1057D00020F00700C31AD3D05A42E250D0E78C42DF
:1057E0004B6816BF636013600C46EBE70C464968D4
:1057F000CCE7C41C24F00304A04205D0211A304693
:1058000000F05AF90130CFD02560DBE7B802002064
:10581000BC0200202DE9F0478E689E4282460C466D
:105820009046994637D88A8912F4906F31D025680E
:1058300009696F1A6569022305EB450595FBF3F5C8
:1058400009F101033B449D4238BF1D46530530D545
:105850002946FFF785FF064650B90C23CAF80030E9
:10586000A38943F04003A3814FF0FF30BDE8F087E8
:105870003A462169FFF732FCA38923F4906343F091
:105880008003A381266165613E44ED1B2660A5600F
:105890004E464E4500D94E4632464146206800F0FD
:1058A0002DF9A3689B1BA36023681E44266000207B
:1058B000DCE72A4600F03DF906460028E2D12169DE
:1058C0005046FFF7FFFEC8E72DE9F04F1D468B89D4
:1058D0001F069DB080460C4616460FD50B696BB966
:1058E0004021FFF73DFF2060206128B90C23C8F854
:1058F00000304FF0FF30C8E040236361002309937C
:1059000020238DF8293030238DF82A3003954FF06D
:10591000010B37463D4615F8013B0BB1252B3ED117
:10592000B7EB060A0BD05346324621464046FFF7F6
:1059300071FF013000F0A480099B534409933B7828
:10594000002B00F09D8000234FF0FF32CDE90523AE
:10595000049307938DF853301A932F46052217F8B6
:10596000011B5048FBF77CFA049BD0B9D90644BF11
:1059700020228DF853201A0744BF2B228DF8532084
:105980002A782A2A15D0079A2F4600200A25394658
:1059900011F8013B303B092B4DD9B8B10FE02F4630
:1059A000B8E7404A801A0BFA00F0184304903D46CD
:1059B000D3E7039A111D12680391002A01DB0792B5
:1059C00004E0524243F00203079204933B782E2BEB
:1059D0000CD17B782A2B33D1039B1A1D1B680392B1
:1059E000002BB8BF4FF0FF33023705932E4D3978A7
:1059F00003222846FBF734FA38B14023401B03FA50
:105A000000F0049B034301370493397827488DF84D
:105A1000281006227E1CFBF723FA002838D0244BDE
:105A200013BB039B073323F0070308330393099B3E
:105A30004B4409936DE705FB023201200F46A6E7B0
:105A400000230137059319460A25384610F8012B23
:105A5000303A092A03D9002BC8D00591C6E705FBC7
:105A6000012101230746F0E703AB00932246114BC7
:105A700004A94046FEF7F0F8B0F1FF3F8146D6D1C9
:105A8000A3895B063FF535AF09981DB0BDE8F08FDF
:105A900003AB00932246074B04A94046FEF792FB56
:105AA000EAE700BFB45D0008BA5D0008BE5D00080B
:105AB000593C00081558000838B5064C0023054627
:105AC0000846236000F070F8431C02D1236803B13C
:105AD0002B6038BD9404002082B001B901A942B105
